{
	"contracts/1_Storage.sol": {
		"TodoContract": {
			"abi": [
				{
					"anonymous": false,
					"inputs": [
						{
							"indexed": false,
							"internalType": "uint256",
							"name": "todoId",
							"type": "uint256"
						},
						{
							"indexed": false,
							"internalType": "string",
							"name": "_title",
							"type": "string"
						},
						{
							"indexed": false,
							"internalType": "string",
							"name": "_description",
							"type": "string"
						}
					],
					"name": "TodoAdded",
					"type": "event"
				},
				{
					"anonymous": false,
					"inputs": [
						{
							"indexed": false,
							"internalType": "uint256",
							"name": "todoId",
							"type": "uint256"
						},
						{
							"indexed": false,
							"internalType": "bool",
							"name": "isDone",
							"type": "bool"
						}
					],
					"name": "TodoCompleted",
					"type": "event"
				},
				{
					"anonymous": false,
					"inputs": [
						{
							"indexed": false,
							"internalType": "uint256",
							"name": "",
							"type": "uint256"
						}
					],
					"name": "TodoDeleted",
					"type": "event"
				},
				{
					"anonymous": false,
					"inputs": [
						{
							"indexed": false,
							"internalType": "uint256",
							"name": "todoId",
							"type": "uint256"
						},
						{
							"indexed": false,
							"internalType": "string",
							"name": "_updatedTitle",
							"type": "string"
						},
						{
							"indexed": false,
							"internalType": "string",
							"name": "_updatedDesc",
							"type": "string"
						}
					],
					"name": "TodoUpdated",
					"type": "event"
				},
				{
					"inputs": [
						{
							"internalType": "string",
							"name": "_title",
							"type": "string"
						},
						{
							"internalType": "string",
							"name": "_description",
							"type": "string"
						}
					],
					"name": "addTodo",
					"outputs": [],
					"stateMutability": "nonpayable",
					"type": "function"
				},
				{
					"inputs": [
						{
							"internalType": "uint256",
							"name": "_todoId",
							"type": "uint256"
						}
					],
					"name": "deleteTodo",
					"outputs": [],
					"stateMutability": "nonpayable",
					"type": "function"
				},
				{
					"inputs": [
						{
							"internalType": "uint8",
							"name": "_todoId",
							"type": "uint8"
						}
					],
					"name": "getTodo",
					"outputs": [
						{
							"internalType": "string",
							"name": "title",
							"type": "string"
						},
						{
							"internalType": "string",
							"name": "description",
							"type": "string"
						}
					],
					"stateMutability": "view",
					"type": "function"
				},
				{
					"inputs": [],
					"name": "getTodoLists",
					"outputs": [
						{
							"components": [
								{
									"internalType": "string",
									"name": "title",
									"type": "string"
								},
								{
									"internalType": "string",
									"name": "description",
									"type": "string"
								},
								{
									"internalType": "bool",
									"name": "isDone",
									"type": "bool"
								}
							],
							"internalType": "struct TodoContract.Todo[]",
							"name": "",
							"type": "tuple[]"
						}
					],
					"stateMutability": "view",
					"type": "function"
				},
				{
					"inputs": [
						{
							"internalType": "uint256",
							"name": "",
							"type": "uint256"
						}
					],
					"name": "todos",
					"outputs": [
						{
							"internalType": "string",
							"name": "title",
							"type": "string"
						},
						{
							"internalType": "string",
							"name": "description",
							"type": "string"
						},
						{
							"internalType": "bool",
							"name": "isDone",
							"type": "bool"
						}
					],
					"stateMutability": "view",
					"type": "function"
				},
				{
					"inputs": [
						{
							"internalType": "uint256",
							"name": "_todoId",
							"type": "uint256"
						}
					],
					"name": "toggleIsDone",
					"outputs": [],
					"stateMutability": "nonpayable",
					"type": "function"
				},
				{
					"inputs": [
						{
							"internalType": "uint256",
							"name": "_todoId",
							"type": "uint256"
						},
						{
							"internalType": "string",
							"name": "_updatedTitle",
							"type": "string"
						},
						{
							"internalType": "string",
							"name": "_updatedDesc",
							"type": "string"
						}
					],
					"name": "updateTodo",
					"outputs": [],
					"stateMutability": "nonpayable",
					"type": "function"
				}
			],
			"devdoc": {
				"kind": "dev",
				"methods": {},
				"version": 1
			},
			"evm": {
				"assembly": "    /* \"contracts/1_Storage.sol\":70:1796  contract TodoContract {... */\n  mstore(0x40, 0x80)\n  callvalue\n  dup1\n  iszero\n  tag_1\n  jumpi\n  0x00\n  dup1\n  revert\ntag_1:\n  pop\n  dataSize(sub_0)\n  dup1\n  dataOffset(sub_0)\n  0x00\n  codecopy\n  0x00\n  return\nstop\n\nsub_0: assembly {\n        /* \"contracts/1_Storage.sol\":70:1796  contract TodoContract {... */\n      mstore(0x40, 0x80)\n      callvalue\n      dup1\n      iszero\n      tag_1\n      jumpi\n      0x00\n      dup1\n      revert\n    tag_1:\n      pop\n      jumpi(tag_2, lt(calldatasize, 0x04))\n      shr(0xe0, calldataload(0x00))\n      dup1\n      0x81e94199\n      gt\n      tag_10\n      jumpi\n      dup1\n      0x81e94199\n      eq\n      tag_6\n      jumpi\n      dup1\n      0xbc8bc2b4\n      eq\n      tag_7\n      jumpi\n      dup1\n      0xc1876bfd\n      eq\n      tag_8\n      jumpi\n      dup1\n      0xfb0b86fb\n      eq\n      tag_9\n      jumpi\n      jump(tag_2)\n    tag_10:\n      dup1\n      0x0709ecf2\n      eq\n      tag_3\n      jumpi\n      dup1\n      0x1b7fb260\n      eq\n      tag_4\n      jumpi\n      dup1\n      0x6e3c6738\n      eq\n      tag_5\n      jumpi\n    tag_2:\n      0x00\n      dup1\n      revert\n        /* \"contracts/1_Storage.sol\":1190:1278  function getTodoLists() public view returns(Todo[] memory) {... */\n    tag_3:\n      tag_11\n      tag_12\n      jump\t// in\n    tag_11:\n      mload(0x40)\n      tag_13\n      swap2\n      swap1\n      tag_14\n      jump\t// in\n    tag_13:\n      mload(0x40)\n      dup1\n      swap2\n      sub\n      swap1\n      return\n        /* \"contracts/1_Storage.sol\":463:662  function addTodo(string memory _title, string memory _description) public {... */\n    tag_4:\n      tag_15\n      0x04\n      dup1\n      calldatasize\n      sub\n      dup2\n      add\n      swap1\n      tag_16\n      swap2\n      swap1\n      tag_17\n      jump\t// in\n    tag_16:\n      tag_18\n      jump\t// in\n    tag_15:\n      stop\n        /* \"contracts/1_Storage.sol\":1020:1184  function deleteTodo(uint256 _todoId) public {... */\n    tag_5:\n      tag_19\n      0x04\n      dup1\n      calldatasize\n      sub\n      dup2\n      add\n      swap1\n      tag_20\n      swap2\n      swap1\n      tag_21\n      jump\t// in\n    tag_20:\n      tag_22\n      jump\t// in\n    tag_19:\n      stop\n        /* \"contracts/1_Storage.sol\":668:1014  function updateTodo(uint256 _todoId, string memory _updatedTitle, string memory _updatedDesc) public {... */\n    tag_6:\n      tag_23\n      0x04\n      dup1\n      calldatasize\n      sub\n      dup2\n      add\n      swap1\n      tag_24\n      swap2\n      swap1\n      tag_25\n      jump\t// in\n    tag_24:\n      tag_26\n      jump\t// in\n    tag_23:\n      stop\n        /* \"contracts/1_Storage.sol\":195:214  Todo[] public todos */\n    tag_7:\n      tag_27\n      0x04\n      dup1\n      calldatasize\n      sub\n      dup2\n      add\n      swap1\n      tag_28\n      swap2\n      swap1\n      tag_21\n      jump\t// in\n    tag_28:\n      tag_29\n      jump\t// in\n    tag_27:\n      mload(0x40)\n      tag_30\n      swap4\n      swap3\n      swap2\n      swap1\n      tag_31\n      jump\t// in\n    tag_30:\n      mload(0x40)\n      dup1\n      swap2\n      sub\n      swap1\n      return\n        /* \"contracts/1_Storage.sol\":1559:1792  function toggleIsDone(uint256 _todoId) public {... */\n    tag_8:\n      tag_32\n      0x04\n      dup1\n      calldatasize\n      sub\n      dup2\n      add\n      swap1\n      tag_33\n      swap2\n      swap1\n      tag_21\n      jump\t// in\n    tag_33:\n      tag_34\n      jump\t// in\n    tag_32:\n      stop\n        /* \"contracts/1_Storage.sol\":1287:1548  function getTodo(uint8 _todoId) public view returns (string memory title, string memory description){... */\n    tag_9:\n      tag_35\n      0x04\n      dup1\n      calldatasize\n      sub\n      dup2\n      add\n      swap1\n      tag_36\n      swap2\n      swap1\n      tag_37\n      jump\t// in\n    tag_36:\n      tag_38\n      jump\t// in\n    tag_35:\n      mload(0x40)\n      tag_39\n      swap3\n      swap2\n      swap1\n      tag_40\n      jump\t// in\n    tag_39:\n      mload(0x40)\n      dup1\n      swap2\n      sub\n      swap1\n      return\n        /* \"contracts/1_Storage.sol\":1190:1278  function getTodoLists() public view returns(Todo[] memory) {... */\n    tag_12:\n        /* \"contracts/1_Storage.sol\":1234:1247  Todo[] memory */\n      0x60\n        /* \"contracts/1_Storage.sol\":1266:1271  todos */\n      0x00\n        /* \"contracts/1_Storage.sol\":1259:1271  return todos */\n      dup1\n      sload\n      dup1\n      0x20\n      mul\n      0x20\n      add\n      mload(0x40)\n      swap1\n      dup2\n      add\n      0x40\n      mstore\n      dup1\n      swap3\n      swap2\n      swap1\n      dup2\n      dup2\n      mstore\n      0x20\n      add\n      0x00\n      swap1\n    tag_42:\n      dup3\n      dup3\n      lt\n      iszero\n      tag_43\n      jumpi\n      dup4\n      dup3\n      swap1\n      0x00\n      mstore\n      keccak256(0x00, 0x20)\n      swap1\n      0x03\n      mul\n      add\n      mload(0x40)\n      dup1\n      0x60\n      add\n      0x40\n      mstore\n      swap1\n      dup2\n      0x00\n      dup3\n      add\n      dup1\n      sload\n      tag_45\n      swap1\n      tag_46\n      jump\t// in\n    tag_45:\n      dup1\n      0x1f\n      add\n      0x20\n      dup1\n      swap2\n      div\n      mul\n      0x20\n      add\n      mload(0x40)\n      swap1\n      dup2\n      add\n      0x40\n      mstore\n      dup1\n      swap3\n      swap2\n      swap1\n      dup2\n      dup2\n      mstore\n      0x20\n      add\n      dup3\n      dup1\n      sload\n      tag_47\n      swap1\n      tag_46\n      jump\t// in\n    tag_47:\n      dup1\n      iszero\n      tag_48\n      jumpi\n      dup1\n      0x1f\n      lt\n      tag_49\n      jumpi\n      0x0100\n      dup1\n      dup4\n      sload\n      div\n      mul\n      dup4\n      mstore\n      swap2\n      0x20\n      add\n      swap2\n      jump(tag_48)\n    tag_49:\n      dup3\n      add\n      swap2\n      swap1\n      0x00\n      mstore\n      keccak256(0x00, 0x20)\n      swap1\n    tag_50:\n      dup2\n      sload\n      dup2\n      mstore\n      swap1\n      0x01\n      add\n      swap1\n      0x20\n      add\n      dup1\n      dup4\n      gt\n      tag_50\n      jumpi\n      dup3\n      swap1\n      sub\n      0x1f\n      and\n      dup3\n      add\n      swap2\n    tag_48:\n      pop\n      pop\n      pop\n      pop\n      pop\n      dup2\n      mstore\n      0x20\n      add\n      0x01\n      dup3\n      add\n      dup1\n      sload\n      tag_51\n      swap1\n      tag_46\n      jump\t// in\n    tag_51:\n      dup1\n      0x1f\n      add\n      0x20\n      dup1\n      swap2\n      div\n      mul\n      0x20\n      add\n      mload(0x40)\n      swap1\n      dup2\n      add\n      0x40\n      mstore\n      dup1\n      swap3\n      swap2\n      swap1\n      dup2\n      dup2\n      mstore\n      0x20\n      add\n      dup3\n      dup1\n      sload\n      tag_52\n      swap1\n      tag_46\n      jump\t// in\n    tag_52:\n      dup1\n      iszero\n      tag_53\n      jumpi\n      dup1\n      0x1f\n      lt\n      tag_54\n      jumpi\n      0x0100\n      dup1\n      dup4\n      sload\n      div\n      mul\n      dup4\n      mstore\n      swap2\n      0x20\n      add\n      swap2\n      jump(tag_53)\n    tag_54:\n      dup3\n      add\n      swap2\n      swap1\n      0x00\n      mstore\n      keccak256(0x00, 0x20)\n      swap1\n    tag_55:\n      dup2\n      sload\n      dup2\n      mstore\n      swap1\n      0x01\n      add\n      swap1\n      0x20\n      add\n      dup1\n      dup4\n      gt\n      tag_55\n      jumpi\n      dup3\n      swap1\n      sub\n      0x1f\n      and\n      dup3\n      add\n      swap2\n    tag_53:\n      pop\n      pop\n      pop\n      pop\n      pop\n      dup2\n      mstore\n      0x20\n      add\n      0x02\n      dup3\n      add\n      0x00\n      swap1\n      sload\n      swap1\n      0x0100\n      exp\n      swap1\n      div\n      0xff\n      and\n      iszero\n      iszero\n      iszero\n      iszero\n      dup2\n      mstore\n      pop\n      pop\n      dup2\n      mstore\n      0x20\n      add\n      swap1\n      0x01\n      add\n      swap1\n      jump(tag_42)\n    tag_43:\n      pop\n      pop\n      pop\n      pop\n      swap1\n      pop\n        /* \"contracts/1_Storage.sol\":1190:1278  function getTodoLists() public view returns(Todo[] memory) {... */\n      swap1\n      jump\t// out\n        /* \"contracts/1_Storage.sol\":463:662  function addTodo(string memory _title, string memory _description) public {... */\n    tag_18:\n        /* \"contracts/1_Storage.sol\":547:552  todos */\n      0x00\n        /* \"contracts/1_Storage.sol\":558:591  Todo(_title, _description, false) */\n      mload(0x40)\n      dup1\n      0x60\n      add\n      0x40\n      mstore\n      dup1\n        /* \"contracts/1_Storage.sol\":563:569  _title */\n      dup5\n        /* \"contracts/1_Storage.sol\":558:591  Todo(_title, _description, false) */\n      dup2\n      mstore\n      0x20\n      add\n        /* \"contracts/1_Storage.sol\":571:583  _description */\n      dup4\n        /* \"contracts/1_Storage.sol\":558:591  Todo(_title, _description, false) */\n      dup2\n      mstore\n      0x20\n      add\n        /* \"contracts/1_Storage.sol\":585:590  false */\n      0x00\n        /* \"contracts/1_Storage.sol\":558:591  Todo(_title, _description, false) */\n      iszero\n      iszero\n      dup2\n      mstore\n      pop\n        /* \"contracts/1_Storage.sol\":547:592  todos.push(Todo(_title, _description, false)) */\n      swap1\n      dup1\n      0x01\n      dup2\n      sload\n      add\n      dup1\n      dup3\n      sstore\n      dup1\n      swap2\n      pop\n      pop\n      0x01\n      swap1\n      sub\n      swap1\n      0x00\n      mstore\n      keccak256(0x00, 0x20)\n      swap1\n      0x03\n      mul\n      add\n      0x00\n      swap1\n      swap2\n      swap1\n      swap2\n      swap1\n      swap2\n      pop\n      0x00\n      dup3\n      add\n      mload\n      dup2\n      0x00\n      add\n      swap1\n      dup2\n      tag_58\n      swap2\n      swap1\n      tag_59\n      jump\t// in\n    tag_58:\n      pop\n      0x20\n      dup3\n      add\n      mload\n      dup2\n      0x01\n      add\n      swap1\n      dup2\n      tag_60\n      swap2\n      swap1\n      tag_59\n      jump\t// in\n    tag_60:\n      pop\n      0x40\n      dup3\n      add\n      mload\n      dup2\n      0x02\n      add\n      exp(0x0100, 0x00)\n      dup2\n      sload\n      dup2\n      0xff\n      mul\n      not\n      and\n      swap1\n      dup4\n      iszero\n      iszero\n      mul\n      or\n      swap1\n      sstore\n      pop\n      pop\n      pop\n        /* \"contracts/1_Storage.sol\":607:655  TodoAdded(todos.length -1, _title, _description) */\n      0x961d149d7330635c7a6a92d9ae9c877637052220faf76eaf876fd4742d7b9956\n        /* \"contracts/1_Storage.sol\":631:632  1 */\n      0x01\n        /* \"contracts/1_Storage.sol\":617:622  todos */\n      0x00\n        /* \"contracts/1_Storage.sol\":617:629  todos.length */\n      dup1\n      sload\n      swap1\n      pop\n        /* \"contracts/1_Storage.sol\":617:632  todos.length -1 */\n      tag_61\n      swap2\n      swap1\n      tag_62\n      jump\t// in\n    tag_61:\n        /* \"contracts/1_Storage.sol\":634:640  _title */\n      dup4\n        /* \"contracts/1_Storage.sol\":642:654  _description */\n      dup4\n        /* \"contracts/1_Storage.sol\":607:655  TodoAdded(todos.length -1, _title, _description) */\n      mload(0x40)\n      tag_63\n      swap4\n      swap3\n      swap2\n      swap1\n      tag_64\n      jump\t// in\n    tag_63:\n      mload(0x40)\n      dup1\n      swap2\n      sub\n      swap1\n      log1\n        /* \"contracts/1_Storage.sol\":463:662  function addTodo(string memory _title, string memory _description) public {... */\n      pop\n      pop\n      jump\t// out\n        /* \"contracts/1_Storage.sol\":1020:1184  function deleteTodo(uint256 _todoId) public {... */\n    tag_22:\n        /* \"contracts/1_Storage.sol\":1092:1097  todos */\n      0x00\n        /* \"contracts/1_Storage.sol\":1092:1104  todos.length */\n      dup1\n      sload\n      swap1\n      pop\n        /* \"contracts/1_Storage.sol\":1082:1089  _todoId */\n      dup2\n        /* \"contracts/1_Storage.sol\":1082:1104  _todoId < todos.length */\n      lt\n        /* \"contracts/1_Storage.sol\":1074:1141  require(_todoId < todos.length, \"Todo item not found or existing!\") */\n      tag_66\n      jumpi\n      mload(0x40)\n      0x08c379a000000000000000000000000000000000000000000000000000000000\n      dup2\n      mstore\n      0x04\n      add\n      tag_67\n      swap1\n      tag_68\n      jump\t// in\n    tag_67:\n      mload(0x40)\n      dup1\n      swap2\n      sub\n      swap1\n      revert\n    tag_66:\n        /* \"contracts/1_Storage.sol\":1157:1177  TodoDeleted(_todoId) */\n      0x1072e4eeea43a52d09f5b6dfc870a079948f706133840ce9239aebc57fabb65f\n        /* \"contracts/1_Storage.sol\":1169:1176  _todoId */\n      dup2\n        /* \"contracts/1_Storage.sol\":1157:1177  TodoDeleted(_todoId) */\n      mload(0x40)\n      tag_69\n      swap2\n      swap1\n      tag_70\n      jump\t// in\n    tag_69:\n      mload(0x40)\n      dup1\n      swap2\n      sub\n      swap1\n      log1\n        /* \"contracts/1_Storage.sol\":1020:1184  function deleteTodo(uint256 _todoId) public {... */\n      pop\n      jump\t// out\n        /* \"contracts/1_Storage.sol\":668:1014  function updateTodo(uint256 _todoId, string memory _updatedTitle, string memory _updatedDesc) public {... */\n    tag_26:\n        /* \"contracts/1_Storage.sol\":797:802  todos */\n      0x00\n        /* \"contracts/1_Storage.sol\":797:809  todos.length */\n      dup1\n      sload\n      swap1\n      pop\n        /* \"contracts/1_Storage.sol\":787:794  _todoId */\n      dup4\n        /* \"contracts/1_Storage.sol\":787:809  _todoId < todos.length */\n      lt\n        /* \"contracts/1_Storage.sol\":779:846  require(_todoId < todos.length, \"Todo item not found or existing!\") */\n      tag_72\n      jumpi\n      mload(0x40)\n      0x08c379a000000000000000000000000000000000000000000000000000000000\n      dup2\n      mstore\n      0x04\n      add\n      tag_73\n      swap1\n      tag_68\n      jump\t// in\n    tag_73:\n      mload(0x40)\n      dup1\n      swap2\n      sub\n      swap1\n      revert\n    tag_72:\n        /* \"contracts/1_Storage.sol\":879:892  _updatedTitle */\n      dup2\n        /* \"contracts/1_Storage.sol\":856:861  todos */\n      0x00\n        /* \"contracts/1_Storage.sol\":862:869  _todoId */\n      dup5\n        /* \"contracts/1_Storage.sol\":856:870  todos[_todoId] */\n      dup2\n      sload\n      dup2\n      lt\n      tag_74\n      jumpi\n      tag_75\n      tag_76\n      jump\t// in\n    tag_75:\n    tag_74:\n      swap1\n      0x00\n      mstore\n      keccak256(0x00, 0x20)\n      swap1\n      0x03\n      mul\n      add\n        /* \"contracts/1_Storage.sol\":856:876  todos[_todoId].title */\n      0x00\n      add\n        /* \"contracts/1_Storage.sol\":856:892  todos[_todoId].title = _updatedTitle */\n      swap1\n      dup2\n      tag_78\n      swap2\n      swap1\n      tag_59\n      jump\t// in\n    tag_78:\n      pop\n        /* \"contracts/1_Storage.sol\":931:943  _updatedDesc */\n      dup1\n        /* \"contracts/1_Storage.sol\":902:907  todos */\n      0x00\n        /* \"contracts/1_Storage.sol\":908:915  _todoId */\n      dup5\n        /* \"contracts/1_Storage.sol\":902:916  todos[_todoId] */\n      dup2\n      sload\n      dup2\n      lt\n      tag_79\n      jumpi\n      tag_80\n      tag_76\n      jump\t// in\n    tag_80:\n    tag_79:\n      swap1\n      0x00\n      mstore\n      keccak256(0x00, 0x20)\n      swap1\n      0x03\n      mul\n      add\n        /* \"contracts/1_Storage.sol\":902:928  todos[_todoId].description */\n      0x01\n      add\n        /* \"contracts/1_Storage.sol\":902:943  todos[_todoId].description = _updatedDesc */\n      swap1\n      dup2\n      tag_82\n      swap2\n      swap1\n      tag_59\n      jump\t// in\n    tag_82:\n      pop\n        /* \"contracts/1_Storage.sol\":958:1007  TodoUpdated(_todoId, _updatedTitle, _updatedDesc) */\n      0x46cd94e7c17f1d1dccdf3eaf684569a25cb847ab0b30b0af79d1f2b3a2df21b7\n        /* \"contracts/1_Storage.sol\":970:977  _todoId */\n      dup4\n        /* \"contracts/1_Storage.sol\":979:992  _updatedTitle */\n      dup4\n        /* \"contracts/1_Storage.sol\":994:1006  _updatedDesc */\n      dup4\n        /* \"contracts/1_Storage.sol\":958:1007  TodoUpdated(_todoId, _updatedTitle, _updatedDesc) */\n      mload(0x40)\n      tag_83\n      swap4\n      swap3\n      swap2\n      swap1\n      tag_64\n      jump\t// in\n    tag_83:\n      mload(0x40)\n      dup1\n      swap2\n      sub\n      swap1\n      log1\n        /* \"contracts/1_Storage.sol\":668:1014  function updateTodo(uint256 _todoId, string memory _updatedTitle, string memory _updatedDesc) public {... */\n      pop\n      pop\n      pop\n      jump\t// out\n        /* \"contracts/1_Storage.sol\":195:214  Todo[] public todos */\n    tag_29:\n      0x00\n      dup2\n      dup2\n      sload\n      dup2\n      lt\n      tag_84\n      jumpi\n      0x00\n      dup1\n      revert\n    tag_84:\n      swap1\n      0x00\n      mstore\n      keccak256(0x00, 0x20)\n      swap1\n      0x03\n      mul\n      add\n      0x00\n      swap2\n      pop\n      swap1\n      pop\n      dup1\n      0x00\n      add\n      dup1\n      sload\n      tag_86\n      swap1\n      tag_46\n      jump\t// in\n    tag_86:\n      dup1\n      0x1f\n      add\n      0x20\n      dup1\n      swap2\n      div\n      mul\n      0x20\n      add\n      mload(0x40)\n      swap1\n      dup2\n      add\n      0x40\n      mstore\n      dup1\n      swap3\n      swap2\n      swap1\n      dup2\n      dup2\n      mstore\n      0x20\n      add\n      dup3\n      dup1\n      sload\n      tag_87\n      swap1\n      tag_46\n      jump\t// in\n    tag_87:\n      dup1\n      iszero\n      tag_88\n      jumpi\n      dup1\n      0x1f\n      lt\n      tag_89\n      jumpi\n      0x0100\n      dup1\n      dup4\n      sload\n      div\n      mul\n      dup4\n      mstore\n      swap2\n      0x20\n      add\n      swap2\n      jump(tag_88)\n    tag_89:\n      dup3\n      add\n      swap2\n      swap1\n      0x00\n      mstore\n      keccak256(0x00, 0x20)\n      swap1\n    tag_90:\n      dup2\n      sload\n      dup2\n      mstore\n      swap1\n      0x01\n      add\n      swap1\n      0x20\n      add\n      dup1\n      dup4\n      gt\n      tag_90\n      jumpi\n      dup3\n      swap1\n      sub\n      0x1f\n      and\n      dup3\n      add\n      swap2\n    tag_88:\n      pop\n      pop\n      pop\n      pop\n      pop\n      swap1\n      dup1\n      0x01\n      add\n      dup1\n      sload\n      tag_91\n      swap1\n      tag_46\n      jump\t// in\n    tag_91:\n      dup1\n      0x1f\n      add\n      0x20\n      dup1\n      swap2\n      div\n      mul\n      0x20\n      add\n      mload(0x40)\n      swap1\n      dup2\n      add\n      0x40\n      mstore\n      dup1\n      swap3\n      swap2\n      swap1\n      dup2\n      dup2\n      mstore\n      0x20\n      add\n      dup3\n      dup1\n      sload\n      tag_92\n      swap1\n      tag_46\n      jump\t// in\n    tag_92:\n      dup1\n      iszero\n      tag_93\n      jumpi\n      dup1\n      0x1f\n      lt\n      tag_94\n      jumpi\n      0x0100\n      dup1\n      dup4\n      sload\n      div\n      mul\n      dup4\n      mstore\n      swap2\n      0x20\n      add\n      swap2\n      jump(tag_93)\n    tag_94:\n      dup3\n      add\n      swap2\n      swap1\n      0x00\n      mstore\n      keccak256(0x00, 0x20)\n      swap1\n    tag_95:\n      dup2\n      sload\n      dup2\n      mstore\n      swap1\n      0x01\n      add\n      swap1\n      0x20\n      add\n      dup1\n      dup4\n      gt\n      tag_95\n      jumpi\n      dup3\n      swap1\n      sub\n      0x1f\n      and\n      dup3\n      add\n      swap2\n    tag_93:\n      pop\n      pop\n      pop\n      pop\n      pop\n      swap1\n      dup1\n      0x02\n      add\n      0x00\n      swap1\n      sload\n      swap1\n      0x0100\n      exp\n      swap1\n      div\n      0xff\n      and\n      swap1\n      pop\n      dup4\n      jump\t// out\n        /* \"contracts/1_Storage.sol\":1559:1792  function toggleIsDone(uint256 _todoId) public {... */\n    tag_34:\n        /* \"contracts/1_Storage.sol\":1633:1638  todos */\n      0x00\n        /* \"contracts/1_Storage.sol\":1633:1645  todos.length */\n      dup1\n      sload\n      swap1\n      pop\n        /* \"contracts/1_Storage.sol\":1623:1630  _todoId */\n      dup2\n        /* \"contracts/1_Storage.sol\":1623:1645  _todoId < todos.length */\n      lt\n        /* \"contracts/1_Storage.sol\":1615:1669  require(_todoId < todos.length, \"Todo item not found\") */\n      tag_97\n      jumpi\n      mload(0x40)\n      0x08c379a000000000000000000000000000000000000000000000000000000000\n      dup2\n      mstore\n      0x04\n      add\n      tag_98\n      swap1\n      tag_99\n      jump\t// in\n    tag_98:\n      mload(0x40)\n      dup1\n      swap2\n      sub\n      swap1\n      revert\n    tag_97:\n        /* \"contracts/1_Storage.sol\":1704:1709  todos */\n      0x00\n        /* \"contracts/1_Storage.sol\":1710:1717  _todoId */\n      dup2\n        /* \"contracts/1_Storage.sol\":1704:1718  todos[_todoId] */\n      dup2\n      sload\n      dup2\n      lt\n      tag_100\n      jumpi\n      tag_101\n      tag_76\n      jump\t// in\n    tag_101:\n    tag_100:\n      swap1\n      0x00\n      mstore\n      keccak256(0x00, 0x20)\n      swap1\n      0x03\n      mul\n      add\n        /* \"contracts/1_Storage.sol\":1704:1725  todos[_todoId].isDone */\n      0x02\n      add\n      0x00\n      swap1\n      sload\n      swap1\n      0x0100\n      exp\n      swap1\n      div\n      0xff\n      and\n        /* \"contracts/1_Storage.sol\":1703:1725  !todos[_todoId].isDone */\n      iszero\n        /* \"contracts/1_Storage.sol\":1679:1684  todos */\n      0x00\n        /* \"contracts/1_Storage.sol\":1685:1692  _todoId */\n      dup3\n        /* \"contracts/1_Storage.sol\":1679:1693  todos[_todoId] */\n      dup2\n      sload\n      dup2\n      lt\n      tag_103\n      jumpi\n      tag_104\n      tag_76\n      jump\t// in\n    tag_104:\n    tag_103:\n      swap1\n      0x00\n      mstore\n      keccak256(0x00, 0x20)\n      swap1\n      0x03\n      mul\n      add\n        /* \"contracts/1_Storage.sol\":1679:1700  todos[_todoId].isDone */\n      0x02\n      add\n      0x00\n        /* \"contracts/1_Storage.sol\":1679:1725  todos[_todoId].isDone = !todos[_todoId].isDone */\n      0x0100\n      exp\n      dup2\n      sload\n      dup2\n      0xff\n      mul\n      not\n      and\n      swap1\n      dup4\n      iszero\n      iszero\n      mul\n      or\n      swap1\n      sstore\n      pop\n        /* \"contracts/1_Storage.sol\":1740:1785  TodoCompleted(_todoId, todos[_todoId].isDone) */\n      0xb84a3507a15618a089880b44621cbac93a5991ec03f5e02e0c0b70273f94e71c\n        /* \"contracts/1_Storage.sol\":1754:1761  _todoId */\n      dup2\n        /* \"contracts/1_Storage.sol\":1763:1768  todos */\n      0x00\n        /* \"contracts/1_Storage.sol\":1769:1776  _todoId */\n      dup4\n        /* \"contracts/1_Storage.sol\":1763:1777  todos[_todoId] */\n      dup2\n      sload\n      dup2\n      lt\n      tag_106\n      jumpi\n      tag_107\n      tag_76\n      jump\t// in\n    tag_107:\n    tag_106:\n      swap1\n      0x00\n      mstore\n      keccak256(0x00, 0x20)\n      swap1\n      0x03\n      mul\n      add\n        /* \"contracts/1_Storage.sol\":1763:1784  todos[_todoId].isDone */\n      0x02\n      add\n      0x00\n      swap1\n      sload\n      swap1\n      0x0100\n      exp\n      swap1\n      div\n      0xff\n      and\n        /* \"contracts/1_Storage.sol\":1740:1785  TodoCompleted(_todoId, todos[_todoId].isDone) */\n      mload(0x40)\n      tag_109\n      swap3\n      swap2\n      swap1\n      tag_110\n      jump\t// in\n    tag_109:\n      mload(0x40)\n      dup1\n      swap2\n      sub\n      swap1\n      log1\n        /* \"contracts/1_Storage.sol\":1559:1792  function toggleIsDone(uint256 _todoId) public {... */\n      pop\n      jump\t// out\n        /* \"contracts/1_Storage.sol\":1287:1548  function getTodo(uint8 _todoId) public view returns (string memory title, string memory description){... */\n    tag_38:\n        /* \"contracts/1_Storage.sol\":1340:1359  string memory title */\n      0x60\n        /* \"contracts/1_Storage.sol\":1361:1386  string memory description */\n      dup1\n        /* \"contracts/1_Storage.sol\":1415:1420  todos */\n      0x00\n        /* \"contracts/1_Storage.sol\":1415:1427  todos.length */\n      dup1\n      sload\n      swap1\n      pop\n        /* \"contracts/1_Storage.sol\":1405:1412  _todoId */\n      dup4\n        /* \"contracts/1_Storage.sol\":1405:1427  _todoId < todos.length */\n      0xff\n      and\n      lt\n        /* \"contracts/1_Storage.sol\":1397:1451  require(_todoId < todos.length, \"Todo item not found\") */\n      tag_112\n      jumpi\n      mload(0x40)\n      0x08c379a000000000000000000000000000000000000000000000000000000000\n      dup2\n      mstore\n      0x04\n      add\n      tag_113\n      swap1\n      tag_99\n      jump\t// in\n    tag_113:\n      mload(0x40)\n      dup1\n      swap2\n      sub\n      swap1\n      revert\n    tag_112:\n        /* \"contracts/1_Storage.sol\":1461:1477  Todo memory todo */\n      0x00\n        /* \"contracts/1_Storage.sol\":1480:1485  todos */\n      dup1\n        /* \"contracts/1_Storage.sol\":1486:1493  _todoId */\n      dup5\n        /* \"contracts/1_Storage.sol\":1480:1494  todos[_todoId] */\n      0xff\n      and\n      dup2\n      sload\n      dup2\n      lt\n      tag_114\n      jumpi\n      tag_115\n      tag_76\n      jump\t// in\n    tag_115:\n    tag_114:\n      swap1\n      0x00\n      mstore\n      keccak256(0x00, 0x20)\n      swap1\n      0x03\n      mul\n      add\n        /* \"contracts/1_Storage.sol\":1461:1494  Todo memory todo = todos[_todoId] */\n      mload(0x40)\n      dup1\n      0x60\n      add\n      0x40\n      mstore\n      swap1\n      dup2\n      0x00\n      dup3\n      add\n      dup1\n      sload\n      tag_117\n      swap1\n      tag_46\n      jump\t// in\n    tag_117:\n      dup1\n      0x1f\n      add\n      0x20\n      dup1\n      swap2\n      div\n      mul\n      0x20\n      add\n      mload(0x40)\n      swap1\n      dup2\n      add\n      0x40\n      mstore\n      dup1\n      swap3\n      swap2\n      swap1\n      dup2\n      dup2\n      mstore\n      0x20\n      add\n      dup3\n      dup1\n      sload\n      tag_118\n      swap1\n      tag_46\n      jump\t// in\n    tag_118:\n      dup1\n      iszero\n      tag_119\n      jumpi\n      dup1\n      0x1f\n      lt\n      tag_120\n      jumpi\n      0x0100\n      dup1\n      dup4\n      sload\n      div\n      mul\n      dup4\n      mstore\n      swap2\n      0x20\n      add\n      swap2\n      jump(tag_119)\n    tag_120:\n      dup3\n      add\n      swap2\n      swap1\n      0x00\n      mstore\n      keccak256(0x00, 0x20)\n      swap1\n    tag_121:\n      dup2\n      sload\n      dup2\n      mstore\n      swap1\n      0x01\n      add\n      swap1\n      0x20\n      add\n      dup1\n      dup4\n      gt\n      tag_121\n      jumpi\n      dup3\n      swap1\n      sub\n      0x1f\n      and\n      dup3\n      add\n      swap2\n    tag_119:\n      pop\n      pop\n      pop\n      pop\n      pop\n      dup2\n      mstore\n      0x20\n      add\n      0x01\n      dup3\n      add\n      dup1\n      sload\n      tag_122\n      swap1\n      tag_46\n      jump\t// in\n    tag_122:\n      dup1\n      0x1f\n      add\n      0x20\n      dup1\n      swap2\n      div\n      mul\n      0x20\n      add\n      mload(0x40)\n      swap1\n      dup2\n      add\n      0x40\n      mstore\n      dup1\n      swap3\n      swap2\n      swap1\n      dup2\n      dup2\n      mstore\n      0x20\n      add\n      dup3\n      dup1\n      sload\n      tag_123\n      swap1\n      tag_46\n      jump\t// in\n    tag_123:\n      dup1\n      iszero\n      tag_124\n      jumpi\n      dup1\n      0x1f\n      lt\n      tag_125\n      jumpi\n      0x0100\n      dup1\n      dup4\n      sload\n      div\n      mul\n      dup4\n      mstore\n      swap2\n      0x20\n      add\n      swap2\n      jump(tag_124)\n    tag_125:\n      dup3\n      add\n      swap2\n      swap1\n      0x00\n      mstore\n      keccak256(0x00, 0x20)\n      swap1\n    tag_126:\n      dup2\n      sload\n      dup2\n      mstore\n      swap1\n      0x01\n      add\n      swap1\n      0x20\n      add\n      dup1\n      dup4\n      gt\n      tag_126\n      jumpi\n      dup3\n      swap1\n      sub\n      0x1f\n      and\n      dup3\n      add\n      swap2\n    tag_124:\n      pop\n      pop\n      pop\n      pop\n      pop\n      dup2\n      mstore\n      0x20\n      add\n      0x02\n      dup3\n      add\n      0x00\n      swap1\n      sload\n      swap1\n      0x0100\n      exp\n      swap1\n      div\n      0xff\n      and\n      iszero\n      iszero\n      iszero\n      iszero\n      dup2\n      mstore\n      pop\n      pop\n      swap1\n      pop\n        /* \"contracts/1_Storage.sol\":1512:1516  todo */\n      dup1\n        /* \"contracts/1_Storage.sol\":1512:1522  todo.title */\n      0x00\n      add\n      mload\n        /* \"contracts/1_Storage.sol\":1524:1528  todo */\n      dup2\n        /* \"contracts/1_Storage.sol\":1524:1540  todo.description */\n      0x20\n      add\n      mload\n        /* \"contracts/1_Storage.sol\":1504:1541  return (todo.title, todo.description) */\n      swap3\n      pop\n      swap3\n      pop\n      pop\n        /* \"contracts/1_Storage.sol\":1287:1548  function getTodo(uint8 _todoId) public view returns (string memory title, string memory description){... */\n      swap2\n      pop\n      swap2\n      jump\t// out\n        /* \"#utility.yul\":7:140   */\n    tag_127:\n        /* \"#utility.yul\":93:99   */\n      0x00\n        /* \"#utility.yul\":127:132   */\n      dup2\n        /* \"#utility.yul\":121:133   */\n      mload\n        /* \"#utility.yul\":111:133   */\n      swap1\n      pop\n        /* \"#utility.yul\":7:140   */\n      swap2\n      swap1\n      pop\n      jump\t// out\n        /* \"#utility.yul\":146:349   */\n    tag_128:\n        /* \"#utility.yul\":264:275   */\n      0x00\n        /* \"#utility.yul\":298:304   */\n      dup3\n        /* \"#utility.yul\":293:296   */\n      dup3\n        /* \"#utility.yul\":286:305   */\n      mstore\n        /* \"#utility.yul\":338:342   */\n      0x20\n        /* \"#utility.yul\":333:336   */\n      dup3\n        /* \"#utility.yul\":329:343   */\n      add\n        /* \"#utility.yul\":314:343   */\n      swap1\n      pop\n        /* \"#utility.yul\":146:349   */\n      swap3\n      swap2\n      pop\n      pop\n      jump\t// out\n        /* \"#utility.yul\":355:506   */\n    tag_129:\n        /* \"#utility.yul\":441:445   */\n      0x00\n        /* \"#utility.yul\":464:467   */\n      dup2\n        /* \"#utility.yul\":456:467   */\n      swap1\n      pop\n        /* \"#utility.yul\":494:498   */\n      0x20\n        /* \"#utility.yul\":489:492   */\n      dup3\n        /* \"#utility.yul\":485:499   */\n      add\n        /* \"#utility.yul\":477:499   */\n      swap1\n      pop\n        /* \"#utility.yul\":355:506   */\n      swap2\n      swap1\n      pop\n      jump\t// out\n        /* \"#utility.yul\":512:611   */\n    tag_130:\n        /* \"#utility.yul\":564:570   */\n      0x00\n        /* \"#utility.yul\":598:603   */\n      dup2\n        /* \"#utility.yul\":592:604   */\n      mload\n        /* \"#utility.yul\":582:604   */\n      swap1\n      pop\n        /* \"#utility.yul\":512:611   */\n      swap2\n      swap1\n      pop\n      jump\t// out\n        /* \"#utility.yul\":617:776   */\n    tag_131:\n        /* \"#utility.yul\":691:702   */\n      0x00\n        /* \"#utility.yul\":725:731   */\n      dup3\n        /* \"#utility.yul\":720:723   */\n      dup3\n        /* \"#utility.yul\":713:732   */\n      mstore\n        /* \"#utility.yul\":765:769   */\n      0x20\n        /* \"#utility.yul\":760:763   */\n      dup3\n        /* \"#utility.yul\":756:770   */\n      add\n        /* \"#utility.yul\":741:770   */\n      swap1\n      pop\n        /* \"#utility.yul\":617:776   */\n      swap3\n      swap2\n      pop\n      pop\n      jump\t// out\n        /* \"#utility.yul\":782:1028   */\n    tag_132:\n        /* \"#utility.yul\":863:864   */\n      0x00\n        /* \"#utility.yul\":873:986   */\n    tag_191:\n        /* \"#utility.yul\":887:893   */\n      dup4\n        /* \"#utility.yul\":884:885   */\n      dup2\n        /* \"#utility.yul\":881:894   */\n      lt\n        /* \"#utility.yul\":873:986   */\n      iszero\n      tag_193\n      jumpi\n        /* \"#utility.yul\":972:973   */\n      dup1\n        /* \"#utility.yul\":967:970   */\n      dup3\n        /* \"#utility.yul\":963:974   */\n      add\n        /* \"#utility.yul\":957:975   */\n      mload\n        /* \"#utility.yul\":953:954   */\n      dup2\n        /* \"#utility.yul\":948:951   */\n      dup5\n        /* \"#utility.yul\":944:955   */\n      add\n        /* \"#utility.yul\":937:976   */\n      mstore\n        /* \"#utility.yul\":909:911   */\n      0x20\n        /* \"#utility.yul\":906:907   */\n      dup2\n        /* \"#utility.yul\":902:912   */\n      add\n        /* \"#utility.yul\":897:912   */\n      swap1\n      pop\n        /* \"#utility.yul\":873:986   */\n      jump(tag_191)\n    tag_193:\n        /* \"#utility.yul\":1020:1021   */\n      0x00\n        /* \"#utility.yul\":1011:1017   */\n      dup5\n        /* \"#utility.yul\":1006:1009   */\n      dup5\n        /* \"#utility.yul\":1002:1018   */\n      add\n        /* \"#utility.yul\":995:1022   */\n      mstore\n        /* \"#utility.yul\":844:1028   */\n      pop\n        /* \"#utility.yul\":782:1028   */\n      pop\n      pop\n      pop\n      jump\t// out\n        /* \"#utility.yul\":1034:1136   */\n    tag_133:\n        /* \"#utility.yul\":1075:1081   */\n      0x00\n        /* \"#utility.yul\":1126:1128   */\n      0x1f\n        /* \"#utility.yul\":1122:1129   */\n      not\n        /* \"#utility.yul\":1117:1119   */\n      0x1f\n        /* \"#utility.yul\":1110:1115   */\n      dup4\n        /* \"#utility.yul\":1106:1120   */\n      add\n        /* \"#utility.yul\":1102:1130   */\n      and\n        /* \"#utility.yul\":1092:1130   */\n      swap1\n      pop\n        /* \"#utility.yul\":1034:1136   */\n      swap2\n      swap1\n      pop\n      jump\t// out\n        /* \"#utility.yul\":1142:1499   */\n    tag_134:\n        /* \"#utility.yul\":1220:1223   */\n      0x00\n        /* \"#utility.yul\":1248:1287   */\n      tag_196\n        /* \"#utility.yul\":1281:1286   */\n      dup3\n        /* \"#utility.yul\":1248:1287   */\n      tag_130\n      jump\t// in\n    tag_196:\n        /* \"#utility.yul\":1303:1364   */\n      tag_197\n        /* \"#utility.yul\":1357:1363   */\n      dup2\n        /* \"#utility.yul\":1352:1355   */\n      dup6\n        /* \"#utility.yul\":1303:1364   */\n      tag_131\n      jump\t// in\n    tag_197:\n        /* \"#utility.yul\":1296:1364   */\n      swap4\n      pop\n        /* \"#utility.yul\":1373:1438   */\n      tag_198\n        /* \"#utility.yul\":1431:1437   */\n      dup2\n        /* \"#utility.yul\":1426:1429   */\n      dup6\n        /* \"#utility.yul\":1419:1423   */\n      0x20\n        /* \"#utility.yul\":1412:1417   */\n      dup7\n        /* \"#utility.yul\":1408:1424   */\n      add\n        /* \"#utility.yul\":1373:1438   */\n      tag_132\n      jump\t// in\n    tag_198:\n        /* \"#utility.yul\":1463:1492   */\n      tag_199\n        /* \"#utility.yul\":1485:1491   */\n      dup2\n        /* \"#utility.yul\":1463:1492   */\n      tag_133\n      jump\t// in\n    tag_199:\n        /* \"#utility.yul\":1458:1461   */\n      dup5\n        /* \"#utility.yul\":1454:1493   */\n      add\n        /* \"#utility.yul\":1447:1493   */\n      swap2\n      pop\n        /* \"#utility.yul\":1224:1499   */\n      pop\n        /* \"#utility.yul\":1142:1499   */\n      swap3\n      swap2\n      pop\n      pop\n      jump\t// out\n        /* \"#utility.yul\":1505:1595   */\n    tag_135:\n        /* \"#utility.yul\":1539:1546   */\n      0x00\n        /* \"#utility.yul\":1582:1587   */\n      dup2\n        /* \"#utility.yul\":1575:1588   */\n      iszero\n        /* \"#utility.yul\":1568:1589   */\n      iszero\n        /* \"#utility.yul\":1557:1589   */\n      swap1\n      pop\n        /* \"#utility.yul\":1505:1595   */\n      swap2\n      swap1\n      pop\n      jump\t// out\n        /* \"#utility.yul\":1601:1700   */\n    tag_136:\n        /* \"#utility.yul\":1672:1693   */\n      tag_202\n        /* \"#utility.yul\":1687:1692   */\n      dup2\n        /* \"#utility.yul\":1672:1693   */\n      tag_135\n      jump\t// in\n    tag_202:\n        /* \"#utility.yul\":1667:1670   */\n      dup3\n        /* \"#utility.yul\":1660:1694   */\n      mstore\n        /* \"#utility.yul\":1601:1700   */\n      pop\n      pop\n      jump\t// out\n        /* \"#utility.yul\":1766:2599   */\n    tag_137:\n        /* \"#utility.yul\":1863:1866   */\n      0x00\n        /* \"#utility.yul\":1899:1903   */\n      0x60\n        /* \"#utility.yul\":1894:1897   */\n      dup4\n        /* \"#utility.yul\":1890:1904   */\n      add\n        /* \"#utility.yul\":1987:1991   */\n      0x00\n        /* \"#utility.yul\":1980:1985   */\n      dup4\n        /* \"#utility.yul\":1976:1992   */\n      add\n        /* \"#utility.yul\":1970:1993   */\n      mload\n        /* \"#utility.yul\":2040:2043   */\n      dup5\n        /* \"#utility.yul\":2034:2038   */\n      dup3\n        /* \"#utility.yul\":2030:2044   */\n      sub\n        /* \"#utility.yul\":2023:2027   */\n      0x00\n        /* \"#utility.yul\":2018:2021   */\n      dup7\n        /* \"#utility.yul\":2014:2028   */\n      add\n        /* \"#utility.yul\":2007:2045   */\n      mstore\n        /* \"#utility.yul\":2066:2139   */\n      tag_204\n        /* \"#utility.yul\":2134:2138   */\n      dup3\n        /* \"#utility.yul\":2120:2132   */\n      dup3\n        /* \"#utility.yul\":2066:2139   */\n      tag_134\n      jump\t// in\n    tag_204:\n        /* \"#utility.yul\":2058:2139   */\n      swap2\n      pop\n        /* \"#utility.yul\":1914:2150   */\n      pop\n        /* \"#utility.yul\":2239:2243   */\n      0x20\n        /* \"#utility.yul\":2232:2237   */\n      dup4\n        /* \"#utility.yul\":2228:2244   */\n      add\n        /* \"#utility.yul\":2222:2245   */\n      mload\n        /* \"#utility.yul\":2292:2295   */\n      dup5\n        /* \"#utility.yul\":2286:2290   */\n      dup3\n        /* \"#utility.yul\":2282:2296   */\n      sub\n        /* \"#utility.yul\":2275:2279   */\n      0x20\n        /* \"#utility.yul\":2270:2273   */\n      dup7\n        /* \"#utility.yul\":2266:2280   */\n      add\n        /* \"#utility.yul\":2259:2297   */\n      mstore\n        /* \"#utility.yul\":2318:2391   */\n      tag_205\n        /* \"#utility.yul\":2386:2390   */\n      dup3\n        /* \"#utility.yul\":2372:2384   */\n      dup3\n        /* \"#utility.yul\":2318:2391   */\n      tag_134\n      jump\t// in\n    tag_205:\n        /* \"#utility.yul\":2310:2391   */\n      swap2\n      pop\n        /* \"#utility.yul\":2160:2402   */\n      pop\n        /* \"#utility.yul\":2486:2490   */\n      0x40\n        /* \"#utility.yul\":2479:2484   */\n      dup4\n        /* \"#utility.yul\":2475:2491   */\n      add\n        /* \"#utility.yul\":2469:2492   */\n      mload\n        /* \"#utility.yul\":2505:2562   */\n      tag_206\n        /* \"#utility.yul\":2556:2560   */\n      0x40\n        /* \"#utility.yul\":2551:2554   */\n      dup7\n        /* \"#utility.yul\":2547:2561   */\n      add\n        /* \"#utility.yul\":2533:2545   */\n      dup3\n        /* \"#utility.yul\":2505:2562   */\n      tag_136\n      jump\t// in\n    tag_206:\n        /* \"#utility.yul\":2412:2572   */\n      pop\n        /* \"#utility.yul\":2589:2593   */\n      dup1\n        /* \"#utility.yul\":2582:2593   */\n      swap2\n      pop\n        /* \"#utility.yul\":1868:2599   */\n      pop\n        /* \"#utility.yul\":1766:2599   */\n      swap3\n      swap2\n      pop\n      pop\n      jump\t// out\n        /* \"#utility.yul\":2605:2837   */\n    tag_138:\n        /* \"#utility.yul\":2712:2722   */\n      0x00\n        /* \"#utility.yul\":2747:2831   */\n      tag_208\n        /* \"#utility.yul\":2827:2830   */\n      dup4\n        /* \"#utility.yul\":2819:2825   */\n      dup4\n        /* \"#utility.yul\":2747:2831   */\n      tag_137\n      jump\t// in\n    tag_208:\n        /* \"#utility.yul\":2733:2831   */\n      swap1\n      pop\n        /* \"#utility.yul\":2605:2837   */\n      swap3\n      swap2\n      pop\n      pop\n      jump\t// out\n        /* \"#utility.yul\":2843:2975   */\n    tag_139:\n        /* \"#utility.yul\":2932:2936   */\n      0x00\n        /* \"#utility.yul\":2964:2968   */\n      0x20\n        /* \"#utility.yul\":2959:2962   */\n      dup3\n        /* \"#utility.yul\":2955:2969   */\n      add\n        /* \"#utility.yul\":2947:2969   */\n      swap1\n      pop\n        /* \"#utility.yul\":2843:2975   */\n      swap2\n      swap1\n      pop\n      jump\t// out\n        /* \"#utility.yul\":3045:4108   */\n    tag_140:\n        /* \"#utility.yul\":3202:3205   */\n      0x00\n        /* \"#utility.yul\":3231:3304   */\n      tag_211\n        /* \"#utility.yul\":3298:3303   */\n      dup3\n        /* \"#utility.yul\":3231:3304   */\n      tag_127\n      jump\t// in\n    tag_211:\n        /* \"#utility.yul\":3320:3425   */\n      tag_212\n        /* \"#utility.yul\":3418:3424   */\n      dup2\n        /* \"#utility.yul\":3413:3416   */\n      dup6\n        /* \"#utility.yul\":3320:3425   */\n      tag_128\n      jump\t// in\n    tag_212:\n        /* \"#utility.yul\":3313:3425   */\n      swap4\n      pop\n        /* \"#utility.yul\":3451:3454   */\n      dup4\n        /* \"#utility.yul\":3496:3500   */\n      0x20\n        /* \"#utility.yul\":3488:3494   */\n      dup3\n        /* \"#utility.yul\":3484:3501   */\n      mul\n        /* \"#utility.yul\":3479:3482   */\n      dup6\n        /* \"#utility.yul\":3475:3502   */\n      add\n        /* \"#utility.yul\":3526:3601   */\n      tag_213\n        /* \"#utility.yul\":3595:3600   */\n      dup6\n        /* \"#utility.yul\":3526:3601   */\n      tag_129\n      jump\t// in\n    tag_213:\n        /* \"#utility.yul\":3624:3631   */\n      dup1\n        /* \"#utility.yul\":3655:3656   */\n      0x00\n        /* \"#utility.yul\":3640:4063   */\n    tag_214:\n        /* \"#utility.yul\":3665:3671   */\n      dup6\n        /* \"#utility.yul\":3662:3663   */\n      dup2\n        /* \"#utility.yul\":3659:3672   */\n      lt\n        /* \"#utility.yul\":3640:4063   */\n      iszero\n      tag_216\n      jumpi\n        /* \"#utility.yul\":3736:3745   */\n      dup5\n        /* \"#utility.yul\":3730:3734   */\n      dup5\n        /* \"#utility.yul\":3726:3746   */\n      sub\n        /* \"#utility.yul\":3721:3724   */\n      dup10\n        /* \"#utility.yul\":3714:3747   */\n      mstore\n        /* \"#utility.yul\":3787:3793   */\n      dup2\n        /* \"#utility.yul\":3781:3794   */\n      mload\n        /* \"#utility.yul\":3815:3917   */\n      tag_217\n        /* \"#utility.yul\":3912:3916   */\n      dup6\n        /* \"#utility.yul\":3897:3910   */\n      dup3\n        /* \"#utility.yul\":3815:3917   */\n      tag_138\n      jump\t// in\n    tag_217:\n        /* \"#utility.yul\":3807:3917   */\n      swap5\n      pop\n        /* \"#utility.yul\":3940:4019   */\n      tag_218\n        /* \"#utility.yul\":4012:4018   */\n      dup4\n        /* \"#utility.yul\":3940:4019   */\n      tag_139\n      jump\t// in\n    tag_218:\n        /* \"#utility.yul\":3930:4019   */\n      swap3\n      pop\n        /* \"#utility.yul\":4048:4052   */\n      0x20\n        /* \"#utility.yul\":4043:4046   */\n      dup11\n        /* \"#utility.yul\":4039:4053   */\n      add\n        /* \"#utility.yul\":4032:4053   */\n      swap10\n      pop\n        /* \"#utility.yul\":3700:4063   */\n      pop\n        /* \"#utility.yul\":3687:3688   */\n      0x01\n        /* \"#utility.yul\":3684:3685   */\n      dup2\n        /* \"#utility.yul\":3680:3689   */\n      add\n        /* \"#utility.yul\":3675:3689   */\n      swap1\n      pop\n        /* \"#utility.yul\":3640:4063   */\n      jump(tag_214)\n    tag_216:\n        /* \"#utility.yul\":3644:3658   */\n      pop\n        /* \"#utility.yul\":4079:4083   */\n      dup3\n        /* \"#utility.yul\":4072:4083   */\n      swap8\n      pop\n        /* \"#utility.yul\":4099:4102   */\n      dup8\n        /* \"#utility.yul\":4092:4102   */\n      swap6\n      pop\n        /* \"#utility.yul\":3207:4108   */\n      pop\n      pop\n      pop\n      pop\n      pop\n        /* \"#utility.yul\":3045:4108   */\n      swap3\n      swap2\n      pop\n      pop\n      jump\t// out\n        /* \"#utility.yul\":4114:4563   */\n    tag_14:\n        /* \"#utility.yul\":4295:4299   */\n      0x00\n        /* \"#utility.yul\":4333:4335   */\n      0x20\n        /* \"#utility.yul\":4322:4331   */\n      dup3\n        /* \"#utility.yul\":4318:4336   */\n      add\n        /* \"#utility.yul\":4310:4336   */\n      swap1\n      pop\n        /* \"#utility.yul\":4382:4391   */\n      dup2\n        /* \"#utility.yul\":4376:4380   */\n      dup2\n        /* \"#utility.yul\":4372:4392   */\n      sub\n        /* \"#utility.yul\":4368:4369   */\n      0x00\n        /* \"#utility.yul\":4357:4366   */\n      dup4\n        /* \"#utility.yul\":4353:4370   */\n      add\n        /* \"#utility.yul\":4346:4393   */\n      mstore\n        /* \"#utility.yul\":4410:4556   */\n      tag_220\n        /* \"#utility.yul\":4551:4555   */\n      dup2\n        /* \"#utility.yul\":4542:4548   */\n      dup5\n        /* \"#utility.yul\":4410:4556   */\n      tag_140\n      jump\t// in\n    tag_220:\n        /* \"#utility.yul\":4402:4556   */\n      swap1\n      pop\n        /* \"#utility.yul\":4114:4563   */\n      swap3\n      swap2\n      pop\n      pop\n      jump\t// out\n        /* \"#utility.yul\":4569:4644   */\n    tag_141:\n        /* \"#utility.yul\":4602:4608   */\n      0x00\n        /* \"#utility.yul\":4635:4637   */\n      0x40\n        /* \"#utility.yul\":4629:4638   */\n      mload\n        /* \"#utility.yul\":4619:4638   */\n      swap1\n      pop\n        /* \"#utility.yul\":4569:4644   */\n      swap1\n      jump\t// out\n        /* \"#utility.yul\":4650:4767   */\n    tag_142:\n        /* \"#utility.yul\":4759:4760   */\n      0x00\n        /* \"#utility.yul\":4756:4757   */\n      dup1\n        /* \"#utility.yul\":4749:4761   */\n      revert\n        /* \"#utility.yul\":4773:4890   */\n    tag_143:\n        /* \"#utility.yul\":4882:4883   */\n      0x00\n        /* \"#utility.yul\":4879:4880   */\n      dup1\n        /* \"#utility.yul\":4872:4884   */\n      revert\n        /* \"#utility.yul\":4896:5013   */\n    tag_144:\n        /* \"#utility.yul\":5005:5006   */\n      0x00\n        /* \"#utility.yul\":5002:5003   */\n      dup1\n        /* \"#utility.yul\":4995:5007   */\n      revert\n        /* \"#utility.yul\":5019:5136   */\n    tag_145:\n        /* \"#utility.yul\":5128:5129   */\n      0x00\n        /* \"#utility.yul\":5125:5126   */\n      dup1\n        /* \"#utility.yul\":5118:5130   */\n      revert\n        /* \"#utility.yul\":5142:5322   */\n    tag_146:\n        /* \"#utility.yul\":5190:5267   */\n      0x4e487b7100000000000000000000000000000000000000000000000000000000\n        /* \"#utility.yul\":5187:5188   */\n      0x00\n        /* \"#utility.yul\":5180:5268   */\n      mstore\n        /* \"#utility.yul\":5287:5291   */\n      0x41\n        /* \"#utility.yul\":5284:5285   */\n      0x04\n        /* \"#utility.yul\":5277:5292   */\n      mstore\n        /* \"#utility.yul\":5311:5315   */\n      0x24\n        /* \"#utility.yul\":5308:5309   */\n      0x00\n        /* \"#utility.yul\":5301:5316   */\n      revert\n        /* \"#utility.yul\":5328:5609   */\n    tag_147:\n        /* \"#utility.yul\":5411:5438   */\n      tag_228\n        /* \"#utility.yul\":5433:5437   */\n      dup3\n        /* \"#utility.yul\":5411:5438   */\n      tag_133\n      jump\t// in\n    tag_228:\n        /* \"#utility.yul\":5403:5409   */\n      dup2\n        /* \"#utility.yul\":5399:5439   */\n      add\n        /* \"#utility.yul\":5541:5547   */\n      dup2\n        /* \"#utility.yul\":5529:5539   */\n      dup2\n        /* \"#utility.yul\":5526:5548   */\n      lt\n        /* \"#utility.yul\":5505:5523   */\n      0xffffffffffffffff\n        /* \"#utility.yul\":5493:5503   */\n      dup3\n        /* \"#utility.yul\":5490:5524   */\n      gt\n        /* \"#utility.yul\":5487:5549   */\n      or\n        /* \"#utility.yul\":5484:5572   */\n      iszero\n      tag_229\n      jumpi\n        /* \"#utility.yul\":5552:5570   */\n      tag_230\n      tag_146\n      jump\t// in\n    tag_230:\n        /* \"#utility.yul\":5484:5572   */\n    tag_229:\n        /* \"#utility.yul\":5592:5602   */\n      dup1\n        /* \"#utility.yul\":5588:5590   */\n      0x40\n        /* \"#utility.yul\":5581:5603   */\n      mstore\n        /* \"#utility.yul\":5371:5609   */\n      pop\n        /* \"#utility.yul\":5328:5609   */\n      pop\n      pop\n      jump\t// out\n        /* \"#utility.yul\":5615:5744   */\n    tag_148:\n        /* \"#utility.yul\":5649:5655   */\n      0x00\n        /* \"#utility.yul\":5676:5696   */\n      tag_232\n      tag_141\n      jump\t// in\n    tag_232:\n        /* \"#utility.yul\":5666:5696   */\n      swap1\n      pop\n        /* \"#utility.yul\":5705:5738   */\n      tag_233\n        /* \"#utility.yul\":5733:5737   */\n      dup3\n        /* \"#utility.yul\":5725:5731   */\n      dup3\n        /* \"#utility.yul\":5705:5738   */\n      tag_147\n      jump\t// in\n    tag_233:\n        /* \"#utility.yul\":5615:5744   */\n      swap2\n      swap1\n      pop\n      jump\t// out\n        /* \"#utility.yul\":5750:6058   */\n    tag_149:\n        /* \"#utility.yul\":5812:5816   */\n      0x00\n        /* \"#utility.yul\":5902:5920   */\n      0xffffffffffffffff\n        /* \"#utility.yul\":5894:5900   */\n      dup3\n        /* \"#utility.yul\":5891:5921   */\n      gt\n        /* \"#utility.yul\":5888:5944   */\n      iszero\n      tag_235\n      jumpi\n        /* \"#utility.yul\":5924:5942   */\n      tag_236\n      tag_146\n      jump\t// in\n    tag_236:\n        /* \"#utility.yul\":5888:5944   */\n    tag_235:\n        /* \"#utility.yul\":5962:5991   */\n      tag_237\n        /* \"#utility.yul\":5984:5990   */\n      dup3\n        /* \"#utility.yul\":5962:5991   */\n      tag_133\n      jump\t// in\n    tag_237:\n        /* \"#utility.yul\":5954:5991   */\n      swap1\n      pop\n        /* \"#utility.yul\":6046:6050   */\n      0x20\n        /* \"#utility.yul\":6040:6044   */\n      dup2\n        /* \"#utility.yul\":6036:6051   */\n      add\n        /* \"#utility.yul\":6028:6051   */\n      swap1\n      pop\n        /* \"#utility.yul\":5750:6058   */\n      swap2\n      swap1\n      pop\n      jump\t// out\n        /* \"#utility.yul\":6064:6210   */\n    tag_150:\n        /* \"#utility.yul\":6161:6167   */\n      dup3\n        /* \"#utility.yul\":6156:6159   */\n      dup2\n        /* \"#utility.yul\":6151:6154   */\n      dup4\n        /* \"#utility.yul\":6138:6168   */\n      calldatacopy\n        /* \"#utility.yul\":6202:6203   */\n      0x00\n        /* \"#utility.yul\":6193:6199   */\n      dup4\n        /* \"#utility.yul\":6188:6191   */\n      dup4\n        /* \"#utility.yul\":6184:6200   */\n      add\n        /* \"#utility.yul\":6177:6204   */\n      mstore\n        /* \"#utility.yul\":6064:6210   */\n      pop\n      pop\n      pop\n      jump\t// out\n        /* \"#utility.yul\":6216:6641   */\n    tag_151:\n        /* \"#utility.yul\":6294:6299   */\n      0x00\n        /* \"#utility.yul\":6319:6385   */\n      tag_240\n        /* \"#utility.yul\":6335:6384   */\n      tag_241\n        /* \"#utility.yul\":6377:6383   */\n      dup5\n        /* \"#utility.yul\":6335:6384   */\n      tag_149\n      jump\t// in\n    tag_241:\n        /* \"#utility.yul\":6319:6385   */\n      tag_148\n      jump\t// in\n    tag_240:\n        /* \"#utility.yul\":6310:6385   */\n      swap1\n      pop\n        /* \"#utility.yul\":6408:6414   */\n      dup3\n        /* \"#utility.yul\":6401:6406   */\n      dup2\n        /* \"#utility.yul\":6394:6415   */\n      mstore\n        /* \"#utility.yul\":6446:6450   */\n      0x20\n        /* \"#utility.yul\":6439:6444   */\n      dup2\n        /* \"#utility.yul\":6435:6451   */\n      add\n        /* \"#utility.yul\":6484:6487   */\n      dup5\n        /* \"#utility.yul\":6475:6481   */\n      dup5\n        /* \"#utility.yul\":6470:6473   */\n      dup5\n        /* \"#utility.yul\":6466:6482   */\n      add\n        /* \"#utility.yul\":6463:6488   */\n      gt\n        /* \"#utility.yul\":6460:6572   */\n      iszero\n      tag_242\n      jumpi\n        /* \"#utility.yul\":6491:6570   */\n      tag_243\n      tag_145\n      jump\t// in\n    tag_243:\n        /* \"#utility.yul\":6460:6572   */\n    tag_242:\n        /* \"#utility.yul\":6581:6635   */\n      tag_244\n        /* \"#utility.yul\":6628:6634   */\n      dup5\n        /* \"#utility.yul\":6623:6626   */\n      dup3\n        /* \"#utility.yul\":6618:6621   */\n      dup6\n        /* \"#utility.yul\":6581:6635   */\n      tag_150\n      jump\t// in\n    tag_244:\n        /* \"#utility.yul\":6300:6641   */\n      pop\n        /* \"#utility.yul\":6216:6641   */\n      swap4\n      swap3\n      pop\n      pop\n      pop\n      jump\t// out\n        /* \"#utility.yul\":6661:7001   */\n    tag_152:\n        /* \"#utility.yul\":6717:6722   */\n      0x00\n        /* \"#utility.yul\":6766:6769   */\n      dup3\n        /* \"#utility.yul\":6759:6763   */\n      0x1f\n        /* \"#utility.yul\":6751:6757   */\n      dup4\n        /* \"#utility.yul\":6747:6764   */\n      add\n        /* \"#utility.yul\":6743:6770   */\n      slt\n        /* \"#utility.yul\":6733:6855   */\n      tag_246\n      jumpi\n        /* \"#utility.yul\":6774:6853   */\n      tag_247\n      tag_144\n      jump\t// in\n    tag_247:\n        /* \"#utility.yul\":6733:6855   */\n    tag_246:\n        /* \"#utility.yul\":6891:6897   */\n      dup2\n        /* \"#utility.yul\":6878:6898   */\n      calldataload\n        /* \"#utility.yul\":6916:6995   */\n      tag_248\n        /* \"#utility.yul\":6991:6994   */\n      dup5\n        /* \"#utility.yul\":6983:6989   */\n      dup3\n        /* \"#utility.yul\":6976:6980   */\n      0x20\n        /* \"#utility.yul\":6968:6974   */\n      dup7\n        /* \"#utility.yul\":6964:6981   */\n      add\n        /* \"#utility.yul\":6916:6995   */\n      tag_151\n      jump\t// in\n    tag_248:\n        /* \"#utility.yul\":6907:6995   */\n      swap2\n      pop\n        /* \"#utility.yul\":6723:7001   */\n      pop\n        /* \"#utility.yul\":6661:7001   */\n      swap3\n      swap2\n      pop\n      pop\n      jump\t// out\n        /* \"#utility.yul\":7007:7841   */\n    tag_17:\n        /* \"#utility.yul\":7095:7101   */\n      0x00\n        /* \"#utility.yul\":7103:7109   */\n      dup1\n        /* \"#utility.yul\":7152:7154   */\n      0x40\n        /* \"#utility.yul\":7140:7149   */\n      dup4\n        /* \"#utility.yul\":7131:7138   */\n      dup6\n        /* \"#utility.yul\":7127:7150   */\n      sub\n        /* \"#utility.yul\":7123:7155   */\n      slt\n        /* \"#utility.yul\":7120:7239   */\n      iszero\n      tag_250\n      jumpi\n        /* \"#utility.yul\":7158:7237   */\n      tag_251\n      tag_142\n      jump\t// in\n    tag_251:\n        /* \"#utility.yul\":7120:7239   */\n    tag_250:\n        /* \"#utility.yul\":7306:7307   */\n      0x00\n        /* \"#utility.yul\":7295:7304   */\n      dup4\n        /* \"#utility.yul\":7291:7308   */\n      add\n        /* \"#utility.yul\":7278:7309   */\n      calldataload\n        /* \"#utility.yul\":7336:7354   */\n      0xffffffffffffffff\n        /* \"#utility.yul\":7328:7334   */\n      dup2\n        /* \"#utility.yul\":7325:7355   */\n      gt\n        /* \"#utility.yul\":7322:7439   */\n      iszero\n      tag_252\n      jumpi\n        /* \"#utility.yul\":7358:7437   */\n      tag_253\n      tag_143\n      jump\t// in\n    tag_253:\n        /* \"#utility.yul\":7322:7439   */\n    tag_252:\n        /* \"#utility.yul\":7463:7526   */\n      tag_254\n        /* \"#utility.yul\":7518:7525   */\n      dup6\n        /* \"#utility.yul\":7509:7515   */\n      dup3\n        /* \"#utility.yul\":7498:7507   */\n      dup7\n        /* \"#utility.yul\":7494:7516   */\n      add\n        /* \"#utility.yul\":7463:7526   */\n      tag_152\n      jump\t// in\n    tag_254:\n        /* \"#utility.yul\":7453:7526   */\n      swap3\n      pop\n        /* \"#utility.yul\":7249:7536   */\n      pop\n        /* \"#utility.yul\":7603:7605   */\n      0x20\n        /* \"#utility.yul\":7592:7601   */\n      dup4\n        /* \"#utility.yul\":7588:7606   */\n      add\n        /* \"#utility.yul\":7575:7607   */\n      calldataload\n        /* \"#utility.yul\":7634:7652   */\n      0xffffffffffffffff\n        /* \"#utility.yul\":7626:7632   */\n      dup2\n        /* \"#utility.yul\":7623:7653   */\n      gt\n        /* \"#utility.yul\":7620:7737   */\n      iszero\n      tag_255\n      jumpi\n        /* \"#utility.yul\":7656:7735   */\n      tag_256\n      tag_143\n      jump\t// in\n    tag_256:\n        /* \"#utility.yul\":7620:7737   */\n    tag_255:\n        /* \"#utility.yul\":7761:7824   */\n      tag_257\n        /* \"#utility.yul\":7816:7823   */\n      dup6\n        /* \"#utility.yul\":7807:7813   */\n      dup3\n        /* \"#utility.yul\":7796:7805   */\n      dup7\n        /* \"#utility.yul\":7792:7814   */\n      add\n        /* \"#utility.yul\":7761:7824   */\n      tag_152\n      jump\t// in\n    tag_257:\n        /* \"#utility.yul\":7751:7824   */\n      swap2\n      pop\n        /* \"#utility.yul\":7546:7834   */\n      pop\n        /* \"#utility.yul\":7007:7841   */\n      swap3\n      pop\n      swap3\n      swap1\n      pop\n      jump\t// out\n        /* \"#utility.yul\":7847:7924   */\n    tag_153:\n        /* \"#utility.yul\":7884:7891   */\n      0x00\n        /* \"#utility.yul\":7913:7918   */\n      dup2\n        /* \"#utility.yul\":7902:7918   */\n      swap1\n      pop\n        /* \"#utility.yul\":7847:7924   */\n      swap2\n      swap1\n      pop\n      jump\t// out\n        /* \"#utility.yul\":7930:8052   */\n    tag_154:\n        /* \"#utility.yul\":8003:8027   */\n      tag_260\n        /* \"#utility.yul\":8021:8026   */\n      dup2\n        /* \"#utility.yul\":8003:8027   */\n      tag_153\n      jump\t// in\n    tag_260:\n        /* \"#utility.yul\":7996:8001   */\n      dup2\n        /* \"#utility.yul\":7993:8028   */\n      eq\n        /* \"#utility.yul\":7983:8046   */\n      tag_261\n      jumpi\n        /* \"#utility.yul\":8042:8043   */\n      0x00\n        /* \"#utility.yul\":8039:8040   */\n      dup1\n        /* \"#utility.yul\":8032:8044   */\n      revert\n        /* \"#utility.yul\":7983:8046   */\n    tag_261:\n        /* \"#utility.yul\":7930:8052   */\n      pop\n      jump\t// out\n        /* \"#utility.yul\":8058:8197   */\n    tag_155:\n        /* \"#utility.yul\":8104:8109   */\n      0x00\n        /* \"#utility.yul\":8142:8148   */\n      dup2\n        /* \"#utility.yul\":8129:8149   */\n      calldataload\n        /* \"#utility.yul\":8120:8149   */\n      swap1\n      pop\n        /* \"#utility.yul\":8158:8191   */\n      tag_263\n        /* \"#utility.yul\":8185:8190   */\n      dup2\n        /* \"#utility.yul\":8158:8191   */\n      tag_154\n      jump\t// in\n    tag_263:\n        /* \"#utility.yul\":8058:8197   */\n      swap3\n      swap2\n      pop\n      pop\n      jump\t// out\n        /* \"#utility.yul\":8203:8532   */\n    tag_21:\n        /* \"#utility.yul\":8262:8268   */\n      0x00\n        /* \"#utility.yul\":8311:8313   */\n      0x20\n        /* \"#utility.yul\":8299:8308   */\n      dup3\n        /* \"#utility.yul\":8290:8297   */\n      dup5\n        /* \"#utility.yul\":8286:8309   */\n      sub\n        /* \"#utility.yul\":8282:8314   */\n      slt\n        /* \"#utility.yul\":8279:8398   */\n      iszero\n      tag_265\n      jumpi\n        /* \"#utility.yul\":8317:8396   */\n      tag_266\n      tag_142\n      jump\t// in\n    tag_266:\n        /* \"#utility.yul\":8279:8398   */\n    tag_265:\n        /* \"#utility.yul\":8437:8438   */\n      0x00\n        /* \"#utility.yul\":8462:8515   */\n      tag_267\n        /* \"#utility.yul\":8507:8514   */\n      dup5\n        /* \"#utility.yul\":8498:8504   */\n      dup3\n        /* \"#utility.yul\":8487:8496   */\n      dup6\n        /* \"#utility.yul\":8483:8505   */\n      add\n        /* \"#utility.yul\":8462:8515   */\n      tag_155\n      jump\t// in\n    tag_267:\n        /* \"#utility.yul\":8452:8515   */\n      swap2\n      pop\n        /* \"#utility.yul\":8408:8525   */\n      pop\n        /* \"#utility.yul\":8203:8532   */\n      swap3\n      swap2\n      pop\n      pop\n      jump\t// out\n        /* \"#utility.yul\":8538:9517   */\n    tag_25:\n        /* \"#utility.yul\":8635:8641   */\n      0x00\n        /* \"#utility.yul\":8643:8649   */\n      dup1\n        /* \"#utility.yul\":8651:8657   */\n      0x00\n        /* \"#utility.yul\":8700:8702   */\n      0x60\n        /* \"#utility.yul\":8688:8697   */\n      dup5\n        /* \"#utility.yul\":8679:8686   */\n      dup7\n        /* \"#utility.yul\":8675:8698   */\n      sub\n        /* \"#utility.yul\":8671:8703   */\n      slt\n        /* \"#utility.yul\":8668:8787   */\n      iszero\n      tag_269\n      jumpi\n        /* \"#utility.yul\":8706:8785   */\n      tag_270\n      tag_142\n      jump\t// in\n    tag_270:\n        /* \"#utility.yul\":8668:8787   */\n    tag_269:\n        /* \"#utility.yul\":8826:8827   */\n      0x00\n        /* \"#utility.yul\":8851:8904   */\n      tag_271\n        /* \"#utility.yul\":8896:8903   */\n      dup7\n        /* \"#utility.yul\":8887:8893   */\n      dup3\n        /* \"#utility.yul\":8876:8885   */\n      dup8\n        /* \"#utility.yul\":8872:8894   */\n      add\n        /* \"#utility.yul\":8851:8904   */\n      tag_155\n      jump\t// in\n    tag_271:\n        /* \"#utility.yul\":8841:8904   */\n      swap4\n      pop\n        /* \"#utility.yul\":8797:8914   */\n      pop\n        /* \"#utility.yul\":8981:8983   */\n      0x20\n        /* \"#utility.yul\":8970:8979   */\n      dup5\n        /* \"#utility.yul\":8966:8984   */\n      add\n        /* \"#utility.yul\":8953:8985   */\n      calldataload\n        /* \"#utility.yul\":9012:9030   */\n      0xffffffffffffffff\n        /* \"#utility.yul\":9004:9010   */\n      dup2\n        /* \"#utility.yul\":9001:9031   */\n      gt\n        /* \"#utility.yul\":8998:9115   */\n      iszero\n      tag_272\n      jumpi\n        /* \"#utility.yul\":9034:9113   */\n      tag_273\n      tag_143\n      jump\t// in\n    tag_273:\n        /* \"#utility.yul\":8998:9115   */\n    tag_272:\n        /* \"#utility.yul\":9139:9202   */\n      tag_274\n        /* \"#utility.yul\":9194:9201   */\n      dup7\n        /* \"#utility.yul\":9185:9191   */\n      dup3\n        /* \"#utility.yul\":9174:9183   */\n      dup8\n        /* \"#utility.yul\":9170:9192   */\n      add\n        /* \"#utility.yul\":9139:9202   */\n      tag_152\n      jump\t// in\n    tag_274:\n        /* \"#utility.yul\":9129:9202   */\n      swap3\n      pop\n        /* \"#utility.yul\":8924:9212   */\n      pop\n        /* \"#utility.yul\":9279:9281   */\n      0x40\n        /* \"#utility.yul\":9268:9277   */\n      dup5\n        /* \"#utility.yul\":9264:9282   */\n      add\n        /* \"#utility.yul\":9251:9283   */\n      calldataload\n        /* \"#utility.yul\":9310:9328   */\n      0xffffffffffffffff\n        /* \"#utility.yul\":9302:9308   */\n      dup2\n        /* \"#utility.yul\":9299:9329   */\n      gt\n        /* \"#utility.yul\":9296:9413   */\n      iszero\n      tag_275\n      jumpi\n        /* \"#utility.yul\":9332:9411   */\n      tag_276\n      tag_143\n      jump\t// in\n    tag_276:\n        /* \"#utility.yul\":9296:9413   */\n    tag_275:\n        /* \"#utility.yul\":9437:9500   */\n      tag_277\n        /* \"#utility.yul\":9492:9499   */\n      dup7\n        /* \"#utility.yul\":9483:9489   */\n      dup3\n        /* \"#utility.yul\":9472:9481   */\n      dup8\n        /* \"#utility.yul\":9468:9490   */\n      add\n        /* \"#utility.yul\":9437:9500   */\n      tag_152\n      jump\t// in\n    tag_277:\n        /* \"#utility.yul\":9427:9500   */\n      swap2\n      pop\n        /* \"#utility.yul\":9222:9510   */\n      pop\n        /* \"#utility.yul\":8538:9517   */\n      swap3\n      pop\n      swap3\n      pop\n      swap3\n      jump\t// out\n        /* \"#utility.yul\":9523:9692   */\n    tag_156:\n        /* \"#utility.yul\":9607:9618   */\n      0x00\n        /* \"#utility.yul\":9641:9647   */\n      dup3\n        /* \"#utility.yul\":9636:9639   */\n      dup3\n        /* \"#utility.yul\":9629:9648   */\n      mstore\n        /* \"#utility.yul\":9681:9685   */\n      0x20\n        /* \"#utility.yul\":9676:9679   */\n      dup3\n        /* \"#utility.yul\":9672:9686   */\n      add\n        /* \"#utility.yul\":9657:9686   */\n      swap1\n      pop\n        /* \"#utility.yul\":9523:9692   */\n      swap3\n      swap2\n      pop\n      pop\n      jump\t// out\n        /* \"#utility.yul\":9698:10075   */\n    tag_157:\n        /* \"#utility.yul\":9786:9789   */\n      0x00\n        /* \"#utility.yul\":9814:9853   */\n      tag_280\n        /* \"#utility.yul\":9847:9852   */\n      dup3\n        /* \"#utility.yul\":9814:9853   */\n      tag_130\n      jump\t// in\n    tag_280:\n        /* \"#utility.yul\":9869:9940   */\n      tag_281\n        /* \"#utility.yul\":9933:9939   */\n      dup2\n        /* \"#utility.yul\":9928:9931   */\n      dup6\n        /* \"#utility.yul\":9869:9940   */\n      tag_156\n      jump\t// in\n    tag_281:\n        /* \"#utility.yul\":9862:9940   */\n      swap4\n      pop\n        /* \"#utility.yul\":9949:10014   */\n      tag_282\n        /* \"#utility.yul\":10007:10013   */\n      dup2\n        /* \"#utility.yul\":10002:10005   */\n      dup6\n        /* \"#utility.yul\":9995:9999   */\n      0x20\n        /* \"#utility.yul\":9988:9993   */\n      dup7\n        /* \"#utility.yul\":9984:10000   */\n      add\n        /* \"#utility.yul\":9949:10014   */\n      tag_132\n      jump\t// in\n    tag_282:\n        /* \"#utility.yul\":10039:10068   */\n      tag_283\n        /* \"#utility.yul\":10061:10067   */\n      dup2\n        /* \"#utility.yul\":10039:10068   */\n      tag_133\n      jump\t// in\n    tag_283:\n        /* \"#utility.yul\":10034:10037   */\n      dup5\n        /* \"#utility.yul\":10030:10069   */\n      add\n        /* \"#utility.yul\":10023:10069   */\n      swap2\n      pop\n        /* \"#utility.yul\":9790:10075   */\n      pop\n        /* \"#utility.yul\":9698:10075   */\n      swap3\n      swap2\n      pop\n      pop\n      jump\t// out\n        /* \"#utility.yul\":10081:10190   */\n    tag_158:\n        /* \"#utility.yul\":10162:10183   */\n      tag_285\n        /* \"#utility.yul\":10177:10182   */\n      dup2\n        /* \"#utility.yul\":10162:10183   */\n      tag_135\n      jump\t// in\n    tag_285:\n        /* \"#utility.yul\":10157:10160   */\n      dup3\n        /* \"#utility.yul\":10150:10184   */\n      mstore\n        /* \"#utility.yul\":10081:10190   */\n      pop\n      pop\n      jump\t// out\n        /* \"#utility.yul\":10196:10808   */\n    tag_31:\n        /* \"#utility.yul\":10379:10383   */\n      0x00\n        /* \"#utility.yul\":10417:10419   */\n      0x60\n        /* \"#utility.yul\":10406:10415   */\n      dup3\n        /* \"#utility.yul\":10402:10420   */\n      add\n        /* \"#utility.yul\":10394:10420   */\n      swap1\n      pop\n        /* \"#utility.yul\":10466:10475   */\n      dup2\n        /* \"#utility.yul\":10460:10464   */\n      dup2\n        /* \"#utility.yul\":10456:10476   */\n      sub\n        /* \"#utility.yul\":10452:10453   */\n      0x00\n        /* \"#utility.yul\":10441:10450   */\n      dup4\n        /* \"#utility.yul\":10437:10454   */\n      add\n        /* \"#utility.yul\":10430:10477   */\n      mstore\n        /* \"#utility.yul\":10494:10572   */\n      tag_287\n        /* \"#utility.yul\":10567:10571   */\n      dup2\n        /* \"#utility.yul\":10558:10564   */\n      dup7\n        /* \"#utility.yul\":10494:10572   */\n      tag_157\n      jump\t// in\n    tag_287:\n        /* \"#utility.yul\":10486:10572   */\n      swap1\n      pop\n        /* \"#utility.yul\":10619:10628   */\n      dup2\n        /* \"#utility.yul\":10613:10617   */\n      dup2\n        /* \"#utility.yul\":10609:10629   */\n      sub\n        /* \"#utility.yul\":10604:10606   */\n      0x20\n        /* \"#utility.yul\":10593:10602   */\n      dup4\n        /* \"#utility.yul\":10589:10607   */\n      add\n        /* \"#utility.yul\":10582:10630   */\n      mstore\n        /* \"#utility.yul\":10647:10725   */\n      tag_288\n        /* \"#utility.yul\":10720:10724   */\n      dup2\n        /* \"#utility.yul\":10711:10717   */\n      dup6\n        /* \"#utility.yul\":10647:10725   */\n      tag_157\n      jump\t// in\n    tag_288:\n        /* \"#utility.yul\":10639:10725   */\n      swap1\n      pop\n        /* \"#utility.yul\":10735:10801   */\n      tag_289\n        /* \"#utility.yul\":10797:10799   */\n      0x40\n        /* \"#utility.yul\":10786:10795   */\n      dup4\n        /* \"#utility.yul\":10782:10800   */\n      add\n        /* \"#utility.yul\":10773:10779   */\n      dup5\n        /* \"#utility.yul\":10735:10801   */\n      tag_158\n      jump\t// in\n    tag_289:\n        /* \"#utility.yul\":10196:10808   */\n      swap5\n      swap4\n      pop\n      pop\n      pop\n      pop\n      jump\t// out\n        /* \"#utility.yul\":10814:10900   */\n    tag_159:\n        /* \"#utility.yul\":10849:10856   */\n      0x00\n        /* \"#utility.yul\":10889:10893   */\n      0xff\n        /* \"#utility.yul\":10882:10887   */\n      dup3\n        /* \"#utility.yul\":10878:10894   */\n      and\n        /* \"#utility.yul\":10867:10894   */\n      swap1\n      pop\n        /* \"#utility.yul\":10814:10900   */\n      swap2\n      swap1\n      pop\n      jump\t// out\n        /* \"#utility.yul\":10906:11024   */\n    tag_160:\n        /* \"#utility.yul\":10977:10999   */\n      tag_292\n        /* \"#utility.yul\":10993:10998   */\n      dup2\n        /* \"#utility.yul\":10977:10999   */\n      tag_159\n      jump\t// in\n    tag_292:\n        /* \"#utility.yul\":10970:10975   */\n      dup2\n        /* \"#utility.yul\":10967:11000   */\n      eq\n        /* \"#utility.yul\":10957:11018   */\n      tag_293\n      jumpi\n        /* \"#utility.yul\":11014:11015   */\n      0x00\n        /* \"#utility.yul\":11011:11012   */\n      dup1\n        /* \"#utility.yul\":11004:11016   */\n      revert\n        /* \"#utility.yul\":10957:11018   */\n    tag_293:\n        /* \"#utility.yul\":10906:11024   */\n      pop\n      jump\t// out\n        /* \"#utility.yul\":11030:11165   */\n    tag_161:\n        /* \"#utility.yul\":11074:11079   */\n      0x00\n        /* \"#utility.yul\":11112:11118   */\n      dup2\n        /* \"#utility.yul\":11099:11119   */\n      calldataload\n        /* \"#utility.yul\":11090:11119   */\n      swap1\n      pop\n        /* \"#utility.yul\":11128:11159   */\n      tag_295\n        /* \"#utility.yul\":11153:11158   */\n      dup2\n        /* \"#utility.yul\":11128:11159   */\n      tag_160\n      jump\t// in\n    tag_295:\n        /* \"#utility.yul\":11030:11165   */\n      swap3\n      swap2\n      pop\n      pop\n      jump\t// out\n        /* \"#utility.yul\":11171:11496   */\n    tag_37:\n        /* \"#utility.yul\":11228:11234   */\n      0x00\n        /* \"#utility.yul\":11277:11279   */\n      0x20\n        /* \"#utility.yul\":11265:11274   */\n      dup3\n        /* \"#utility.yul\":11256:11263   */\n      dup5\n        /* \"#utility.yul\":11252:11275   */\n      sub\n        /* \"#utility.yul\":11248:11280   */\n      slt\n        /* \"#utility.yul\":11245:11364   */\n      iszero\n      tag_297\n      jumpi\n        /* \"#utility.yul\":11283:11362   */\n      tag_298\n      tag_142\n      jump\t// in\n    tag_298:\n        /* \"#utility.yul\":11245:11364   */\n    tag_297:\n        /* \"#utility.yul\":11403:11404   */\n      0x00\n        /* \"#utility.yul\":11428:11479   */\n      tag_299\n        /* \"#utility.yul\":11471:11478   */\n      dup5\n        /* \"#utility.yul\":11462:11468   */\n      dup3\n        /* \"#utility.yul\":11451:11460   */\n      dup6\n        /* \"#utility.yul\":11447:11469   */\n      add\n        /* \"#utility.yul\":11428:11479   */\n      tag_161\n      jump\t// in\n    tag_299:\n        /* \"#utility.yul\":11418:11479   */\n      swap2\n      pop\n        /* \"#utility.yul\":11374:11489   */\n      pop\n        /* \"#utility.yul\":11171:11496   */\n      swap3\n      swap2\n      pop\n      pop\n      jump\t// out\n        /* \"#utility.yul\":11502:12016   */\n    tag_40:\n        /* \"#utility.yul\":11663:11667   */\n      0x00\n        /* \"#utility.yul\":11701:11703   */\n      0x40\n        /* \"#utility.yul\":11690:11699   */\n      dup3\n        /* \"#utility.yul\":11686:11704   */\n      add\n        /* \"#utility.yul\":11678:11704   */\n      swap1\n      pop\n        /* \"#utility.yul\":11750:11759   */\n      dup2\n        /* \"#utility.yul\":11744:11748   */\n      dup2\n        /* \"#utility.yul\":11740:11760   */\n      sub\n        /* \"#utility.yul\":11736:11737   */\n      0x00\n        /* \"#utility.yul\":11725:11734   */\n      dup4\n        /* \"#utility.yul\":11721:11738   */\n      add\n        /* \"#utility.yul\":11714:11761   */\n      mstore\n        /* \"#utility.yul\":11778:11856   */\n      tag_301\n        /* \"#utility.yul\":11851:11855   */\n      dup2\n        /* \"#utility.yul\":11842:11848   */\n      dup6\n        /* \"#utility.yul\":11778:11856   */\n      tag_157\n      jump\t// in\n    tag_301:\n        /* \"#utility.yul\":11770:11856   */\n      swap1\n      pop\n        /* \"#utility.yul\":11903:11912   */\n      dup2\n        /* \"#utility.yul\":11897:11901   */\n      dup2\n        /* \"#utility.yul\":11893:11913   */\n      sub\n        /* \"#utility.yul\":11888:11890   */\n      0x20\n        /* \"#utility.yul\":11877:11886   */\n      dup4\n        /* \"#utility.yul\":11873:11891   */\n      add\n        /* \"#utility.yul\":11866:11914   */\n      mstore\n        /* \"#utility.yul\":11931:12009   */\n      tag_302\n        /* \"#utility.yul\":12004:12008   */\n      dup2\n        /* \"#utility.yul\":11995:12001   */\n      dup5\n        /* \"#utility.yul\":11931:12009   */\n      tag_157\n      jump\t// in\n    tag_302:\n        /* \"#utility.yul\":11923:12009   */\n      swap1\n      pop\n        /* \"#utility.yul\":11502:12016   */\n      swap4\n      swap3\n      pop\n      pop\n      pop\n      jump\t// out\n        /* \"#utility.yul\":12022:12202   */\n    tag_162:\n        /* \"#utility.yul\":12070:12147   */\n      0x4e487b7100000000000000000000000000000000000000000000000000000000\n        /* \"#utility.yul\":12067:12068   */\n      0x00\n        /* \"#utility.yul\":12060:12148   */\n      mstore\n        /* \"#utility.yul\":12167:12171   */\n      0x22\n        /* \"#utility.yul\":12164:12165   */\n      0x04\n        /* \"#utility.yul\":12157:12172   */\n      mstore\n        /* \"#utility.yul\":12191:12195   */\n      0x24\n        /* \"#utility.yul\":12188:12189   */\n      0x00\n        /* \"#utility.yul\":12181:12196   */\n      revert\n        /* \"#utility.yul\":12208:12528   */\n    tag_46:\n        /* \"#utility.yul\":12252:12258   */\n      0x00\n        /* \"#utility.yul\":12289:12290   */\n      0x02\n        /* \"#utility.yul\":12283:12287   */\n      dup3\n        /* \"#utility.yul\":12279:12291   */\n      div\n        /* \"#utility.yul\":12269:12291   */\n      swap1\n      pop\n        /* \"#utility.yul\":12336:12337   */\n      0x01\n        /* \"#utility.yul\":12330:12334   */\n      dup3\n        /* \"#utility.yul\":12326:12338   */\n      and\n        /* \"#utility.yul\":12357:12375   */\n      dup1\n        /* \"#utility.yul\":12347:12428   */\n      tag_305\n      jumpi\n        /* \"#utility.yul\":12413:12417   */\n      0x7f\n        /* \"#utility.yul\":12405:12411   */\n      dup3\n        /* \"#utility.yul\":12401:12418   */\n      and\n        /* \"#utility.yul\":12391:12418   */\n      swap2\n      pop\n        /* \"#utility.yul\":12347:12428   */\n    tag_305:\n        /* \"#utility.yul\":12475:12477   */\n      0x20\n        /* \"#utility.yul\":12467:12473   */\n      dup3\n        /* \"#utility.yul\":12464:12478   */\n      lt\n        /* \"#utility.yul\":12444:12462   */\n      dup2\n        /* \"#utility.yul\":12441:12479   */\n      sub\n        /* \"#utility.yul\":12438:12522   */\n      tag_306\n      jumpi\n        /* \"#utility.yul\":12494:12512   */\n      tag_307\n      tag_162\n      jump\t// in\n    tag_307:\n        /* \"#utility.yul\":12438:12522   */\n    tag_306:\n        /* \"#utility.yul\":12259:12528   */\n      pop\n        /* \"#utility.yul\":12208:12528   */\n      swap2\n      swap1\n      pop\n      jump\t// out\n        /* \"#utility.yul\":12534:12675   */\n    tag_163:\n        /* \"#utility.yul\":12583:12587   */\n      0x00\n        /* \"#utility.yul\":12606:12609   */\n      dup2\n        /* \"#utility.yul\":12598:12609   */\n      swap1\n      pop\n        /* \"#utility.yul\":12629:12632   */\n      dup2\n        /* \"#utility.yul\":12626:12627   */\n      0x00\n        /* \"#utility.yul\":12619:12633   */\n      mstore\n        /* \"#utility.yul\":12663:12667   */\n      0x20\n        /* \"#utility.yul\":12660:12661   */\n      0x00\n        /* \"#utility.yul\":12650:12668   */\n      keccak256\n        /* \"#utility.yul\":12642:12668   */\n      swap1\n      pop\n        /* \"#utility.yul\":12534:12675   */\n      swap2\n      swap1\n      pop\n      jump\t// out\n        /* \"#utility.yul\":12681:12774   */\n    tag_164:\n        /* \"#utility.yul\":12718:12724   */\n      0x00\n        /* \"#utility.yul\":12765:12767   */\n      0x20\n        /* \"#utility.yul\":12760:12762   */\n      0x1f\n        /* \"#utility.yul\":12753:12758   */\n      dup4\n        /* \"#utility.yul\":12749:12763   */\n      add\n        /* \"#utility.yul\":12745:12768   */\n      div\n        /* \"#utility.yul\":12735:12768   */\n      swap1\n      pop\n        /* \"#utility.yul\":12681:12774   */\n      swap2\n      swap1\n      pop\n      jump\t// out\n        /* \"#utility.yul\":12780:12887   */\n    tag_165:\n        /* \"#utility.yul\":12824:12832   */\n      0x00\n        /* \"#utility.yul\":12874:12879   */\n      dup3\n        /* \"#utility.yul\":12868:12872   */\n      dup3\n        /* \"#utility.yul\":12864:12880   */\n      shl\n        /* \"#utility.yul\":12843:12880   */\n      swap1\n      pop\n        /* \"#utility.yul\":12780:12887   */\n      swap3\n      swap2\n      pop\n      pop\n      jump\t// out\n        /* \"#utility.yul\":12893:13286   */\n    tag_166:\n        /* \"#utility.yul\":12962:12968   */\n      0x00\n        /* \"#utility.yul\":13012:13013   */\n      0x08\n        /* \"#utility.yul\":13000:13010   */\n      dup4\n        /* \"#utility.yul\":12996:13014   */\n      mul\n        /* \"#utility.yul\":13035:13132   */\n      tag_312\n        /* \"#utility.yul\":13065:13131   */\n      0xffffffffffffffffffffffffffffffffffffffffffffffffffffffffffffffff\n        /* \"#utility.yul\":13054:13063   */\n      dup3\n        /* \"#utility.yul\":13035:13132   */\n      tag_165\n      jump\t// in\n    tag_312:\n        /* \"#utility.yul\":13153:13192   */\n      tag_313\n        /* \"#utility.yul\":13183:13191   */\n      dup7\n        /* \"#utility.yul\":13172:13181   */\n      dup4\n        /* \"#utility.yul\":13153:13192   */\n      tag_165\n      jump\t// in\n    tag_313:\n        /* \"#utility.yul\":13141:13192   */\n      swap6\n      pop\n        /* \"#utility.yul\":13225:13229   */\n      dup1\n        /* \"#utility.yul\":13221:13230   */\n      not\n        /* \"#utility.yul\":13214:13219   */\n      dup5\n        /* \"#utility.yul\":13210:13231   */\n      and\n        /* \"#utility.yul\":13201:13231   */\n      swap4\n      pop\n        /* \"#utility.yul\":13274:13278   */\n      dup1\n        /* \"#utility.yul\":13264:13272   */\n      dup7\n        /* \"#utility.yul\":13260:13279   */\n      and\n        /* \"#utility.yul\":13253:13258   */\n      dup5\n        /* \"#utility.yul\":13250:13280   */\n      or\n        /* \"#utility.yul\":13240:13280   */\n      swap3\n      pop\n        /* \"#utility.yul\":12969:13286   */\n      pop\n      pop\n        /* \"#utility.yul\":12893:13286   */\n      swap4\n      swap3\n      pop\n      pop\n      pop\n      jump\t// out\n        /* \"#utility.yul\":13292:13352   */\n    tag_167:\n        /* \"#utility.yul\":13320:13323   */\n      0x00\n        /* \"#utility.yul\":13341:13346   */\n      dup2\n        /* \"#utility.yul\":13334:13346   */\n      swap1\n      pop\n        /* \"#utility.yul\":13292:13352   */\n      swap2\n      swap1\n      pop\n      jump\t// out\n        /* \"#utility.yul\":13358:13500   */\n    tag_168:\n        /* \"#utility.yul\":13408:13417   */\n      0x00\n        /* \"#utility.yul\":13441:13494   */\n      tag_316\n        /* \"#utility.yul\":13459:13493   */\n      tag_317\n        /* \"#utility.yul\":13468:13492   */\n      tag_318\n        /* \"#utility.yul\":13486:13491   */\n      dup5\n        /* \"#utility.yul\":13468:13492   */\n      tag_153\n      jump\t// in\n    tag_318:\n        /* \"#utility.yul\":13459:13493   */\n      tag_167\n      jump\t// in\n    tag_317:\n        /* \"#utility.yul\":13441:13494   */\n      tag_153\n      jump\t// in\n    tag_316:\n        /* \"#utility.yul\":13428:13494   */\n      swap1\n      pop\n        /* \"#utility.yul\":13358:13500   */\n      swap2\n      swap1\n      pop\n      jump\t// out\n        /* \"#utility.yul\":13506:13581   */\n    tag_169:\n        /* \"#utility.yul\":13549:13552   */\n      0x00\n        /* \"#utility.yul\":13570:13575   */\n      dup2\n        /* \"#utility.yul\":13563:13575   */\n      swap1\n      pop\n        /* \"#utility.yul\":13506:13581   */\n      swap2\n      swap1\n      pop\n      jump\t// out\n        /* \"#utility.yul\":13587:13856   */\n    tag_170:\n        /* \"#utility.yul\":13697:13736   */\n      tag_321\n        /* \"#utility.yul\":13728:13735   */\n      dup4\n        /* \"#utility.yul\":13697:13736   */\n      tag_168\n      jump\t// in\n    tag_321:\n        /* \"#utility.yul\":13758:13849   */\n      tag_322\n        /* \"#utility.yul\":13807:13848   */\n      tag_323\n        /* \"#utility.yul\":13831:13847   */\n      dup3\n        /* \"#utility.yul\":13807:13848   */\n      tag_169\n      jump\t// in\n    tag_323:\n        /* \"#utility.yul\":13799:13805   */\n      dup5\n        /* \"#utility.yul\":13792:13796   */\n      dup5\n        /* \"#utility.yul\":13786:13797   */\n      sload\n        /* \"#utility.yul\":13758:13849   */\n      tag_166\n      jump\t// in\n    tag_322:\n        /* \"#utility.yul\":13752:13756   */\n      dup3\n        /* \"#utility.yul\":13745:13850   */\n      sstore\n        /* \"#utility.yul\":13663:13856   */\n      pop\n        /* \"#utility.yul\":13587:13856   */\n      pop\n      pop\n      pop\n      jump\t// out\n        /* \"#utility.yul\":13862:13935   */\n    tag_171:\n        /* \"#utility.yul\":13907:13910   */\n      0x00\n        /* \"#utility.yul\":13862:13935   */\n      swap1\n      jump\t// out\n        /* \"#utility.yul\":13941:14130   */\n    tag_172:\n        /* \"#utility.yul\":14018:14050   */\n      tag_326\n      tag_171\n      jump\t// in\n    tag_326:\n        /* \"#utility.yul\":14059:14124   */\n      tag_327\n        /* \"#utility.yul\":14117:14123   */\n      dup2\n        /* \"#utility.yul\":14109:14115   */\n      dup5\n        /* \"#utility.yul\":14103:14107   */\n      dup5\n        /* \"#utility.yul\":14059:14124   */\n      tag_170\n      jump\t// in\n    tag_327:\n        /* \"#utility.yul\":13994:14130   */\n      pop\n        /* \"#utility.yul\":13941:14130   */\n      pop\n      pop\n      jump\t// out\n        /* \"#utility.yul\":14136:14322   */\n    tag_173:\n        /* \"#utility.yul\":14196:14316   */\n    tag_329:\n        /* \"#utility.yul\":14213:14216   */\n      dup2\n        /* \"#utility.yul\":14206:14211   */\n      dup2\n        /* \"#utility.yul\":14203:14217   */\n      lt\n        /* \"#utility.yul\":14196:14316   */\n      iszero\n      tag_331\n      jumpi\n        /* \"#utility.yul\":14267:14306   */\n      tag_332\n        /* \"#utility.yul\":14304:14305   */\n      0x00\n        /* \"#utility.yul\":14297:14302   */\n      dup3\n        /* \"#utility.yul\":14267:14306   */\n      tag_172\n      jump\t// in\n    tag_332:\n        /* \"#utility.yul\":14240:14241   */\n      0x01\n        /* \"#utility.yul\":14233:14238   */\n      dup2\n        /* \"#utility.yul\":14229:14242   */\n      add\n        /* \"#utility.yul\":14220:14242   */\n      swap1\n      pop\n        /* \"#utility.yul\":14196:14316   */\n      jump(tag_329)\n    tag_331:\n        /* \"#utility.yul\":14136:14322   */\n      pop\n      pop\n      jump\t// out\n        /* \"#utility.yul\":14328:14871   */\n    tag_174:\n        /* \"#utility.yul\":14429:14431   */\n      0x1f\n        /* \"#utility.yul\":14424:14427   */\n      dup3\n        /* \"#utility.yul\":14421:14432   */\n      gt\n        /* \"#utility.yul\":14418:14864   */\n      iszero\n      tag_334\n      jumpi\n        /* \"#utility.yul\":14463:14501   */\n      tag_335\n        /* \"#utility.yul\":14495:14500   */\n      dup2\n        /* \"#utility.yul\":14463:14501   */\n      tag_163\n      jump\t// in\n    tag_335:\n        /* \"#utility.yul\":14547:14576   */\n      tag_336\n        /* \"#utility.yul\":14565:14575   */\n      dup5\n        /* \"#utility.yul\":14547:14576   */\n      tag_164\n      jump\t// in\n    tag_336:\n        /* \"#utility.yul\":14537:14545   */\n      dup2\n        /* \"#utility.yul\":14533:14577   */\n      add\n        /* \"#utility.yul\":14730:14732   */\n      0x20\n        /* \"#utility.yul\":14718:14728   */\n      dup6\n        /* \"#utility.yul\":14715:14733   */\n      lt\n        /* \"#utility.yul\":14712:14761   */\n      iszero\n      tag_337\n      jumpi\n        /* \"#utility.yul\":14751:14759   */\n      dup2\n        /* \"#utility.yul\":14736:14759   */\n      swap1\n      pop\n        /* \"#utility.yul\":14712:14761   */\n    tag_337:\n        /* \"#utility.yul\":14774:14854   */\n      tag_338\n        /* \"#utility.yul\":14830:14852   */\n      tag_339\n        /* \"#utility.yul\":14848:14851   */\n      dup6\n        /* \"#utility.yul\":14830:14852   */\n      tag_164\n      jump\t// in\n    tag_339:\n        /* \"#utility.yul\":14820:14828   */\n      dup4\n        /* \"#utility.yul\":14816:14853   */\n      add\n        /* \"#utility.yul\":14803:14814   */\n      dup3\n        /* \"#utility.yul\":14774:14854   */\n      tag_173\n      jump\t// in\n    tag_338:\n        /* \"#utility.yul\":14433:14864   */\n      pop\n      pop\n        /* \"#utility.yul\":14418:14864   */\n    tag_334:\n        /* \"#utility.yul\":14328:14871   */\n      pop\n      pop\n      pop\n      jump\t// out\n        /* \"#utility.yul\":14877:14994   */\n    tag_175:\n        /* \"#utility.yul\":14931:14939   */\n      0x00\n        /* \"#utility.yul\":14981:14986   */\n      dup3\n        /* \"#utility.yul\":14975:14979   */\n      dup3\n        /* \"#utility.yul\":14971:14987   */\n      shr\n        /* \"#utility.yul\":14950:14987   */\n      swap1\n      pop\n        /* \"#utility.yul\":14877:14994   */\n      swap3\n      swap2\n      pop\n      pop\n      jump\t// out\n        /* \"#utility.yul\":15000:15169   */\n    tag_176:\n        /* \"#utility.yul\":15044:15050   */\n      0x00\n        /* \"#utility.yul\":15077:15128   */\n      tag_342\n        /* \"#utility.yul\":15125:15126   */\n      0x00\n        /* \"#utility.yul\":15121:15127   */\n      not\n        /* \"#utility.yul\":15113:15118   */\n      dup5\n        /* \"#utility.yul\":15110:15111   */\n      0x08\n        /* \"#utility.yul\":15106:15119   */\n      mul\n        /* \"#utility.yul\":15077:15128   */\n      tag_175\n      jump\t// in\n    tag_342:\n        /* \"#utility.yul\":15073:15129   */\n      not\n        /* \"#utility.yul\":15158:15162   */\n      dup1\n        /* \"#utility.yul\":15152:15156   */\n      dup4\n        /* \"#utility.yul\":15148:15163   */\n      and\n        /* \"#utility.yul\":15138:15163   */\n      swap2\n      pop\n        /* \"#utility.yul\":15051:15169   */\n      pop\n        /* \"#utility.yul\":15000:15169   */\n      swap3\n      swap2\n      pop\n      pop\n      jump\t// out\n        /* \"#utility.yul\":15174:15469   */\n    tag_177:\n        /* \"#utility.yul\":15250:15254   */\n      0x00\n        /* \"#utility.yul\":15396:15425   */\n      tag_344\n        /* \"#utility.yul\":15421:15424   */\n      dup4\n        /* \"#utility.yul\":15415:15419   */\n      dup4\n        /* \"#utility.yul\":15396:15425   */\n      tag_176\n      jump\t// in\n    tag_344:\n        /* \"#utility.yul\":15388:15425   */\n      swap2\n      pop\n        /* \"#utility.yul\":15458:15461   */\n      dup3\n        /* \"#utility.yul\":15455:15456   */\n      0x02\n        /* \"#utility.yul\":15451:15462   */\n      mul\n        /* \"#utility.yul\":15445:15449   */\n      dup3\n        /* \"#utility.yul\":15442:15463   */\n      or\n        /* \"#utility.yul\":15434:15463   */\n      swap1\n      pop\n        /* \"#utility.yul\":15174:15469   */\n      swap3\n      swap2\n      pop\n      pop\n      jump\t// out\n        /* \"#utility.yul\":15474:16869   */\n    tag_59:\n        /* \"#utility.yul\":15591:15628   */\n      tag_346\n        /* \"#utility.yul\":15624:15627   */\n      dup3\n        /* \"#utility.yul\":15591:15628   */\n      tag_130\n      jump\t// in\n    tag_346:\n        /* \"#utility.yul\":15693:15711   */\n      0xffffffffffffffff\n        /* \"#utility.yul\":15685:15691   */\n      dup2\n        /* \"#utility.yul\":15682:15712   */\n      gt\n        /* \"#utility.yul\":15679:15735   */\n      iszero\n      tag_347\n      jumpi\n        /* \"#utility.yul\":15715:15733   */\n      tag_348\n      tag_146\n      jump\t// in\n    tag_348:\n        /* \"#utility.yul\":15679:15735   */\n    tag_347:\n        /* \"#utility.yul\":15759:15797   */\n      tag_349\n        /* \"#utility.yul\":15791:15795   */\n      dup3\n        /* \"#utility.yul\":15785:15796   */\n      sload\n        /* \"#utility.yul\":15759:15797   */\n      tag_46\n      jump\t// in\n    tag_349:\n        /* \"#utility.yul\":15844:15911   */\n      tag_350\n        /* \"#utility.yul\":15904:15910   */\n      dup3\n        /* \"#utility.yul\":15896:15902   */\n      dup3\n        /* \"#utility.yul\":15890:15894   */\n      dup6\n        /* \"#utility.yul\":15844:15911   */\n      tag_174\n      jump\t// in\n    tag_350:\n        /* \"#utility.yul\":15938:15939   */\n      0x00\n        /* \"#utility.yul\":15962:15966   */\n      0x20\n        /* \"#utility.yul\":15949:15966   */\n      swap1\n      pop\n        /* \"#utility.yul\":15994:15996   */\n      0x1f\n        /* \"#utility.yul\":15986:15992   */\n      dup4\n        /* \"#utility.yul\":15983:15997   */\n      gt\n        /* \"#utility.yul\":16011:16012   */\n      0x01\n        /* \"#utility.yul\":16006:16624   */\n      dup2\n      eq\n      tag_352\n      jumpi\n        /* \"#utility.yul\":16668:16669   */\n      0x00\n        /* \"#utility.yul\":16685:16691   */\n      dup5\n        /* \"#utility.yul\":16682:16759   */\n      iszero\n      tag_353\n      jumpi\n        /* \"#utility.yul\":16734:16743   */\n      dup3\n        /* \"#utility.yul\":16729:16732   */\n      dup8\n        /* \"#utility.yul\":16725:16744   */\n      add\n        /* \"#utility.yul\":16719:16745   */\n      mload\n        /* \"#utility.yul\":16710:16745   */\n      swap1\n      pop\n        /* \"#utility.yul\":16682:16759   */\n    tag_353:\n        /* \"#utility.yul\":16785:16852   */\n      tag_354\n        /* \"#utility.yul\":16845:16851   */\n      dup6\n        /* \"#utility.yul\":16838:16843   */\n      dup3\n        /* \"#utility.yul\":16785:16852   */\n      tag_177\n      jump\t// in\n    tag_354:\n        /* \"#utility.yul\":16779:16783   */\n      dup7\n        /* \"#utility.yul\":16772:16853   */\n      sstore\n        /* \"#utility.yul\":16641:16863   */\n      pop\n        /* \"#utility.yul\":15976:16863   */\n      jump(tag_351)\n        /* \"#utility.yul\":16006:16624   */\n    tag_352:\n        /* \"#utility.yul\":16058:16062   */\n      0x1f\n        /* \"#utility.yul\":16054:16063   */\n      not\n        /* \"#utility.yul\":16046:16052   */\n      dup5\n        /* \"#utility.yul\":16042:16064   */\n      and\n        /* \"#utility.yul\":16092:16129   */\n      tag_355\n        /* \"#utility.yul\":16124:16128   */\n      dup7\n        /* \"#utility.yul\":16092:16129   */\n      tag_163\n      jump\t// in\n    tag_355:\n        /* \"#utility.yul\":16151:16152   */\n      0x00\n        /* \"#utility.yul\":16165:16373   */\n    tag_356:\n        /* \"#utility.yul\":16179:16186   */\n      dup3\n        /* \"#utility.yul\":16176:16177   */\n      dup2\n        /* \"#utility.yul\":16173:16187   */\n      lt\n        /* \"#utility.yul\":16165:16373   */\n      iszero\n      tag_358\n      jumpi\n        /* \"#utility.yul\":16258:16267   */\n      dup5\n        /* \"#utility.yul\":16253:16256   */\n      dup10\n        /* \"#utility.yul\":16249:16268   */\n      add\n        /* \"#utility.yul\":16243:16269   */\n      mload\n        /* \"#utility.yul\":16235:16241   */\n      dup3\n        /* \"#utility.yul\":16228:16270   */\n      sstore\n        /* \"#utility.yul\":16309:16310   */\n      0x01\n        /* \"#utility.yul\":16301:16307   */\n      dup3\n        /* \"#utility.yul\":16297:16311   */\n      add\n        /* \"#utility.yul\":16287:16311   */\n      swap2\n      pop\n        /* \"#utility.yul\":16356:16358   */\n      0x20\n        /* \"#utility.yul\":16345:16354   */\n      dup6\n        /* \"#utility.yul\":16341:16359   */\n      add\n        /* \"#utility.yul\":16328:16359   */\n      swap5\n      pop\n        /* \"#utility.yul\":16202:16206   */\n      0x20\n        /* \"#utility.yul\":16199:16200   */\n      dup2\n        /* \"#utility.yul\":16195:16207   */\n      add\n        /* \"#utility.yul\":16190:16207   */\n      swap1\n      pop\n        /* \"#utility.yul\":16165:16373   */\n      jump(tag_356)\n    tag_358:\n        /* \"#utility.yul\":16401:16407   */\n      dup7\n        /* \"#utility.yul\":16392:16399   */\n      dup4\n        /* \"#utility.yul\":16389:16408   */\n      lt\n        /* \"#utility.yul\":16386:16565   */\n      iszero\n      tag_359\n      jumpi\n        /* \"#utility.yul\":16459:16468   */\n      dup5\n        /* \"#utility.yul\":16454:16457   */\n      dup10\n        /* \"#utility.yul\":16450:16469   */\n      add\n        /* \"#utility.yul\":16444:16470   */\n      mload\n        /* \"#utility.yul\":16502:16550   */\n      tag_360\n        /* \"#utility.yul\":16544:16548   */\n      0x1f\n        /* \"#utility.yul\":16536:16542   */\n      dup10\n        /* \"#utility.yul\":16532:16549   */\n      and\n        /* \"#utility.yul\":16521:16530   */\n      dup3\n        /* \"#utility.yul\":16502:16550   */\n      tag_176\n      jump\t// in\n    tag_360:\n        /* \"#utility.yul\":16494:16500   */\n      dup4\n        /* \"#utility.yul\":16487:16551   */\n      sstore\n        /* \"#utility.yul\":16409:16565   */\n      pop\n        /* \"#utility.yul\":16386:16565   */\n    tag_359:\n        /* \"#utility.yul\":16611:16612   */\n      0x01\n        /* \"#utility.yul\":16607:16608   */\n      0x02\n        /* \"#utility.yul\":16599:16605   */\n      dup9\n        /* \"#utility.yul\":16595:16609   */\n      mul\n        /* \"#utility.yul\":16591:16613   */\n      add\n        /* \"#utility.yul\":16585:16589   */\n      dup9\n        /* \"#utility.yul\":16578:16614   */\n      sstore\n        /* \"#utility.yul\":16013:16624   */\n      pop\n      pop\n      pop\n        /* \"#utility.yul\":15976:16863   */\n    tag_351:\n      pop\n        /* \"#utility.yul\":15566:16869   */\n      pop\n      pop\n      pop\n        /* \"#utility.yul\":15474:16869   */\n      pop\n      pop\n      jump\t// out\n        /* \"#utility.yul\":16875:17055   */\n    tag_178:\n        /* \"#utility.yul\":16923:17000   */\n      0x4e487b7100000000000000000000000000000000000000000000000000000000\n        /* \"#utility.yul\":16920:16921   */\n      0x00\n        /* \"#utility.yul\":16913:17001   */\n      mstore\n        /* \"#utility.yul\":17020:17024   */\n      0x11\n        /* \"#utility.yul\":17017:17018   */\n      0x04\n        /* \"#utility.yul\":17010:17025   */\n      mstore\n        /* \"#utility.yul\":17044:17048   */\n      0x24\n        /* \"#utility.yul\":17041:17042   */\n      0x00\n        /* \"#utility.yul\":17034:17049   */\n      revert\n        /* \"#utility.yul\":17061:17255   */\n    tag_62:\n        /* \"#utility.yul\":17101:17105   */\n      0x00\n        /* \"#utility.yul\":17121:17141   */\n      tag_363\n        /* \"#utility.yul\":17139:17140   */\n      dup3\n        /* \"#utility.yul\":17121:17141   */\n      tag_153\n      jump\t// in\n    tag_363:\n        /* \"#utility.yul\":17116:17141   */\n      swap2\n      pop\n        /* \"#utility.yul\":17155:17175   */\n      tag_364\n        /* \"#utility.yul\":17173:17174   */\n      dup4\n        /* \"#utility.yul\":17155:17175   */\n      tag_153\n      jump\t// in\n    tag_364:\n        /* \"#utility.yul\":17150:17175   */\n      swap3\n      pop\n        /* \"#utility.yul\":17199:17200   */\n      dup3\n        /* \"#utility.yul\":17196:17197   */\n      dup3\n        /* \"#utility.yul\":17192:17201   */\n      sub\n        /* \"#utility.yul\":17184:17201   */\n      swap1\n      pop\n        /* \"#utility.yul\":17223:17224   */\n      dup2\n        /* \"#utility.yul\":17217:17221   */\n      dup2\n        /* \"#utility.yul\":17214:17225   */\n      gt\n        /* \"#utility.yul\":17211:17248   */\n      iszero\n      tag_365\n      jumpi\n        /* \"#utility.yul\":17228:17246   */\n      tag_366\n      tag_178\n      jump\t// in\n    tag_366:\n        /* \"#utility.yul\":17211:17248   */\n    tag_365:\n        /* \"#utility.yul\":17061:17255   */\n      swap3\n      swap2\n      pop\n      pop\n      jump\t// out\n        /* \"#utility.yul\":17261:17379   */\n    tag_179:\n        /* \"#utility.yul\":17348:17372   */\n      tag_368\n        /* \"#utility.yul\":17366:17371   */\n      dup2\n        /* \"#utility.yul\":17348:17372   */\n      tag_153\n      jump\t// in\n    tag_368:\n        /* \"#utility.yul\":17343:17346   */\n      dup3\n        /* \"#utility.yul\":17336:17373   */\n      mstore\n        /* \"#utility.yul\":17261:17379   */\n      pop\n      pop\n      jump\t// out\n        /* \"#utility.yul\":17385:18009   */\n    tag_64:\n        /* \"#utility.yul\":17574:17578   */\n      0x00\n        /* \"#utility.yul\":17612:17614   */\n      0x60\n        /* \"#utility.yul\":17601:17610   */\n      dup3\n        /* \"#utility.yul\":17597:17615   */\n      add\n        /* \"#utility.yul\":17589:17615   */\n      swap1\n      pop\n        /* \"#utility.yul\":17625:17696   */\n      tag_370\n        /* \"#utility.yul\":17693:17694   */\n      0x00\n        /* \"#utility.yul\":17682:17691   */\n      dup4\n        /* \"#utility.yul\":17678:17695   */\n      add\n        /* \"#utility.yul\":17669:17675   */\n      dup7\n        /* \"#utility.yul\":17625:17696   */\n      tag_179\n      jump\t// in\n    tag_370:\n        /* \"#utility.yul\":17743:17752   */\n      dup2\n        /* \"#utility.yul\":17737:17741   */\n      dup2\n        /* \"#utility.yul\":17733:17753   */\n      sub\n        /* \"#utility.yul\":17728:17730   */\n      0x20\n        /* \"#utility.yul\":17717:17726   */\n      dup4\n        /* \"#utility.yul\":17713:17731   */\n      add\n        /* \"#utility.yul\":17706:17754   */\n      mstore\n        /* \"#utility.yul\":17771:17849   */\n      tag_371\n        /* \"#utility.yul\":17844:17848   */\n      dup2\n        /* \"#utility.yul\":17835:17841   */\n      dup6\n        /* \"#utility.yul\":17771:17849   */\n      tag_157\n      jump\t// in\n    tag_371:\n        /* \"#utility.yul\":17763:17849   */\n      swap1\n      pop\n        /* \"#utility.yul\":17896:17905   */\n      dup2\n        /* \"#utility.yul\":17890:17894   */\n      dup2\n        /* \"#utility.yul\":17886:17906   */\n      sub\n        /* \"#utility.yul\":17881:17883   */\n      0x40\n        /* \"#utility.yul\":17870:17879   */\n      dup4\n        /* \"#utility.yul\":17866:17884   */\n      add\n        /* \"#utility.yul\":17859:17907   */\n      mstore\n        /* \"#utility.yul\":17924:18002   */\n      tag_372\n        /* \"#utility.yul\":17997:18001   */\n      dup2\n        /* \"#utility.yul\":17988:17994   */\n      dup5\n        /* \"#utility.yul\":17924:18002   */\n      tag_157\n      jump\t// in\n    tag_372:\n        /* \"#utility.yul\":17916:18002   */\n      swap1\n      pop\n        /* \"#utility.yul\":17385:18009   */\n      swap5\n      swap4\n      pop\n      pop\n      pop\n      pop\n      jump\t// out\n        /* \"#utility.yul\":18015:18197   */\n    tag_180:\n        /* \"#utility.yul\":18155:18189   */\n      0x546f646f206974656d206e6f7420666f756e64206f72206578697374696e6721\n        /* \"#utility.yul\":18151:18152   */\n      0x00\n        /* \"#utility.yul\":18143:18149   */\n      dup3\n        /* \"#utility.yul\":18139:18153   */\n      add\n        /* \"#utility.yul\":18132:18190   */\n      mstore\n        /* \"#utility.yul\":18015:18197   */\n      pop\n      jump\t// out\n        /* \"#utility.yul\":18203:18569   */\n    tag_181:\n        /* \"#utility.yul\":18345:18348   */\n      0x00\n        /* \"#utility.yul\":18366:18433   */\n      tag_375\n        /* \"#utility.yul\":18430:18432   */\n      0x20\n        /* \"#utility.yul\":18425:18428   */\n      dup4\n        /* \"#utility.yul\":18366:18433   */\n      tag_156\n      jump\t// in\n    tag_375:\n        /* \"#utility.yul\":18359:18433   */\n      swap2\n      pop\n        /* \"#utility.yul\":18442:18535   */\n      tag_376\n        /* \"#utility.yul\":18531:18534   */\n      dup3\n        /* \"#utility.yul\":18442:18535   */\n      tag_180\n      jump\t// in\n    tag_376:\n        /* \"#utility.yul\":18560:18562   */\n      0x20\n        /* \"#utility.yul\":18555:18558   */\n      dup3\n        /* \"#utility.yul\":18551:18563   */\n      add\n        /* \"#utility.yul\":18544:18563   */\n      swap1\n      pop\n        /* \"#utility.yul\":18203:18569   */\n      swap2\n      swap1\n      pop\n      jump\t// out\n        /* \"#utility.yul\":18575:18994   */\n    tag_68:\n        /* \"#utility.yul\":18741:18745   */\n      0x00\n        /* \"#utility.yul\":18779:18781   */\n      0x20\n        /* \"#utility.yul\":18768:18777   */\n      dup3\n        /* \"#utility.yul\":18764:18782   */\n      add\n        /* \"#utility.yul\":18756:18782   */\n      swap1\n      pop\n        /* \"#utility.yul\":18828:18837   */\n      dup2\n        /* \"#utility.yul\":18822:18826   */\n      dup2\n        /* \"#utility.yul\":18818:18838   */\n      sub\n        /* \"#utility.yul\":18814:18815   */\n      0x00\n        /* \"#utility.yul\":18803:18812   */\n      dup4\n        /* \"#utility.yul\":18799:18816   */\n      add\n        /* \"#utility.yul\":18792:18839   */\n      mstore\n        /* \"#utility.yul\":18856:18987   */\n      tag_378\n        /* \"#utility.yul\":18982:18986   */\n      dup2\n        /* \"#utility.yul\":18856:18987   */\n      tag_181\n      jump\t// in\n    tag_378:\n        /* \"#utility.yul\":18848:18987   */\n      swap1\n      pop\n        /* \"#utility.yul\":18575:18994   */\n      swap2\n      swap1\n      pop\n      jump\t// out\n        /* \"#utility.yul\":19000:19222   */\n    tag_70:\n        /* \"#utility.yul\":19093:19097   */\n      0x00\n        /* \"#utility.yul\":19131:19133   */\n      0x20\n        /* \"#utility.yul\":19120:19129   */\n      dup3\n        /* \"#utility.yul\":19116:19134   */\n      add\n        /* \"#utility.yul\":19108:19134   */\n      swap1\n      pop\n        /* \"#utility.yul\":19144:19215   */\n      tag_380\n        /* \"#utility.yul\":19212:19213   */\n      0x00\n        /* \"#utility.yul\":19201:19210   */\n      dup4\n        /* \"#utility.yul\":19197:19214   */\n      add\n        /* \"#utility.yul\":19188:19194   */\n      dup5\n        /* \"#utility.yul\":19144:19215   */\n      tag_179\n      jump\t// in\n    tag_380:\n        /* \"#utility.yul\":19000:19222   */\n      swap3\n      swap2\n      pop\n      pop\n      jump\t// out\n        /* \"#utility.yul\":19228:19408   */\n    tag_76:\n        /* \"#utility.yul\":19276:19353   */\n      0x4e487b7100000000000000000000000000000000000000000000000000000000\n        /* \"#utility.yul\":19273:19274   */\n      0x00\n        /* \"#utility.yul\":19266:19354   */\n      mstore\n        /* \"#utility.yul\":19373:19377   */\n      0x32\n        /* \"#utility.yul\":19370:19371   */\n      0x04\n        /* \"#utility.yul\":19363:19378   */\n      mstore\n        /* \"#utility.yul\":19397:19401   */\n      0x24\n        /* \"#utility.yul\":19394:19395   */\n      0x00\n        /* \"#utility.yul\":19387:19402   */\n      revert\n        /* \"#utility.yul\":19414:19583   */\n    tag_182:\n        /* \"#utility.yul\":19554:19575   */\n      0x546f646f206974656d206e6f7420666f756e6400000000000000000000000000\n        /* \"#utility.yul\":19550:19551   */\n      0x00\n        /* \"#utility.yul\":19542:19548   */\n      dup3\n        /* \"#utility.yul\":19538:19552   */\n      add\n        /* \"#utility.yul\":19531:19576   */\n      mstore\n        /* \"#utility.yul\":19414:19583   */\n      pop\n      jump\t// out\n        /* \"#utility.yul\":19589:19955   */\n    tag_183:\n        /* \"#utility.yul\":19731:19734   */\n      0x00\n        /* \"#utility.yul\":19752:19819   */\n      tag_384\n        /* \"#utility.yul\":19816:19818   */\n      0x13\n        /* \"#utility.yul\":19811:19814   */\n      dup4\n        /* \"#utility.yul\":19752:19819   */\n      tag_156\n      jump\t// in\n    tag_384:\n        /* \"#utility.yul\":19745:19819   */\n      swap2\n      pop\n        /* \"#utility.yul\":19828:19921   */\n      tag_385\n        /* \"#utility.yul\":19917:19920   */\n      dup3\n        /* \"#utility.yul\":19828:19921   */\n      tag_182\n      jump\t// in\n    tag_385:\n        /* \"#utility.yul\":19946:19948   */\n      0x20\n        /* \"#utility.yul\":19941:19944   */\n      dup3\n        /* \"#utility.yul\":19937:19949   */\n      add\n        /* \"#utility.yul\":19930:19949   */\n      swap1\n      pop\n        /* \"#utility.yul\":19589:19955   */\n      swap2\n      swap1\n      pop\n      jump\t// out\n        /* \"#utility.yul\":19961:20380   */\n    tag_99:\n        /* \"#utility.yul\":20127:20131   */\n      0x00\n        /* \"#utility.yul\":20165:20167   */\n      0x20\n        /* \"#utility.yul\":20154:20163   */\n      dup3\n        /* \"#utility.yul\":20150:20168   */\n      add\n        /* \"#utility.yul\":20142:20168   */\n      swap1\n      pop\n        /* \"#utility.yul\":20214:20223   */\n      dup2\n        /* \"#utility.yul\":20208:20212   */\n      dup2\n        /* \"#utility.yul\":20204:20224   */\n      sub\n        /* \"#utility.yul\":20200:20201   */\n      0x00\n        /* \"#utility.yul\":20189:20198   */\n      dup4\n        /* \"#utility.yul\":20185:20202   */\n      add\n        /* \"#utility.yul\":20178:20225   */\n      mstore\n        /* \"#utility.yul\":20242:20373   */\n      tag_387\n        /* \"#utility.yul\":20368:20372   */\n      dup2\n        /* \"#utility.yul\":20242:20373   */\n      tag_183\n      jump\t// in\n    tag_387:\n        /* \"#utility.yul\":20234:20373   */\n      swap1\n      pop\n        /* \"#utility.yul\":19961:20380   */\n      swap2\n      swap1\n      pop\n      jump\t// out\n        /* \"#utility.yul\":20386:20706   */\n    tag_110:\n        /* \"#utility.yul\":20501:20505   */\n      0x00\n        /* \"#utility.yul\":20539:20541   */\n      0x40\n        /* \"#utility.yul\":20528:20537   */\n      dup3\n        /* \"#utility.yul\":20524:20542   */\n      add\n        /* \"#utility.yul\":20516:20542   */\n      swap1\n      pop\n        /* \"#utility.yul\":20552:20623   */\n      tag_389\n        /* \"#utility.yul\":20620:20621   */\n      0x00\n        /* \"#utility.yul\":20609:20618   */\n      dup4\n        /* \"#utility.yul\":20605:20622   */\n      add\n        /* \"#utility.yul\":20596:20602   */\n      dup6\n        /* \"#utility.yul\":20552:20623   */\n      tag_179\n      jump\t// in\n    tag_389:\n        /* \"#utility.yul\":20633:20699   */\n      tag_390\n        /* \"#utility.yul\":20695:20697   */\n      0x20\n        /* \"#utility.yul\":20684:20693   */\n      dup4\n        /* \"#utility.yul\":20680:20698   */\n      add\n        /* \"#utility.yul\":20671:20677   */\n      dup5\n        /* \"#utility.yul\":20633:20699   */\n      tag_158\n      jump\t// in\n    tag_390:\n        /* \"#utility.yul\":20386:20706   */\n      swap4\n      swap3\n      pop\n      pop\n      pop\n      jump\t// out\n\n    auxdata: 0xa264697066735822122079bbce527637703f0dcd924464ecce12f0d3260f208f5373533aca333da39fe764736f6c63430008180033\n}\n",
				"bytecode": {
					"linkReferences": {},
					"object": "608060405234801561000f575f80fd5b506113fd8061001d5f395ff3fe608060405234801561000f575f80fd5b506004361061007b575f3560e01c806381e941991161005957806381e94199146100d5578063bc8bc2b4146100f1578063c1876bfd14610123578063fb0b86fb1461013f5761007b565b80630709ecf21461007f5780631b7fb2601461009d5780636e3c6738146100b9575b5f80fd5b610087610170565b6040516100949190610b26565b60405180910390f35b6100b760048036038101906100b29190610c83565b610304565b005b6100d360048036038101906100ce9190610d2c565b6103e2565b005b6100ef60048036038101906100ea9190610d57565b610462565b005b61010b60048036038101906101069190610d2c565b610547565b60405161011a93929190610e36565b60405180910390f35b61013d60048036038101906101389190610d2c565b610693565b005b61015960048036038101906101549190610eaf565b6107ab565b604051610167929190610eda565b60405180910390f35b60605f805480602002602001604051908101604052809291908181526020015f905b828210156102fb578382905f5260205f2090600302016040518060600160405290815f820180546101c290610f3c565b80601f01602080910402602001604051908101604052809291908181526020018280546101ee90610f3c565b80156102395780601f1061021057610100808354040283529160200191610239565b820191905f5260205f20905b81548152906001019060200180831161021c57829003601f168201915b5050505050815260200160018201805461025290610f3c565b80601f016020809104026020016040519081016040528092919081815260200182805461027e90610f3c565b80156102c95780601f106102a0576101008083540402835291602001916102c9565b820191905f5260205f20905b8154815290600101906020018083116102ac57829003601f168201915b50505050508152602001600282015f9054906101000a900460ff16151515158152505081526020019060010190610192565b50505050905090565b5f60405180606001604052808481526020018381526020015f1515815250908060018154018082558091505060019003905f5260205f2090600302015f909190919091505f820151815f01908161035b9190611109565b5060208201518160010190816103719190611109565b506040820151816002015f6101000a81548160ff02191690831515021790555050507f961d149d7330635c7a6a92d9ae9c877637052220faf76eaf876fd4742d7b995660015f805490506103c59190611205565b83836040516103d693929190611247565b60405180910390a15050565b5f805490508110610428576040517f08c379a000000000000000000000000000000000000000000000000000000000815260040161041f906112d4565b60405180910390fd5b7f1072e4eeea43a52d09f5b6dfc870a079948f706133840ce9239aebc57fabb65f8160405161045791906112f2565b60405180910390a150565b5f8054905083106104a8576040517f08c379a000000000000000000000000000000000000000000000000000000000815260040161049f906112d4565b60405180910390fd5b815f84815481106104bc576104bb61130b565b5b905f5260205f2090600302015f0190816104d69190611109565b50805f84815481106104eb576104ea61130b565b5b905f5260205f20906003020160010190816105069190611109565b507f46cd94e7c17f1d1dccdf3eaf684569a25cb847ab0b30b0af79d1f2b3a2df21b783838360405161053a93929190611247565b60405180910390a1505050565b5f8181548110610555575f80fd5b905f5260205f2090600302015f91509050805f01805461057490610f3c565b80601f01602080910402602001604051908101604052809291908181526020018280546105a090610f3c565b80156105eb5780601f106105c2576101008083540402835291602001916105eb565b820191905f5260205f20905b8154815290600101906020018083116105ce57829003601f168201915b50505050509080600101805461060090610f3c565b80601f016020809104026020016040519081016040528092919081815260200182805461062c90610f3c565b80156106775780601f1061064e57610100808354040283529160200191610677565b820191905f5260205f20905b81548152906001019060200180831161065a57829003601f168201915b505050505090806002015f9054906101000a900460ff16905083565b5f8054905081106106d9576040517f08c379a00000000000000000000000000000000000000000000000000000000081526004016106d090611382565b60405180910390fd5b5f81815481106106ec576106eb61130b565b5b905f5260205f2090600302016002015f9054906101000a900460ff16155f828154811061071c5761071b61130b565b5b905f5260205f2090600302016002015f6101000a81548160ff0219169083151502179055507fb84a3507a15618a089880b44621cbac93a5991ec03f5e02e0c0b70273f94e71c815f83815481106107765761077561130b565b5b905f5260205f2090600302016002015f9054906101000a900460ff166040516107a09291906113a0565b60405180910390a150565b6060805f805490508360ff16106107f7576040517f08c379a00000000000000000000000000000000000000000000000000000000081526004016107ee90611382565b60405180910390fd5b5f808460ff168154811061080e5761080d61130b565b5b905f5260205f2090600302016040518060600160405290815f8201805461083490610f3c565b80601f016020809104026020016040519081016040528092919081815260200182805461086090610f3c565b80156108ab5780601f10610882576101008083540402835291602001916108ab565b820191905f5260205f20905b81548152906001019060200180831161088e57829003601f168201915b505050505081526020016001820180546108c490610f3c565b80601f01602080910402602001604051908101604052809291908181526020018280546108f090610f3c565b801561093b5780601f106109125761010080835404028352916020019161093b565b820191905f5260205f20905b81548152906001019060200180831161091e57829003601f168201915b50505050508152602001600282015f9054906101000a900460ff1615151515815250509050805f015181602001519250925050915091565b5f81519050919050565b5f82825260208201905092915050565b5f819050602082019050919050565b5f81519050919050565b5f82825260208201905092915050565b5f5b838110156109d35780820151818401526020810190506109b8565b5f8484015250505050565b5f601f19601f8301169050919050565b5f6109f88261099c565b610a0281856109a6565b9350610a128185602086016109b6565b610a1b816109de565b840191505092915050565b5f8115159050919050565b610a3a81610a26565b82525050565b5f606083015f8301518482035f860152610a5a82826109ee565b91505060208301518482036020860152610a7482826109ee565b9150506040830151610a896040860182610a31565b508091505092915050565b5f610a9f8383610a40565b905092915050565b5f602082019050919050565b5f610abd82610973565b610ac7818561097d565b935083602082028501610ad98561098d565b805f5b85811015610b145784840389528151610af58582610a94565b9450610b0083610aa7565b925060208a01995050600181019050610adc565b50829750879550505050505092915050565b5f6020820190508181035f830152610b3e8184610ab3565b905092915050565b5f604051905090565b5f80fd5b5f80fd5b5f80fd5b5f80fd5b7f4e487b71000000000000000000000000000000000000000000000000000000005f52604160045260245ffd5b610b95826109de565b810181811067ffffffffffffffff82111715610bb457610bb3610b5f565b5b80604052505050565b5f610bc6610b46565b9050610bd28282610b8c565b919050565b5f67ffffffffffffffff821115610bf157610bf0610b5f565b5b610bfa826109de565b9050602081019050919050565b828183375f83830152505050565b5f610c27610c2284610bd7565b610bbd565b905082815260208101848484011115610c4357610c42610b5b565b5b610c4e848285610c07565b509392505050565b5f82601f830112610c6a57610c69610b57565b5b8135610c7a848260208601610c15565b91505092915050565b5f8060408385031215610c9957610c98610b4f565b5b5f83013567ffffffffffffffff811115610cb657610cb5610b53565b5b610cc285828601610c56565b925050602083013567ffffffffffffffff811115610ce357610ce2610b53565b5b610cef85828601610c56565b9150509250929050565b5f819050919050565b610d0b81610cf9565b8114610d15575f80fd5b50565b5f81359050610d2681610d02565b92915050565b5f60208284031215610d4157610d40610b4f565b5b5f610d4e84828501610d18565b91505092915050565b5f805f60608486031215610d6e57610d6d610b4f565b5b5f610d7b86828701610d18565b935050602084013567ffffffffffffffff811115610d9c57610d9b610b53565b5b610da886828701610c56565b925050604084013567ffffffffffffffff811115610dc957610dc8610b53565b5b610dd586828701610c56565b9150509250925092565b5f82825260208201905092915050565b5f610df98261099c565b610e038185610ddf565b9350610e138185602086016109b6565b610e1c816109de565b840191505092915050565b610e3081610a26565b82525050565b5f6060820190508181035f830152610e4e8186610def565b90508181036020830152610e628185610def565b9050610e716040830184610e27565b949350505050565b5f60ff82169050919050565b610e8e81610e79565b8114610e98575f80fd5b50565b5f81359050610ea981610e85565b92915050565b5f60208284031215610ec457610ec3610b4f565b5b5f610ed184828501610e9b565b91505092915050565b5f6040820190508181035f830152610ef28185610def565b90508181036020830152610f068184610def565b90509392505050565b7f4e487b71000000000000000000000000000000000000000000000000000000005f52602260045260245ffd5b5f6002820490506001821680610f5357607f821691505b602082108103610f6657610f65610f0f565b5b50919050565b5f819050815f5260205f209050919050565b5f6020601f8301049050919050565b5f82821b905092915050565b5f60088302610fc87fffffffffffffffffffffffffffffffffffffffffffffffffffffffffffffffff82610f8d565b610fd28683610f8d565b95508019841693508086168417925050509392505050565b5f819050919050565b5f61100d61100861100384610cf9565b610fea565b610cf9565b9050919050565b5f819050919050565b61102683610ff3565b61103a61103282611014565b848454610f99565b825550505050565b5f90565b61104e611042565b61105981848461101d565b505050565b5b8181101561107c576110715f82611046565b60018101905061105f565b5050565b601f8211156110c15761109281610f6c565b61109b84610f7e565b810160208510156110aa578190505b6110be6110b685610f7e565b83018261105e565b50505b505050565b5f82821c905092915050565b5f6110e15f19846008026110c6565b1980831691505092915050565b5f6110f983836110d2565b9150826002028217905092915050565b6111128261099c565b67ffffffffffffffff81111561112b5761112a610b5f565b5b6111358254610f3c565b611140828285611080565b5f60209050601f831160018114611171575f841561115f578287015190505b61116985826110ee565b8655506111d0565b601f19841661117f86610f6c565b5f5b828110156111a657848901518255600182019150602085019450602081019050611181565b868310156111c357848901516111bf601f8916826110d2565b8355505b6001600288020188555050505b505050505050565b7f4e487b71000000000000000000000000000000000000000000000000000000005f52601160045260245ffd5b5f61120f82610cf9565b915061121a83610cf9565b9250828203905081811115611232576112316111d8565b5b92915050565b61124181610cf9565b82525050565b5f60608201905061125a5f830186611238565b818103602083015261126c8185610def565b905081810360408301526112808184610def565b9050949350505050565b7f546f646f206974656d206e6f7420666f756e64206f72206578697374696e67215f82015250565b5f6112be602083610ddf565b91506112c98261128a565b602082019050919050565b5f6020820190508181035f8301526112eb816112b2565b9050919050565b5f6020820190506113055f830184611238565b92915050565b7f4e487b71000000000000000000000000000000000000000000000000000000005f52603260045260245ffd5b7f546f646f206974656d206e6f7420666f756e64000000000000000000000000005f82015250565b5f61136c601383610ddf565b915061137782611338565b602082019050919050565b5f6020820190508181035f83015261139981611360565b9050919050565b5f6040820190506113b35f830185611238565b6113c06020830184610e27565b939250505056fea264697066735822122079bbce527637703f0dcd924464ecce12f0d3260f208f5373533aca333da39fe764736f6c63430008180033",
					"opcodes": "PUSH1 0x80 PUSH1 0x40 MSTORE CALLVALUE DUP1 ISZERO PUSH2 0xF JUMPI PUSH0 DUP1 REVERT JUMPDEST POP PUSH2 0x13FD DUP1 PUSH2 0x1D PUSH0 CODECOPY PUSH0 RETURN INVALID PUSH1 0x80 PUSH1 0x40 MSTORE CALLVALUE DUP1 ISZERO PUSH2 0xF JUMPI PUSH0 DUP1 REVERT JUMPDEST POP PUSH1 0x4 CALLDATASIZE LT PUSH2 0x7B JUMPI PUSH0 CALLDATALOAD PUSH1 0xE0 SHR DUP1 PUSH4 0x81E94199 GT PUSH2 0x59 JUMPI DUP1 PUSH4 0x81E94199 EQ PUSH2 0xD5 JUMPI DUP1 PUSH4 0xBC8BC2B4 EQ PUSH2 0xF1 JUMPI DUP1 PUSH4 0xC1876BFD EQ PUSH2 0x123 JUMPI DUP1 PUSH4 0xFB0B86FB EQ PUSH2 0x13F JUMPI PUSH2 0x7B JUMP JUMPDEST DUP1 PUSH4 0x709ECF2 EQ PUSH2 0x7F JUMPI DUP1 PUSH4 0x1B7FB260 EQ PUSH2 0x9D JUMPI DUP1 PUSH4 0x6E3C6738 EQ PUSH2 0xB9 JUMPI JUMPDEST PUSH0 DUP1 REVERT JUMPDEST PUSH2 0x87 PUSH2 0x170 JUMP JUMPDEST PUSH1 0x40 MLOAD PUSH2 0x94 SWAP2 SWAP1 PUSH2 0xB26 JUMP JUMPDEST PUSH1 0x40 MLOAD DUP1 SWAP2 SUB SWAP1 RETURN JUMPDEST PUSH2 0xB7 PUSH1 0x4 DUP1 CALLDATASIZE SUB DUP2 ADD SWAP1 PUSH2 0xB2 SWAP2 SWAP1 PUSH2 0xC83 JUMP JUMPDEST PUSH2 0x304 JUMP JUMPDEST STOP JUMPDEST PUSH2 0xD3 PUSH1 0x4 DUP1 CALLDATASIZE SUB DUP2 ADD SWAP1 PUSH2 0xCE SWAP2 SWAP1 PUSH2 0xD2C JUMP JUMPDEST PUSH2 0x3E2 JUMP JUMPDEST STOP JUMPDEST PUSH2 0xEF PUSH1 0x4 DUP1 CALLDATASIZE SUB DUP2 ADD SWAP1 PUSH2 0xEA SWAP2 SWAP1 PUSH2 0xD57 JUMP JUMPDEST PUSH2 0x462 JUMP JUMPDEST STOP JUMPDEST PUSH2 0x10B PUSH1 0x4 DUP1 CALLDATASIZE SUB DUP2 ADD SWAP1 PUSH2 0x106 SWAP2 SWAP1 PUSH2 0xD2C JUMP JUMPDEST PUSH2 0x547 JUMP JUMPDEST PUSH1 0x40 MLOAD PUSH2 0x11A SWAP4 SWAP3 SWAP2 SWAP1 PUSH2 0xE36 JUMP JUMPDEST PUSH1 0x40 MLOAD DUP1 SWAP2 SUB SWAP1 RETURN JUMPDEST PUSH2 0x13D PUSH1 0x4 DUP1 CALLDATASIZE SUB DUP2 ADD SWAP1 PUSH2 0x138 SWAP2 SWAP1 PUSH2 0xD2C JUMP JUMPDEST PUSH2 0x693 JUMP JUMPDEST STOP JUMPDEST PUSH2 0x159 PUSH1 0x4 DUP1 CALLDATASIZE SUB DUP2 ADD SWAP1 PUSH2 0x154 SWAP2 SWAP1 PUSH2 0xEAF JUMP JUMPDEST PUSH2 0x7AB JUMP JUMPDEST PUSH1 0x40 MLOAD PUSH2 0x167 SWAP3 SWAP2 SWAP1 PUSH2 0xEDA JUMP JUMPDEST PUSH1 0x40 MLOAD DUP1 SWAP2 SUB SWAP1 RETURN JUMPDEST PUSH1 0x60 PUSH0 DUP1 SLOAD DUP1 PUSH1 0x20 MUL PUSH1 0x20 ADD PUSH1 0x40 MLOAD SWAP1 DUP2 ADD PUSH1 0x40 MSTORE DUP1 SWAP3 SWAP2 SWAP1 DUP2 DUP2 MSTORE PUSH1 0x20 ADD PUSH0 SWAP1 JUMPDEST DUP3 DUP3 LT ISZERO PUSH2 0x2FB JUMPI DUP4 DUP3 SWAP1 PUSH0 MSTORE PUSH1 0x20 PUSH0 KECCAK256 SWAP1 PUSH1 0x3 MUL ADD PUSH1 0x40 MLOAD DUP1 PUSH1 0x60 ADD PUSH1 0x40 MSTORE SWAP1 DUP2 PUSH0 DUP3 ADD DUP1 SLOAD PUSH2 0x1C2 SWAP1 PUSH2 0xF3C JUMP JUMPDEST DUP1 PUSH1 0x1F ADD PUSH1 0x20 DUP1 SWAP2 DIV MUL PUSH1 0x20 ADD PUSH1 0x40 MLOAD SWAP1 DUP2 ADD PUSH1 0x40 MSTORE DUP1 SWAP3 SWAP2 SWAP1 DUP2 DUP2 MSTORE PUSH1 0x20 ADD DUP3 DUP1 SLOAD PUSH2 0x1EE SWAP1 PUSH2 0xF3C JUMP JUMPDEST DUP1 ISZERO PUSH2 0x239 JUMPI DUP1 PUSH1 0x1F LT PUSH2 0x210 JUMPI PUSH2 0x100 DUP1 DUP4 SLOAD DIV MUL DUP4 MSTORE SWAP2 PUSH1 0x20 ADD SWAP2 PUSH2 0x239 JUMP JUMPDEST DUP3 ADD SWAP2 SWAP1 PUSH0 MSTORE PUSH1 0x20 PUSH0 KECCAK256 SWAP1 JUMPDEST DUP2 SLOAD DUP2 MSTORE SWAP1 PUSH1 0x1 ADD SWAP1 PUSH1 0x20 ADD DUP1 DUP4 GT PUSH2 0x21C JUMPI DUP3 SWAP1 SUB PUSH1 0x1F AND DUP3 ADD SWAP2 JUMPDEST POP POP POP POP POP DUP2 MSTORE PUSH1 0x20 ADD PUSH1 0x1 DUP3 ADD DUP1 SLOAD PUSH2 0x252 SWAP1 PUSH2 0xF3C JUMP JUMPDEST DUP1 PUSH1 0x1F ADD PUSH1 0x20 DUP1 SWAP2 DIV MUL PUSH1 0x20 ADD PUSH1 0x40 MLOAD SWAP1 DUP2 ADD PUSH1 0x40 MSTORE DUP1 SWAP3 SWAP2 SWAP1 DUP2 DUP2 MSTORE PUSH1 0x20 ADD DUP3 DUP1 SLOAD PUSH2 0x27E SWAP1 PUSH2 0xF3C JUMP JUMPDEST DUP1 ISZERO PUSH2 0x2C9 JUMPI DUP1 PUSH1 0x1F LT PUSH2 0x2A0 JUMPI PUSH2 0x100 DUP1 DUP4 SLOAD DIV MUL DUP4 MSTORE SWAP2 PUSH1 0x20 ADD SWAP2 PUSH2 0x2C9 JUMP JUMPDEST DUP3 ADD SWAP2 SWAP1 PUSH0 MSTORE PUSH1 0x20 PUSH0 KECCAK256 SWAP1 JUMPDEST DUP2 SLOAD DUP2 MSTORE SWAP1 PUSH1 0x1 ADD SWAP1 PUSH1 0x20 ADD DUP1 DUP4 GT PUSH2 0x2AC JUMPI DUP3 SWAP1 SUB PUSH1 0x1F AND DUP3 ADD SWAP2 JUMPDEST POP POP POP POP POP DUP2 MSTORE PUSH1 0x20 ADD PUSH1 0x2 DUP3 ADD PUSH0 SWAP1 SLOAD SWAP1 PUSH2 0x100 EXP SWAP1 DIV PUSH1 0xFF AND ISZERO ISZERO ISZERO ISZERO DUP2 MSTORE POP POP DUP2 MSTORE PUSH1 0x20 ADD SWAP1 PUSH1 0x1 ADD SWAP1 PUSH2 0x192 JUMP JUMPDEST POP POP POP POP SWAP1 POP SWAP1 JUMP JUMPDEST PUSH0 PUSH1 0x40 MLOAD DUP1 PUSH1 0x60 ADD PUSH1 0x40 MSTORE DUP1 DUP5 DUP2 MSTORE PUSH1 0x20 ADD DUP4 DUP2 MSTORE PUSH1 0x20 ADD PUSH0 ISZERO ISZERO DUP2 MSTORE POP SWAP1 DUP1 PUSH1 0x1 DUP2 SLOAD ADD DUP1 DUP3 SSTORE DUP1 SWAP2 POP POP PUSH1 0x1 SWAP1 SUB SWAP1 PUSH0 MSTORE PUSH1 0x20 PUSH0 KECCAK256 SWAP1 PUSH1 0x3 MUL ADD PUSH0 SWAP1 SWAP2 SWAP1 SWAP2 SWAP1 SWAP2 POP PUSH0 DUP3 ADD MLOAD DUP2 PUSH0 ADD SWAP1 DUP2 PUSH2 0x35B SWAP2 SWAP1 PUSH2 0x1109 JUMP JUMPDEST POP PUSH1 0x20 DUP3 ADD MLOAD DUP2 PUSH1 0x1 ADD SWAP1 DUP2 PUSH2 0x371 SWAP2 SWAP1 PUSH2 0x1109 JUMP JUMPDEST POP PUSH1 0x40 DUP3 ADD MLOAD DUP2 PUSH1 0x2 ADD PUSH0 PUSH2 0x100 EXP DUP2 SLOAD DUP2 PUSH1 0xFF MUL NOT AND SWAP1 DUP4 ISZERO ISZERO MUL OR SWAP1 SSTORE POP POP POP PUSH32 0x961D149D7330635C7A6A92D9AE9C877637052220FAF76EAF876FD4742D7B9956 PUSH1 0x1 PUSH0 DUP1 SLOAD SWAP1 POP PUSH2 0x3C5 SWAP2 SWAP1 PUSH2 0x1205 JUMP JUMPDEST DUP4 DUP4 PUSH1 0x40 MLOAD PUSH2 0x3D6 SWAP4 SWAP3 SWAP2 SWAP1 PUSH2 0x1247 JUMP JUMPDEST PUSH1 0x40 MLOAD DUP1 SWAP2 SUB SWAP1 LOG1 POP POP JUMP JUMPDEST PUSH0 DUP1 SLOAD SWAP1 POP DUP2 LT PUSH2 0x428 JUMPI PUSH1 0x40 MLOAD PUSH32 0x8C379A000000000000000000000000000000000000000000000000000000000 DUP2 MSTORE PUSH1 0x4 ADD PUSH2 0x41F SWAP1 PUSH2 0x12D4 JUMP JUMPDEST PUSH1 0x40 MLOAD DUP1 SWAP2 SUB SWAP1 REVERT JUMPDEST PUSH32 0x1072E4EEEA43A52D09F5B6DFC870A079948F706133840CE9239AEBC57FABB65F DUP2 PUSH1 0x40 MLOAD PUSH2 0x457 SWAP2 SWAP1 PUSH2 0x12F2 JUMP JUMPDEST PUSH1 0x40 MLOAD DUP1 SWAP2 SUB SWAP1 LOG1 POP JUMP JUMPDEST PUSH0 DUP1 SLOAD SWAP1 POP DUP4 LT PUSH2 0x4A8 JUMPI PUSH1 0x40 MLOAD PUSH32 0x8C379A000000000000000000000000000000000000000000000000000000000 DUP2 MSTORE PUSH1 0x4 ADD PUSH2 0x49F SWAP1 PUSH2 0x12D4 JUMP JUMPDEST PUSH1 0x40 MLOAD DUP1 SWAP2 SUB SWAP1 REVERT JUMPDEST DUP2 PUSH0 DUP5 DUP2 SLOAD DUP2 LT PUSH2 0x4BC JUMPI PUSH2 0x4BB PUSH2 0x130B JUMP JUMPDEST JUMPDEST SWAP1 PUSH0 MSTORE PUSH1 0x20 PUSH0 KECCAK256 SWAP1 PUSH1 0x3 MUL ADD PUSH0 ADD SWAP1 DUP2 PUSH2 0x4D6 SWAP2 SWAP1 PUSH2 0x1109 JUMP JUMPDEST POP DUP1 PUSH0 DUP5 DUP2 SLOAD DUP2 LT PUSH2 0x4EB JUMPI PUSH2 0x4EA PUSH2 0x130B JUMP JUMPDEST JUMPDEST SWAP1 PUSH0 MSTORE PUSH1 0x20 PUSH0 KECCAK256 SWAP1 PUSH1 0x3 MUL ADD PUSH1 0x1 ADD SWAP1 DUP2 PUSH2 0x506 SWAP2 SWAP1 PUSH2 0x1109 JUMP JUMPDEST POP PUSH32 0x46CD94E7C17F1D1DCCDF3EAF684569A25CB847AB0B30B0AF79D1F2B3A2DF21B7 DUP4 DUP4 DUP4 PUSH1 0x40 MLOAD PUSH2 0x53A SWAP4 SWAP3 SWAP2 SWAP1 PUSH2 0x1247 JUMP JUMPDEST PUSH1 0x40 MLOAD DUP1 SWAP2 SUB SWAP1 LOG1 POP POP POP JUMP JUMPDEST PUSH0 DUP2 DUP2 SLOAD DUP2 LT PUSH2 0x555 JUMPI PUSH0 DUP1 REVERT JUMPDEST SWAP1 PUSH0 MSTORE PUSH1 0x20 PUSH0 KECCAK256 SWAP1 PUSH1 0x3 MUL ADD PUSH0 SWAP2 POP SWAP1 POP DUP1 PUSH0 ADD DUP1 SLOAD PUSH2 0x574 SWAP1 PUSH2 0xF3C JUMP JUMPDEST DUP1 PUSH1 0x1F ADD PUSH1 0x20 DUP1 SWAP2 DIV MUL PUSH1 0x20 ADD PUSH1 0x40 MLOAD SWAP1 DUP2 ADD PUSH1 0x40 MSTORE DUP1 SWAP3 SWAP2 SWAP1 DUP2 DUP2 MSTORE PUSH1 0x20 ADD DUP3 DUP1 SLOAD PUSH2 0x5A0 SWAP1 PUSH2 0xF3C JUMP JUMPDEST DUP1 ISZERO PUSH2 0x5EB JUMPI DUP1 PUSH1 0x1F LT PUSH2 0x5C2 JUMPI PUSH2 0x100 DUP1 DUP4 SLOAD DIV MUL DUP4 MSTORE SWAP2 PUSH1 0x20 ADD SWAP2 PUSH2 0x5EB JUMP JUMPDEST DUP3 ADD SWAP2 SWAP1 PUSH0 MSTORE PUSH1 0x20 PUSH0 KECCAK256 SWAP1 JUMPDEST DUP2 SLOAD DUP2 MSTORE SWAP1 PUSH1 0x1 ADD SWAP1 PUSH1 0x20 ADD DUP1 DUP4 GT PUSH2 0x5CE JUMPI DUP3 SWAP1 SUB PUSH1 0x1F AND DUP3 ADD SWAP2 JUMPDEST POP POP POP POP POP SWAP1 DUP1 PUSH1 0x1 ADD DUP1 SLOAD PUSH2 0x600 SWAP1 PUSH2 0xF3C JUMP JUMPDEST DUP1 PUSH1 0x1F ADD PUSH1 0x20 DUP1 SWAP2 DIV MUL PUSH1 0x20 ADD PUSH1 0x40 MLOAD SWAP1 DUP2 ADD PUSH1 0x40 MSTORE DUP1 SWAP3 SWAP2 SWAP1 DUP2 DUP2 MSTORE PUSH1 0x20 ADD DUP3 DUP1 SLOAD PUSH2 0x62C SWAP1 PUSH2 0xF3C JUMP JUMPDEST DUP1 ISZERO PUSH2 0x677 JUMPI DUP1 PUSH1 0x1F LT PUSH2 0x64E JUMPI PUSH2 0x100 DUP1 DUP4 SLOAD DIV MUL DUP4 MSTORE SWAP2 PUSH1 0x20 ADD SWAP2 PUSH2 0x677 JUMP JUMPDEST DUP3 ADD SWAP2 SWAP1 PUSH0 MSTORE PUSH1 0x20 PUSH0 KECCAK256 SWAP1 JUMPDEST DUP2 SLOAD DUP2 MSTORE SWAP1 PUSH1 0x1 ADD SWAP1 PUSH1 0x20 ADD DUP1 DUP4 GT PUSH2 0x65A JUMPI DUP3 SWAP1 SUB PUSH1 0x1F AND DUP3 ADD SWAP2 JUMPDEST POP POP POP POP POP SWAP1 DUP1 PUSH1 0x2 ADD PUSH0 SWAP1 SLOAD SWAP1 PUSH2 0x100 EXP SWAP1 DIV PUSH1 0xFF AND SWAP1 POP DUP4 JUMP JUMPDEST PUSH0 DUP1 SLOAD SWAP1 POP DUP2 LT PUSH2 0x6D9 JUMPI PUSH1 0x40 MLOAD PUSH32 0x8C379A000000000000000000000000000000000000000000000000000000000 DUP2 MSTORE PUSH1 0x4 ADD PUSH2 0x6D0 SWAP1 PUSH2 0x1382 JUMP JUMPDEST PUSH1 0x40 MLOAD DUP1 SWAP2 SUB SWAP1 REVERT JUMPDEST PUSH0 DUP2 DUP2 SLOAD DUP2 LT PUSH2 0x6EC JUMPI PUSH2 0x6EB PUSH2 0x130B JUMP JUMPDEST JUMPDEST SWAP1 PUSH0 MSTORE PUSH1 0x20 PUSH0 KECCAK256 SWAP1 PUSH1 0x3 MUL ADD PUSH1 0x2 ADD PUSH0 SWAP1 SLOAD SWAP1 PUSH2 0x100 EXP SWAP1 DIV PUSH1 0xFF AND ISZERO PUSH0 DUP3 DUP2 SLOAD DUP2 LT PUSH2 0x71C JUMPI PUSH2 0x71B PUSH2 0x130B JUMP JUMPDEST JUMPDEST SWAP1 PUSH0 MSTORE PUSH1 0x20 PUSH0 KECCAK256 SWAP1 PUSH1 0x3 MUL ADD PUSH1 0x2 ADD PUSH0 PUSH2 0x100 EXP DUP2 SLOAD DUP2 PUSH1 0xFF MUL NOT AND SWAP1 DUP4 ISZERO ISZERO MUL OR SWAP1 SSTORE POP PUSH32 0xB84A3507A15618A089880B44621CBAC93A5991EC03F5E02E0C0B70273F94E71C DUP2 PUSH0 DUP4 DUP2 SLOAD DUP2 LT PUSH2 0x776 JUMPI PUSH2 0x775 PUSH2 0x130B JUMP JUMPDEST JUMPDEST SWAP1 PUSH0 MSTORE PUSH1 0x20 PUSH0 KECCAK256 SWAP1 PUSH1 0x3 MUL ADD PUSH1 0x2 ADD PUSH0 SWAP1 SLOAD SWAP1 PUSH2 0x100 EXP SWAP1 DIV PUSH1 0xFF AND PUSH1 0x40 MLOAD PUSH2 0x7A0 SWAP3 SWAP2 SWAP1 PUSH2 0x13A0 JUMP JUMPDEST PUSH1 0x40 MLOAD DUP1 SWAP2 SUB SWAP1 LOG1 POP JUMP JUMPDEST PUSH1 0x60 DUP1 PUSH0 DUP1 SLOAD SWAP1 POP DUP4 PUSH1 0xFF AND LT PUSH2 0x7F7 JUMPI PUSH1 0x40 MLOAD PUSH32 0x8C379A000000000000000000000000000000000000000000000000000000000 DUP2 MSTORE PUSH1 0x4 ADD PUSH2 0x7EE SWAP1 PUSH2 0x1382 JUMP JUMPDEST PUSH1 0x40 MLOAD DUP1 SWAP2 SUB SWAP1 REVERT JUMPDEST PUSH0 DUP1 DUP5 PUSH1 0xFF AND DUP2 SLOAD DUP2 LT PUSH2 0x80E JUMPI PUSH2 0x80D PUSH2 0x130B JUMP JUMPDEST JUMPDEST SWAP1 PUSH0 MSTORE PUSH1 0x20 PUSH0 KECCAK256 SWAP1 PUSH1 0x3 MUL ADD PUSH1 0x40 MLOAD DUP1 PUSH1 0x60 ADD PUSH1 0x40 MSTORE SWAP1 DUP2 PUSH0 DUP3 ADD DUP1 SLOAD PUSH2 0x834 SWAP1 PUSH2 0xF3C JUMP JUMPDEST DUP1 PUSH1 0x1F ADD PUSH1 0x20 DUP1 SWAP2 DIV MUL PUSH1 0x20 ADD PUSH1 0x40 MLOAD SWAP1 DUP2 ADD PUSH1 0x40 MSTORE DUP1 SWAP3 SWAP2 SWAP1 DUP2 DUP2 MSTORE PUSH1 0x20 ADD DUP3 DUP1 SLOAD PUSH2 0x860 SWAP1 PUSH2 0xF3C JUMP JUMPDEST DUP1 ISZERO PUSH2 0x8AB JUMPI DUP1 PUSH1 0x1F LT PUSH2 0x882 JUMPI PUSH2 0x100 DUP1 DUP4 SLOAD DIV MUL DUP4 MSTORE SWAP2 PUSH1 0x20 ADD SWAP2 PUSH2 0x8AB JUMP JUMPDEST DUP3 ADD SWAP2 SWAP1 PUSH0 MSTORE PUSH1 0x20 PUSH0 KECCAK256 SWAP1 JUMPDEST DUP2 SLOAD DUP2 MSTORE SWAP1 PUSH1 0x1 ADD SWAP1 PUSH1 0x20 ADD DUP1 DUP4 GT PUSH2 0x88E JUMPI DUP3 SWAP1 SUB PUSH1 0x1F AND DUP3 ADD SWAP2 JUMPDEST POP POP POP POP POP DUP2 MSTORE PUSH1 0x20 ADD PUSH1 0x1 DUP3 ADD DUP1 SLOAD PUSH2 0x8C4 SWAP1 PUSH2 0xF3C JUMP JUMPDEST DUP1 PUSH1 0x1F ADD PUSH1 0x20 DUP1 SWAP2 DIV MUL PUSH1 0x20 ADD PUSH1 0x40 MLOAD SWAP1 DUP2 ADD PUSH1 0x40 MSTORE DUP1 SWAP3 SWAP2 SWAP1 DUP2 DUP2 MSTORE PUSH1 0x20 ADD DUP3 DUP1 SLOAD PUSH2 0x8F0 SWAP1 PUSH2 0xF3C JUMP JUMPDEST DUP1 ISZERO PUSH2 0x93B JUMPI DUP1 PUSH1 0x1F LT PUSH2 0x912 JUMPI PUSH2 0x100 DUP1 DUP4 SLOAD DIV MUL DUP4 MSTORE SWAP2 PUSH1 0x20 ADD SWAP2 PUSH2 0x93B JUMP JUMPDEST DUP3 ADD SWAP2 SWAP1 PUSH0 MSTORE PUSH1 0x20 PUSH0 KECCAK256 SWAP1 JUMPDEST DUP2 SLOAD DUP2 MSTORE SWAP1 PUSH1 0x1 ADD SWAP1 PUSH1 0x20 ADD DUP1 DUP4 GT PUSH2 0x91E JUMPI DUP3 SWAP1 SUB PUSH1 0x1F AND DUP3 ADD SWAP2 JUMPDEST POP POP POP POP POP DUP2 MSTORE PUSH1 0x20 ADD PUSH1 0x2 DUP3 ADD PUSH0 SWAP1 SLOAD SWAP1 PUSH2 0x100 EXP SWAP1 DIV PUSH1 0xFF AND ISZERO ISZERO ISZERO ISZERO DUP2 MSTORE POP POP SWAP1 POP DUP1 PUSH0 ADD MLOAD DUP2 PUSH1 0x20 ADD MLOAD SWAP3 POP SWAP3 POP POP SWAP2 POP SWAP2 JUMP JUMPDEST PUSH0 DUP2 MLOAD SWAP1 POP SWAP2 SWAP1 POP JUMP JUMPDEST PUSH0 DUP3 DUP3 MSTORE PUSH1 0x20 DUP3 ADD SWAP1 POP SWAP3 SWAP2 POP POP JUMP JUMPDEST PUSH0 DUP2 SWAP1 POP PUSH1 0x20 DUP3 ADD SWAP1 POP SWAP2 SWAP1 POP JUMP JUMPDEST PUSH0 DUP2 MLOAD SWAP1 POP SWAP2 SWAP1 POP JUMP JUMPDEST PUSH0 DUP3 DUP3 MSTORE PUSH1 0x20 DUP3 ADD SWAP1 POP SWAP3 SWAP2 POP POP JUMP JUMPDEST PUSH0 JUMPDEST DUP4 DUP2 LT ISZERO PUSH2 0x9D3 JUMPI DUP1 DUP3 ADD MLOAD DUP2 DUP5 ADD MSTORE PUSH1 0x20 DUP2 ADD SWAP1 POP PUSH2 0x9B8 JUMP JUMPDEST PUSH0 DUP5 DUP5 ADD MSTORE POP POP POP POP JUMP JUMPDEST PUSH0 PUSH1 0x1F NOT PUSH1 0x1F DUP4 ADD AND SWAP1 POP SWAP2 SWAP1 POP JUMP JUMPDEST PUSH0 PUSH2 0x9F8 DUP3 PUSH2 0x99C JUMP JUMPDEST PUSH2 0xA02 DUP2 DUP6 PUSH2 0x9A6 JUMP JUMPDEST SWAP4 POP PUSH2 0xA12 DUP2 DUP6 PUSH1 0x20 DUP7 ADD PUSH2 0x9B6 JUMP JUMPDEST PUSH2 0xA1B DUP2 PUSH2 0x9DE JUMP JUMPDEST DUP5 ADD SWAP2 POP POP SWAP3 SWAP2 POP POP JUMP JUMPDEST PUSH0 DUP2 ISZERO ISZERO SWAP1 POP SWAP2 SWAP1 POP JUMP JUMPDEST PUSH2 0xA3A DUP2 PUSH2 0xA26 JUMP JUMPDEST DUP3 MSTORE POP POP JUMP JUMPDEST PUSH0 PUSH1 0x60 DUP4 ADD PUSH0 DUP4 ADD MLOAD DUP5 DUP3 SUB PUSH0 DUP7 ADD MSTORE PUSH2 0xA5A DUP3 DUP3 PUSH2 0x9EE JUMP JUMPDEST SWAP2 POP POP PUSH1 0x20 DUP4 ADD MLOAD DUP5 DUP3 SUB PUSH1 0x20 DUP7 ADD MSTORE PUSH2 0xA74 DUP3 DUP3 PUSH2 0x9EE JUMP JUMPDEST SWAP2 POP POP PUSH1 0x40 DUP4 ADD MLOAD PUSH2 0xA89 PUSH1 0x40 DUP7 ADD DUP3 PUSH2 0xA31 JUMP JUMPDEST POP DUP1 SWAP2 POP POP SWAP3 SWAP2 POP POP JUMP JUMPDEST PUSH0 PUSH2 0xA9F DUP4 DUP4 PUSH2 0xA40 JUMP JUMPDEST SWAP1 POP SWAP3 SWAP2 POP POP JUMP JUMPDEST PUSH0 PUSH1 0x20 DUP3 ADD SWAP1 POP SWAP2 SWAP1 POP JUMP JUMPDEST PUSH0 PUSH2 0xABD DUP3 PUSH2 0x973 JUMP JUMPDEST PUSH2 0xAC7 DUP2 DUP6 PUSH2 0x97D JUMP JUMPDEST SWAP4 POP DUP4 PUSH1 0x20 DUP3 MUL DUP6 ADD PUSH2 0xAD9 DUP6 PUSH2 0x98D JUMP JUMPDEST DUP1 PUSH0 JUMPDEST DUP6 DUP2 LT ISZERO PUSH2 0xB14 JUMPI DUP5 DUP5 SUB DUP10 MSTORE DUP2 MLOAD PUSH2 0xAF5 DUP6 DUP3 PUSH2 0xA94 JUMP JUMPDEST SWAP5 POP PUSH2 0xB00 DUP4 PUSH2 0xAA7 JUMP JUMPDEST SWAP3 POP PUSH1 0x20 DUP11 ADD SWAP10 POP POP PUSH1 0x1 DUP2 ADD SWAP1 POP PUSH2 0xADC JUMP JUMPDEST POP DUP3 SWAP8 POP DUP8 SWAP6 POP POP POP POP POP POP SWAP3 SWAP2 POP POP JUMP JUMPDEST PUSH0 PUSH1 0x20 DUP3 ADD SWAP1 POP DUP2 DUP2 SUB PUSH0 DUP4 ADD MSTORE PUSH2 0xB3E DUP2 DUP5 PUSH2 0xAB3 JUMP JUMPDEST SWAP1 POP SWAP3 SWAP2 POP POP JUMP JUMPDEST PUSH0 PUSH1 0x40 MLOAD SWAP1 POP SWAP1 JUMP JUMPDEST PUSH0 DUP1 REVERT JUMPDEST PUSH0 DUP1 REVERT JUMPDEST PUSH0 DUP1 REVERT JUMPDEST PUSH0 DUP1 REVERT JUMPDEST PUSH32 0x4E487B7100000000000000000000000000000000000000000000000000000000 PUSH0 MSTORE PUSH1 0x41 PUSH1 0x4 MSTORE PUSH1 0x24 PUSH0 REVERT JUMPDEST PUSH2 0xB95 DUP3 PUSH2 0x9DE JUMP JUMPDEST DUP2 ADD DUP2 DUP2 LT PUSH8 0xFFFFFFFFFFFFFFFF DUP3 GT OR ISZERO PUSH2 0xBB4 JUMPI PUSH2 0xBB3 PUSH2 0xB5F JUMP JUMPDEST JUMPDEST DUP1 PUSH1 0x40 MSTORE POP POP POP JUMP JUMPDEST PUSH0 PUSH2 0xBC6 PUSH2 0xB46 JUMP JUMPDEST SWAP1 POP PUSH2 0xBD2 DUP3 DUP3 PUSH2 0xB8C JUMP JUMPDEST SWAP2 SWAP1 POP JUMP JUMPDEST PUSH0 PUSH8 0xFFFFFFFFFFFFFFFF DUP3 GT ISZERO PUSH2 0xBF1 JUMPI PUSH2 0xBF0 PUSH2 0xB5F JUMP JUMPDEST JUMPDEST PUSH2 0xBFA DUP3 PUSH2 0x9DE JUMP JUMPDEST SWAP1 POP PUSH1 0x20 DUP2 ADD SWAP1 POP SWAP2 SWAP1 POP JUMP JUMPDEST DUP3 DUP2 DUP4 CALLDATACOPY PUSH0 DUP4 DUP4 ADD MSTORE POP POP POP JUMP JUMPDEST PUSH0 PUSH2 0xC27 PUSH2 0xC22 DUP5 PUSH2 0xBD7 JUMP JUMPDEST PUSH2 0xBBD JUMP JUMPDEST SWAP1 POP DUP3 DUP2 MSTORE PUSH1 0x20 DUP2 ADD DUP5 DUP5 DUP5 ADD GT ISZERO PUSH2 0xC43 JUMPI PUSH2 0xC42 PUSH2 0xB5B JUMP JUMPDEST JUMPDEST PUSH2 0xC4E DUP5 DUP3 DUP6 PUSH2 0xC07 JUMP JUMPDEST POP SWAP4 SWAP3 POP POP POP JUMP JUMPDEST PUSH0 DUP3 PUSH1 0x1F DUP4 ADD SLT PUSH2 0xC6A JUMPI PUSH2 0xC69 PUSH2 0xB57 JUMP JUMPDEST JUMPDEST DUP2 CALLDATALOAD PUSH2 0xC7A DUP5 DUP3 PUSH1 0x20 DUP7 ADD PUSH2 0xC15 JUMP JUMPDEST SWAP2 POP POP SWAP3 SWAP2 POP POP JUMP JUMPDEST PUSH0 DUP1 PUSH1 0x40 DUP4 DUP6 SUB SLT ISZERO PUSH2 0xC99 JUMPI PUSH2 0xC98 PUSH2 0xB4F JUMP JUMPDEST JUMPDEST PUSH0 DUP4 ADD CALLDATALOAD PUSH8 0xFFFFFFFFFFFFFFFF DUP2 GT ISZERO PUSH2 0xCB6 JUMPI PUSH2 0xCB5 PUSH2 0xB53 JUMP JUMPDEST JUMPDEST PUSH2 0xCC2 DUP6 DUP3 DUP7 ADD PUSH2 0xC56 JUMP JUMPDEST SWAP3 POP POP PUSH1 0x20 DUP4 ADD CALLDATALOAD PUSH8 0xFFFFFFFFFFFFFFFF DUP2 GT ISZERO PUSH2 0xCE3 JUMPI PUSH2 0xCE2 PUSH2 0xB53 JUMP JUMPDEST JUMPDEST PUSH2 0xCEF DUP6 DUP3 DUP7 ADD PUSH2 0xC56 JUMP JUMPDEST SWAP2 POP POP SWAP3 POP SWAP3 SWAP1 POP JUMP JUMPDEST PUSH0 DUP2 SWAP1 POP SWAP2 SWAP1 POP JUMP JUMPDEST PUSH2 0xD0B DUP2 PUSH2 0xCF9 JUMP JUMPDEST DUP2 EQ PUSH2 0xD15 JUMPI PUSH0 DUP1 REVERT JUMPDEST POP JUMP JUMPDEST PUSH0 DUP2 CALLDATALOAD SWAP1 POP PUSH2 0xD26 DUP2 PUSH2 0xD02 JUMP JUMPDEST SWAP3 SWAP2 POP POP JUMP JUMPDEST PUSH0 PUSH1 0x20 DUP3 DUP5 SUB SLT ISZERO PUSH2 0xD41 JUMPI PUSH2 0xD40 PUSH2 0xB4F JUMP JUMPDEST JUMPDEST PUSH0 PUSH2 0xD4E DUP5 DUP3 DUP6 ADD PUSH2 0xD18 JUMP JUMPDEST SWAP2 POP POP SWAP3 SWAP2 POP POP JUMP JUMPDEST PUSH0 DUP1 PUSH0 PUSH1 0x60 DUP5 DUP7 SUB SLT ISZERO PUSH2 0xD6E JUMPI PUSH2 0xD6D PUSH2 0xB4F JUMP JUMPDEST JUMPDEST PUSH0 PUSH2 0xD7B DUP7 DUP3 DUP8 ADD PUSH2 0xD18 JUMP JUMPDEST SWAP4 POP POP PUSH1 0x20 DUP5 ADD CALLDATALOAD PUSH8 0xFFFFFFFFFFFFFFFF DUP2 GT ISZERO PUSH2 0xD9C JUMPI PUSH2 0xD9B PUSH2 0xB53 JUMP JUMPDEST JUMPDEST PUSH2 0xDA8 DUP7 DUP3 DUP8 ADD PUSH2 0xC56 JUMP JUMPDEST SWAP3 POP POP PUSH1 0x40 DUP5 ADD CALLDATALOAD PUSH8 0xFFFFFFFFFFFFFFFF DUP2 GT ISZERO PUSH2 0xDC9 JUMPI PUSH2 0xDC8 PUSH2 0xB53 JUMP JUMPDEST JUMPDEST PUSH2 0xDD5 DUP7 DUP3 DUP8 ADD PUSH2 0xC56 JUMP JUMPDEST SWAP2 POP POP SWAP3 POP SWAP3 POP SWAP3 JUMP JUMPDEST PUSH0 DUP3 DUP3 MSTORE PUSH1 0x20 DUP3 ADD SWAP1 POP SWAP3 SWAP2 POP POP JUMP JUMPDEST PUSH0 PUSH2 0xDF9 DUP3 PUSH2 0x99C JUMP JUMPDEST PUSH2 0xE03 DUP2 DUP6 PUSH2 0xDDF JUMP JUMPDEST SWAP4 POP PUSH2 0xE13 DUP2 DUP6 PUSH1 0x20 DUP7 ADD PUSH2 0x9B6 JUMP JUMPDEST PUSH2 0xE1C DUP2 PUSH2 0x9DE JUMP JUMPDEST DUP5 ADD SWAP2 POP POP SWAP3 SWAP2 POP POP JUMP JUMPDEST PUSH2 0xE30 DUP2 PUSH2 0xA26 JUMP JUMPDEST DUP3 MSTORE POP POP JUMP JUMPDEST PUSH0 PUSH1 0x60 DUP3 ADD SWAP1 POP DUP2 DUP2 SUB PUSH0 DUP4 ADD MSTORE PUSH2 0xE4E DUP2 DUP7 PUSH2 0xDEF JUMP JUMPDEST SWAP1 POP DUP2 DUP2 SUB PUSH1 0x20 DUP4 ADD MSTORE PUSH2 0xE62 DUP2 DUP6 PUSH2 0xDEF JUMP JUMPDEST SWAP1 POP PUSH2 0xE71 PUSH1 0x40 DUP4 ADD DUP5 PUSH2 0xE27 JUMP JUMPDEST SWAP5 SWAP4 POP POP POP POP JUMP JUMPDEST PUSH0 PUSH1 0xFF DUP3 AND SWAP1 POP SWAP2 SWAP1 POP JUMP JUMPDEST PUSH2 0xE8E DUP2 PUSH2 0xE79 JUMP JUMPDEST DUP2 EQ PUSH2 0xE98 JUMPI PUSH0 DUP1 REVERT JUMPDEST POP JUMP JUMPDEST PUSH0 DUP2 CALLDATALOAD SWAP1 POP PUSH2 0xEA9 DUP2 PUSH2 0xE85 JUMP JUMPDEST SWAP3 SWAP2 POP POP JUMP JUMPDEST PUSH0 PUSH1 0x20 DUP3 DUP5 SUB SLT ISZERO PUSH2 0xEC4 JUMPI PUSH2 0xEC3 PUSH2 0xB4F JUMP JUMPDEST JUMPDEST PUSH0 PUSH2 0xED1 DUP5 DUP3 DUP6 ADD PUSH2 0xE9B JUMP JUMPDEST SWAP2 POP POP SWAP3 SWAP2 POP POP JUMP JUMPDEST PUSH0 PUSH1 0x40 DUP3 ADD SWAP1 POP DUP2 DUP2 SUB PUSH0 DUP4 ADD MSTORE PUSH2 0xEF2 DUP2 DUP6 PUSH2 0xDEF JUMP JUMPDEST SWAP1 POP DUP2 DUP2 SUB PUSH1 0x20 DUP4 ADD MSTORE PUSH2 0xF06 DUP2 DUP5 PUSH2 0xDEF JUMP JUMPDEST SWAP1 POP SWAP4 SWAP3 POP POP POP JUMP JUMPDEST PUSH32 0x4E487B7100000000000000000000000000000000000000000000000000000000 PUSH0 MSTORE PUSH1 0x22 PUSH1 0x4 MSTORE PUSH1 0x24 PUSH0 REVERT JUMPDEST PUSH0 PUSH1 0x2 DUP3 DIV SWAP1 POP PUSH1 0x1 DUP3 AND DUP1 PUSH2 0xF53 JUMPI PUSH1 0x7F DUP3 AND SWAP2 POP JUMPDEST PUSH1 0x20 DUP3 LT DUP2 SUB PUSH2 0xF66 JUMPI PUSH2 0xF65 PUSH2 0xF0F JUMP JUMPDEST JUMPDEST POP SWAP2 SWAP1 POP JUMP JUMPDEST PUSH0 DUP2 SWAP1 POP DUP2 PUSH0 MSTORE PUSH1 0x20 PUSH0 KECCAK256 SWAP1 POP SWAP2 SWAP1 POP JUMP JUMPDEST PUSH0 PUSH1 0x20 PUSH1 0x1F DUP4 ADD DIV SWAP1 POP SWAP2 SWAP1 POP JUMP JUMPDEST PUSH0 DUP3 DUP3 SHL SWAP1 POP SWAP3 SWAP2 POP POP JUMP JUMPDEST PUSH0 PUSH1 0x8 DUP4 MUL PUSH2 0xFC8 PUSH32 0xFFFFFFFFFFFFFFFFFFFFFFFFFFFFFFFFFFFFFFFFFFFFFFFFFFFFFFFFFFFFFFFF DUP3 PUSH2 0xF8D JUMP JUMPDEST PUSH2 0xFD2 DUP7 DUP4 PUSH2 0xF8D JUMP JUMPDEST SWAP6 POP DUP1 NOT DUP5 AND SWAP4 POP DUP1 DUP7 AND DUP5 OR SWAP3 POP POP POP SWAP4 SWAP3 POP POP POP JUMP JUMPDEST PUSH0 DUP2 SWAP1 POP SWAP2 SWAP1 POP JUMP JUMPDEST PUSH0 PUSH2 0x100D PUSH2 0x1008 PUSH2 0x1003 DUP5 PUSH2 0xCF9 JUMP JUMPDEST PUSH2 0xFEA JUMP JUMPDEST PUSH2 0xCF9 JUMP JUMPDEST SWAP1 POP SWAP2 SWAP1 POP JUMP JUMPDEST PUSH0 DUP2 SWAP1 POP SWAP2 SWAP1 POP JUMP JUMPDEST PUSH2 0x1026 DUP4 PUSH2 0xFF3 JUMP JUMPDEST PUSH2 0x103A PUSH2 0x1032 DUP3 PUSH2 0x1014 JUMP JUMPDEST DUP5 DUP5 SLOAD PUSH2 0xF99 JUMP JUMPDEST DUP3 SSTORE POP POP POP POP JUMP JUMPDEST PUSH0 SWAP1 JUMP JUMPDEST PUSH2 0x104E PUSH2 0x1042 JUMP JUMPDEST PUSH2 0x1059 DUP2 DUP5 DUP5 PUSH2 0x101D JUMP JUMPDEST POP POP POP JUMP JUMPDEST JUMPDEST DUP2 DUP2 LT ISZERO PUSH2 0x107C JUMPI PUSH2 0x1071 PUSH0 DUP3 PUSH2 0x1046 JUMP JUMPDEST PUSH1 0x1 DUP2 ADD SWAP1 POP PUSH2 0x105F JUMP JUMPDEST POP POP JUMP JUMPDEST PUSH1 0x1F DUP3 GT ISZERO PUSH2 0x10C1 JUMPI PUSH2 0x1092 DUP2 PUSH2 0xF6C JUMP JUMPDEST PUSH2 0x109B DUP5 PUSH2 0xF7E JUMP JUMPDEST DUP2 ADD PUSH1 0x20 DUP6 LT ISZERO PUSH2 0x10AA JUMPI DUP2 SWAP1 POP JUMPDEST PUSH2 0x10BE PUSH2 0x10B6 DUP6 PUSH2 0xF7E JUMP JUMPDEST DUP4 ADD DUP3 PUSH2 0x105E JUMP JUMPDEST POP POP JUMPDEST POP POP POP JUMP JUMPDEST PUSH0 DUP3 DUP3 SHR SWAP1 POP SWAP3 SWAP2 POP POP JUMP JUMPDEST PUSH0 PUSH2 0x10E1 PUSH0 NOT DUP5 PUSH1 0x8 MUL PUSH2 0x10C6 JUMP JUMPDEST NOT DUP1 DUP4 AND SWAP2 POP POP SWAP3 SWAP2 POP POP JUMP JUMPDEST PUSH0 PUSH2 0x10F9 DUP4 DUP4 PUSH2 0x10D2 JUMP JUMPDEST SWAP2 POP DUP3 PUSH1 0x2 MUL DUP3 OR SWAP1 POP SWAP3 SWAP2 POP POP JUMP JUMPDEST PUSH2 0x1112 DUP3 PUSH2 0x99C JUMP JUMPDEST PUSH8 0xFFFFFFFFFFFFFFFF DUP2 GT ISZERO PUSH2 0x112B JUMPI PUSH2 0x112A PUSH2 0xB5F JUMP JUMPDEST JUMPDEST PUSH2 0x1135 DUP3 SLOAD PUSH2 0xF3C JUMP JUMPDEST PUSH2 0x1140 DUP3 DUP3 DUP6 PUSH2 0x1080 JUMP JUMPDEST PUSH0 PUSH1 0x20 SWAP1 POP PUSH1 0x1F DUP4 GT PUSH1 0x1 DUP2 EQ PUSH2 0x1171 JUMPI PUSH0 DUP5 ISZERO PUSH2 0x115F JUMPI DUP3 DUP8 ADD MLOAD SWAP1 POP JUMPDEST PUSH2 0x1169 DUP6 DUP3 PUSH2 0x10EE JUMP JUMPDEST DUP7 SSTORE POP PUSH2 0x11D0 JUMP JUMPDEST PUSH1 0x1F NOT DUP5 AND PUSH2 0x117F DUP7 PUSH2 0xF6C JUMP JUMPDEST PUSH0 JUMPDEST DUP3 DUP2 LT ISZERO PUSH2 0x11A6 JUMPI DUP5 DUP10 ADD MLOAD DUP3 SSTORE PUSH1 0x1 DUP3 ADD SWAP2 POP PUSH1 0x20 DUP6 ADD SWAP5 POP PUSH1 0x20 DUP2 ADD SWAP1 POP PUSH2 0x1181 JUMP JUMPDEST DUP7 DUP4 LT ISZERO PUSH2 0x11C3 JUMPI DUP5 DUP10 ADD MLOAD PUSH2 0x11BF PUSH1 0x1F DUP10 AND DUP3 PUSH2 0x10D2 JUMP JUMPDEST DUP4 SSTORE POP JUMPDEST PUSH1 0x1 PUSH1 0x2 DUP9 MUL ADD DUP9 SSTORE POP POP POP JUMPDEST POP POP POP POP POP POP JUMP JUMPDEST PUSH32 0x4E487B7100000000000000000000000000000000000000000000000000000000 PUSH0 MSTORE PUSH1 0x11 PUSH1 0x4 MSTORE PUSH1 0x24 PUSH0 REVERT JUMPDEST PUSH0 PUSH2 0x120F DUP3 PUSH2 0xCF9 JUMP JUMPDEST SWAP2 POP PUSH2 0x121A DUP4 PUSH2 0xCF9 JUMP JUMPDEST SWAP3 POP DUP3 DUP3 SUB SWAP1 POP DUP2 DUP2 GT ISZERO PUSH2 0x1232 JUMPI PUSH2 0x1231 PUSH2 0x11D8 JUMP JUMPDEST JUMPDEST SWAP3 SWAP2 POP POP JUMP JUMPDEST PUSH2 0x1241 DUP2 PUSH2 0xCF9 JUMP JUMPDEST DUP3 MSTORE POP POP JUMP JUMPDEST PUSH0 PUSH1 0x60 DUP3 ADD SWAP1 POP PUSH2 0x125A PUSH0 DUP4 ADD DUP7 PUSH2 0x1238 JUMP JUMPDEST DUP2 DUP2 SUB PUSH1 0x20 DUP4 ADD MSTORE PUSH2 0x126C DUP2 DUP6 PUSH2 0xDEF JUMP JUMPDEST SWAP1 POP DUP2 DUP2 SUB PUSH1 0x40 DUP4 ADD MSTORE PUSH2 0x1280 DUP2 DUP5 PUSH2 0xDEF JUMP JUMPDEST SWAP1 POP SWAP5 SWAP4 POP POP POP POP JUMP JUMPDEST PUSH32 0x546F646F206974656D206E6F7420666F756E64206F72206578697374696E6721 PUSH0 DUP3 ADD MSTORE POP JUMP JUMPDEST PUSH0 PUSH2 0x12BE PUSH1 0x20 DUP4 PUSH2 0xDDF JUMP JUMPDEST SWAP2 POP PUSH2 0x12C9 DUP3 PUSH2 0x128A JUMP JUMPDEST PUSH1 0x20 DUP3 ADD SWAP1 POP SWAP2 SWAP1 POP JUMP JUMPDEST PUSH0 PUSH1 0x20 DUP3 ADD SWAP1 POP DUP2 DUP2 SUB PUSH0 DUP4 ADD MSTORE PUSH2 0x12EB DUP2 PUSH2 0x12B2 JUMP JUMPDEST SWAP1 POP SWAP2 SWAP1 POP JUMP JUMPDEST PUSH0 PUSH1 0x20 DUP3 ADD SWAP1 POP PUSH2 0x1305 PUSH0 DUP4 ADD DUP5 PUSH2 0x1238 JUMP JUMPDEST SWAP3 SWAP2 POP POP JUMP JUMPDEST PUSH32 0x4E487B7100000000000000000000000000000000000000000000000000000000 PUSH0 MSTORE PUSH1 0x32 PUSH1 0x4 MSTORE PUSH1 0x24 PUSH0 REVERT JUMPDEST PUSH32 0x546F646F206974656D206E6F7420666F756E6400000000000000000000000000 PUSH0 DUP3 ADD MSTORE POP JUMP JUMPDEST PUSH0 PUSH2 0x136C PUSH1 0x13 DUP4 PUSH2 0xDDF JUMP JUMPDEST SWAP2 POP PUSH2 0x1377 DUP3 PUSH2 0x1338 JUMP JUMPDEST PUSH1 0x20 DUP3 ADD SWAP1 POP SWAP2 SWAP1 POP JUMP JUMPDEST PUSH0 PUSH1 0x20 DUP3 ADD SWAP1 POP DUP2 DUP2 SUB PUSH0 DUP4 ADD MSTORE PUSH2 0x1399 DUP2 PUSH2 0x1360 JUMP JUMPDEST SWAP1 POP SWAP2 SWAP1 POP JUMP JUMPDEST PUSH0 PUSH1 0x40 DUP3 ADD SWAP1 POP PUSH2 0x13B3 PUSH0 DUP4 ADD DUP6 PUSH2 0x1238 JUMP JUMPDEST PUSH2 0x13C0 PUSH1 0x20 DUP4 ADD DUP5 PUSH2 0xE27 JUMP JUMPDEST SWAP4 SWAP3 POP POP POP JUMP INVALID LOG2 PUSH5 0x6970667358 0x22 SLT KECCAK256 PUSH26 0xBBCE527637703F0DCD924464ECCE12F0D3260F208F5373533ACA CALLER RETURNDATASIZE LOG3 SWAP16 0xE7 PUSH5 0x736F6C6343 STOP ADDMOD XOR STOP CALLER "
				},
				"gasEstimates": {
					"creation": {
						"codeDepositCost": "1023400",
						"executionCost": "1059",
						"totalCost": "1024459"
					},
					"external": {
						"addTodo(string,string)": "infinite",
						"deleteTodo(uint256)": "infinite",
						"getTodo(uint8)": "infinite",
						"getTodoLists()": "infinite",
						"todos(uint256)": "infinite",
						"toggleIsDone(uint256)": "infinite",
						"updateTodo(uint256,string,string)": "infinite"
					}
				},
				"methodIdentifiers": {
					"addTodo(string,string)": "1b7fb260",
					"deleteTodo(uint256)": "6e3c6738",
					"getTodo(uint8)": "fb0b86fb",
					"getTodoLists()": "0709ecf2",
					"todos(uint256)": "bc8bc2b4",
					"toggleIsDone(uint256)": "c1876bfd",
					"updateTodo(uint256,string,string)": "81e94199"
				}
			},
			"storageLayout": {
				"storage": [
					{
						"astId": 12,
						"contract": "contracts/1_Storage.sol:TodoContract",
						"label": "todos",
						"offset": 0,
						"slot": "0",
						"type": "t_array(t_struct(Todo)8_storage)dyn_storage"
					}
				],
				"types": {
					"t_array(t_struct(Todo)8_storage)dyn_storage": {
						"base": "t_struct(Todo)8_storage",
						"encoding": "dynamic_array",
						"label": "struct TodoContract.Todo[]",
						"numberOfBytes": "32"
					},
					"t_bool": {
						"encoding": "inplace",
						"label": "bool",
						"numberOfBytes": "1"
					},
					"t_string_storage": {
						"encoding": "bytes",
						"label": "string",
						"numberOfBytes": "32"
					},
					"t_struct(Todo)8_storage": {
						"encoding": "inplace",
						"label": "struct TodoContract.Todo",
						"members": [
							{
								"astId": 3,
								"contract": "contracts/1_Storage.sol:TodoContract",
								"label": "title",
								"offset": 0,
								"slot": "0",
								"type": "t_string_storage"
							},
							{
								"astId": 5,
								"contract": "contracts/1_Storage.sol:TodoContract",
								"label": "description",
								"offset": 0,
								"slot": "1",
								"type": "t_string_storage"
							},
							{
								"astId": 7,
								"contract": "contracts/1_Storage.sol:TodoContract",
								"label": "isDone",
								"offset": 0,
								"slot": "2",
								"type": "t_bool"
							}
						],
						"numberOfBytes": "96"
					}
				}
			},
			"userdoc": {
				"kind": "user",
				"methods": {},
				"version": 1
			}
		}
	}
}