{
	"data": {
		"bytecode": {
			"linkReferences": {},
			"object": "608060405234801561000f575f80fd5b506116788061001d5f395ff3fe608060405234801561000f575f80fd5b506004361061007b575f3560e01c806381e941991161005957806381e94199146100d5578063bc8bc2b4146100f1578063c1876bfd14610123578063fb0b86fb1461013f5761007b565b80630709ecf21461007f5780631b7fb2601461009d5780636e3c6738146100b9575b5f80fd5b610087610170565b6040516100949190610c7a565b60405180910390f35b6100b760048036038101906100b29190610dd7565b610304565b005b6100d360048036038101906100ce9190610e80565b6103e2565b005b6100ef60048036038101906100ea9190610eab565b61055e565b005b61010b60048036038101906101069190610e80565b610643565b60405161011a93929190610f8a565b60405180910390f35b61013d60048036038101906101389190610e80565b61078f565b005b61015960048036038101906101549190611003565b6108a7565b60405161016792919061102e565b60405180910390f35b60605f805480602002602001604051908101604052809291908181526020015f905b828210156102fb578382905f5260205f2090600302016040518060600160405290815f820180546101c290611090565b80601f01602080910402602001604051908101604052809291908181526020018280546101ee90611090565b80156102395780601f1061021057610100808354040283529160200191610239565b820191905f5260205f20905b81548152906001019060200180831161021c57829003601f168201915b5050505050815260200160018201805461025290611090565b80601f016020809104026020016040519081016040528092919081815260200182805461027e90611090565b80156102c95780601f106102a0576101008083540402835291602001916102c9565b820191905f5260205f20905b8154815290600101906020018083116102ac57829003601f168201915b50505050508152602001600282015f9054906101000a900460ff16151515158152505081526020019060010190610192565b50505050905090565b5f60405180606001604052808481526020018381526020015f1515815250908060018154018082558091505060019003905f5260205f2090600302015f909190919091505f820151815f01908161035b919061125d565b506020820151816001019081610371919061125d565b506040820151816002015f6101000a81548160ff02191690831515021790555050507f961d149d7330635c7a6a92d9ae9c877637052220faf76eaf876fd4742d7b995660015f805490506103c59190611359565b83836040516103d69392919061139b565b60405180910390a15050565b5f805490508110610428576040517f08c379a000000000000000000000000000000000000000000000000000000000815260040161041f90611428565b60405180910390fd5b5f60015f8054905061043a9190611359565b8154811061044b5761044a611446565b5b905f5260205f2090600302015f828154811061046a57610469611446565b5b905f5260205f2090600302015f8201815f0190816104889190611488565b506001820181600101908161049d9190611488565b50600282015f9054906101000a900460ff16816002015f6101000a81548160ff0219169083151502179055509050505f8054806104dd576104dc61156d565b5b600190038181905f5260205f2090600302015f8082015f6104fe9190610a6f565b600182015f61050d9190610a6f565b600282015f6101000a81549060ff0219169055505090557f1072e4eeea43a52d09f5b6dfc870a079948f706133840ce9239aebc57fabb65f81604051610553919061159a565b60405180910390a150565b5f8054905083106105a4576040517f08c379a000000000000000000000000000000000000000000000000000000000815260040161059b90611428565b60405180910390fd5b815f84815481106105b8576105b7611446565b5b905f5260205f2090600302015f0190816105d2919061125d565b50805f84815481106105e7576105e6611446565b5b905f5260205f2090600302016001019081610602919061125d565b507f46cd94e7c17f1d1dccdf3eaf684569a25cb847ab0b30b0af79d1f2b3a2df21b78383836040516106369392919061139b565b60405180910390a1505050565b5f8181548110610651575f80fd5b905f5260205f2090600302015f91509050805f01805461067090611090565b80601f016020809104026020016040519081016040528092919081815260200182805461069c90611090565b80156106e75780601f106106be576101008083540402835291602001916106e7565b820191905f5260205f20905b8154815290600101906020018083116106ca57829003601f168201915b5050505050908060010180546106fc90611090565b80601f016020809104026020016040519081016040528092919081815260200182805461072890611090565b80156107735780601f1061074a57610100808354040283529160200191610773565b820191905f5260205f20905b81548152906001019060200180831161075657829003601f168201915b505050505090806002015f9054906101000a900460ff16905083565b5f8054905081106107d5576040517f08c379a00000000000000000000000000000000000000000000000000000000081526004016107cc906115fd565b60405180910390fd5b5f81815481106107e8576107e7611446565b5b905f5260205f2090600302016002015f9054906101000a900460ff16155f828154811061081857610817611446565b5b905f5260205f2090600302016002015f6101000a81548160ff0219169083151502179055507fb84a3507a15618a089880b44621cbac93a5991ec03f5e02e0c0b70273f94e71c815f838154811061087257610871611446565b5b905f5260205f2090600302016002015f9054906101000a900460ff1660405161089c92919061161b565b60405180910390a150565b6060805f805490508360ff16106108f3576040517f08c379a00000000000000000000000000000000000000000000000000000000081526004016108ea906115fd565b60405180910390fd5b5f808460ff168154811061090a57610909611446565b5b905f5260205f2090600302016040518060600160405290815f8201805461093090611090565b80601f016020809104026020016040519081016040528092919081815260200182805461095c90611090565b80156109a75780601f1061097e576101008083540402835291602001916109a7565b820191905f5260205f20905b81548152906001019060200180831161098a57829003601f168201915b505050505081526020016001820180546109c090611090565b80601f01602080910402602001604051908101604052809291908181526020018280546109ec90611090565b8015610a375780601f10610a0e57610100808354040283529160200191610a37565b820191905f5260205f20905b815481529060010190602001808311610a1a57829003601f168201915b50505050508152602001600282015f9054906101000a900460ff1615151515815250509050805f015181602001519250925050915091565b508054610a7b90611090565b5f825580601f10610a8c5750610aa9565b601f0160209004905f5260205f2090810190610aa89190610aac565b5b50565b5b80821115610ac3575f815f905550600101610aad565b5090565b5f81519050919050565b5f82825260208201905092915050565b5f819050602082019050919050565b5f81519050919050565b5f82825260208201905092915050565b5f5b83811015610b27578082015181840152602081019050610b0c565b5f8484015250505050565b5f601f19601f8301169050919050565b5f610b4c82610af0565b610b568185610afa565b9350610b66818560208601610b0a565b610b6f81610b32565b840191505092915050565b5f8115159050919050565b610b8e81610b7a565b82525050565b5f606083015f8301518482035f860152610bae8282610b42565b91505060208301518482036020860152610bc88282610b42565b9150506040830151610bdd6040860182610b85565b508091505092915050565b5f610bf38383610b94565b905092915050565b5f602082019050919050565b5f610c1182610ac7565b610c1b8185610ad1565b935083602082028501610c2d85610ae1565b805f5b85811015610c685784840389528151610c498582610be8565b9450610c5483610bfb565b925060208a01995050600181019050610c30565b50829750879550505050505092915050565b5f6020820190508181035f830152610c928184610c07565b905092915050565b5f604051905090565b5f80fd5b5f80fd5b5f80fd5b5f80fd5b7f4e487b71000000000000000000000000000000000000000000000000000000005f52604160045260245ffd5b610ce982610b32565b810181811067ffffffffffffffff82111715610d0857610d07610cb3565b5b80604052505050565b5f610d1a610c9a565b9050610d268282610ce0565b919050565b5f67ffffffffffffffff821115610d4557610d44610cb3565b5b610d4e82610b32565b9050602081019050919050565b828183375f83830152505050565b5f610d7b610d7684610d2b565b610d11565b905082815260208101848484011115610d9757610d96610caf565b5b610da2848285610d5b565b509392505050565b5f82601f830112610dbe57610dbd610cab565b5b8135610dce848260208601610d69565b91505092915050565b5f8060408385031215610ded57610dec610ca3565b5b5f83013567ffffffffffffffff811115610e0a57610e09610ca7565b5b610e1685828601610daa565b925050602083013567ffffffffffffffff811115610e3757610e36610ca7565b5b610e4385828601610daa565b9150509250929050565b5f819050919050565b610e5f81610e4d565b8114610e69575f80fd5b50565b5f81359050610e7a81610e56565b92915050565b5f60208284031215610e9557610e94610ca3565b5b5f610ea284828501610e6c565b91505092915050565b5f805f60608486031215610ec257610ec1610ca3565b5b5f610ecf86828701610e6c565b935050602084013567ffffffffffffffff811115610ef057610eef610ca7565b5b610efc86828701610daa565b925050604084013567ffffffffffffffff811115610f1d57610f1c610ca7565b5b610f2986828701610daa565b9150509250925092565b5f82825260208201905092915050565b5f610f4d82610af0565b610f578185610f33565b9350610f67818560208601610b0a565b610f7081610b32565b840191505092915050565b610f8481610b7a565b82525050565b5f6060820190508181035f830152610fa28186610f43565b90508181036020830152610fb68185610f43565b9050610fc56040830184610f7b565b949350505050565b5f60ff82169050919050565b610fe281610fcd565b8114610fec575f80fd5b50565b5f81359050610ffd81610fd9565b92915050565b5f6020828403121561101857611017610ca3565b5b5f61102584828501610fef565b91505092915050565b5f6040820190508181035f8301526110468185610f43565b9050818103602083015261105a8184610f43565b90509392505050565b7f4e487b71000000000000000000000000000000000000000000000000000000005f52602260045260245ffd5b5f60028204905060018216806110a757607f821691505b6020821081036110ba576110b9611063565b5b50919050565b5f819050815f5260205f209050919050565b5f6020601f8301049050919050565b5f82821b905092915050565b5f6008830261111c7fffffffffffffffffffffffffffffffffffffffffffffffffffffffffffffffff826110e1565b61112686836110e1565b95508019841693508086168417925050509392505050565b5f819050919050565b5f61116161115c61115784610e4d565b61113e565b610e4d565b9050919050565b5f819050919050565b61117a83611147565b61118e61118682611168565b8484546110ed565b825550505050565b5f90565b6111a2611196565b6111ad818484611171565b505050565b5b818110156111d0576111c55f8261119a565b6001810190506111b3565b5050565b601f821115611215576111e6816110c0565b6111ef846110d2565b810160208510156111fe578190505b61121261120a856110d2565b8301826111b2565b50505b505050565b5f82821c905092915050565b5f6112355f198460080261121a565b1980831691505092915050565b5f61124d8383611226565b9150826002028217905092915050565b61126682610af0565b67ffffffffffffffff81111561127f5761127e610cb3565b5b6112898254611090565b6112948282856111d4565b5f60209050601f8311600181146112c5575f84156112b3578287015190505b6112bd8582611242565b865550611324565b601f1984166112d3866110c0565b5f5b828110156112fa578489015182556001820191506020850194506020810190506112d5565b868310156113175784890151611313601f891682611226565b8355505b6001600288020188555050505b505050505050565b7f4e487b71000000000000000000000000000000000000000000000000000000005f52601160045260245ffd5b5f61136382610e4d565b915061136e83610e4d565b92508282039050818111156113865761138561132c565b5b92915050565b61139581610e4d565b82525050565b5f6060820190506113ae5f83018661138c565b81810360208301526113c08185610f43565b905081810360408301526113d48184610f43565b9050949350505050565b7f546f646f206974656d206e6f7420666f756e64206f72206578697374696e67215f82015250565b5f611412602083610f33565b915061141d826113de565b602082019050919050565b5f6020820190508181035f83015261143f81611406565b9050919050565b7f4e487b71000000000000000000000000000000000000000000000000000000005f52603260045260245ffd5b5f8154905061148181611090565b9050919050565b81810361149657505061156b565b61149f82611473565b67ffffffffffffffff8111156114b8576114b7610cb3565b5b6114c28254611090565b6114cd8282856111d4565b5f601f8311600181146114fa575f84156114e8578287015490505b6114f28582611242565b865550611564565b601f198416611508876110c0565b9650611513866110c0565b5f5b8281101561153a57848901548255600182019150600185019450602081019050611515565b868310156115575784890154611553601f891682611226565b8355505b6001600288020188555050505b5050505050505b565b7f4e487b71000000000000000000000000000000000000000000000000000000005f52603160045260245ffd5b5f6020820190506115ad5f83018461138c565b92915050565b7f546f646f206974656d206e6f7420666f756e64000000000000000000000000005f82015250565b5f6115e7601383610f33565b91506115f2826115b3565b602082019050919050565b5f6020820190508181035f830152611614816115db565b9050919050565b5f60408201905061162e5f83018561138c565b61163b6020830184610f7b565b939250505056fea2646970667358221220c6e5a921e0636aa7f789e5447aacd076e8ab04e0fd62d4f2f0703ab69b77609f64736f6c63430008180033",
			"opcodes": "PUSH1 0x80 PUSH1 0x40 MSTORE CALLVALUE DUP1 ISZERO PUSH2 0xF JUMPI PUSH0 DUP1 REVERT JUMPDEST POP PUSH2 0x1678 DUP1 PUSH2 0x1D PUSH0 CODECOPY PUSH0 RETURN INVALID PUSH1 0x80 PUSH1 0x40 MSTORE CALLVALUE DUP1 ISZERO PUSH2 0xF JUMPI PUSH0 DUP1 REVERT JUMPDEST POP PUSH1 0x4 CALLDATASIZE LT PUSH2 0x7B JUMPI PUSH0 CALLDATALOAD PUSH1 0xE0 SHR DUP1 PUSH4 0x81E94199 GT PUSH2 0x59 JUMPI DUP1 PUSH4 0x81E94199 EQ PUSH2 0xD5 JUMPI DUP1 PUSH4 0xBC8BC2B4 EQ PUSH2 0xF1 JUMPI DUP1 PUSH4 0xC1876BFD EQ PUSH2 0x123 JUMPI DUP1 PUSH4 0xFB0B86FB EQ PUSH2 0x13F JUMPI PUSH2 0x7B JUMP JUMPDEST DUP1 PUSH4 0x709ECF2 EQ PUSH2 0x7F JUMPI DUP1 PUSH4 0x1B7FB260 EQ PUSH2 0x9D JUMPI DUP1 PUSH4 0x6E3C6738 EQ PUSH2 0xB9 JUMPI JUMPDEST PUSH0 DUP1 REVERT JUMPDEST PUSH2 0x87 PUSH2 0x170 JUMP JUMPDEST PUSH1 0x40 MLOAD PUSH2 0x94 SWAP2 SWAP1 PUSH2 0xC7A JUMP JUMPDEST PUSH1 0x40 MLOAD DUP1 SWAP2 SUB SWAP1 RETURN JUMPDEST PUSH2 0xB7 PUSH1 0x4 DUP1 CALLDATASIZE SUB DUP2 ADD SWAP1 PUSH2 0xB2 SWAP2 SWAP1 PUSH2 0xDD7 JUMP JUMPDEST PUSH2 0x304 JUMP JUMPDEST STOP JUMPDEST PUSH2 0xD3 PUSH1 0x4 DUP1 CALLDATASIZE SUB DUP2 ADD SWAP1 PUSH2 0xCE SWAP2 SWAP1 PUSH2 0xE80 JUMP JUMPDEST PUSH2 0x3E2 JUMP JUMPDEST STOP JUMPDEST PUSH2 0xEF PUSH1 0x4 DUP1 CALLDATASIZE SUB DUP2 ADD SWAP1 PUSH2 0xEA SWAP2 SWAP1 PUSH2 0xEAB JUMP JUMPDEST PUSH2 0x55E JUMP JUMPDEST STOP JUMPDEST PUSH2 0x10B PUSH1 0x4 DUP1 CALLDATASIZE SUB DUP2 ADD SWAP1 PUSH2 0x106 SWAP2 SWAP1 PUSH2 0xE80 JUMP JUMPDEST PUSH2 0x643 JUMP JUMPDEST PUSH1 0x40 MLOAD PUSH2 0x11A SWAP4 SWAP3 SWAP2 SWAP1 PUSH2 0xF8A JUMP JUMPDEST PUSH1 0x40 MLOAD DUP1 SWAP2 SUB SWAP1 RETURN JUMPDEST PUSH2 0x13D PUSH1 0x4 DUP1 CALLDATASIZE SUB DUP2 ADD SWAP1 PUSH2 0x138 SWAP2 SWAP1 PUSH2 0xE80 JUMP JUMPDEST PUSH2 0x78F JUMP JUMPDEST STOP JUMPDEST PUSH2 0x159 PUSH1 0x4 DUP1 CALLDATASIZE SUB DUP2 ADD SWAP1 PUSH2 0x154 SWAP2 SWAP1 PUSH2 0x1003 JUMP JUMPDEST PUSH2 0x8A7 JUMP JUMPDEST PUSH1 0x40 MLOAD PUSH2 0x167 SWAP3 SWAP2 SWAP1 PUSH2 0x102E JUMP JUMPDEST PUSH1 0x40 MLOAD DUP1 SWAP2 SUB SWAP1 RETURN JUMPDEST PUSH1 0x60 PUSH0 DUP1 SLOAD DUP1 PUSH1 0x20 MUL PUSH1 0x20 ADD PUSH1 0x40 MLOAD SWAP1 DUP2 ADD PUSH1 0x40 MSTORE DUP1 SWAP3 SWAP2 SWAP1 DUP2 DUP2 MSTORE PUSH1 0x20 ADD PUSH0 SWAP1 JUMPDEST DUP3 DUP3 LT ISZERO PUSH2 0x2FB JUMPI DUP4 DUP3 SWAP1 PUSH0 MSTORE PUSH1 0x20 PUSH0 KECCAK256 SWAP1 PUSH1 0x3 MUL ADD PUSH1 0x40 MLOAD DUP1 PUSH1 0x60 ADD PUSH1 0x40 MSTORE SWAP1 DUP2 PUSH0 DUP3 ADD DUP1 SLOAD PUSH2 0x1C2 SWAP1 PUSH2 0x1090 JUMP JUMPDEST DUP1 PUSH1 0x1F ADD PUSH1 0x20 DUP1 SWAP2 DIV MUL PUSH1 0x20 ADD PUSH1 0x40 MLOAD SWAP1 DUP2 ADD PUSH1 0x40 MSTORE DUP1 SWAP3 SWAP2 SWAP1 DUP2 DUP2 MSTORE PUSH1 0x20 ADD DUP3 DUP1 SLOAD PUSH2 0x1EE SWAP1 PUSH2 0x1090 JUMP JUMPDEST DUP1 ISZERO PUSH2 0x239 JUMPI DUP1 PUSH1 0x1F LT PUSH2 0x210 JUMPI PUSH2 0x100 DUP1 DUP4 SLOAD DIV MUL DUP4 MSTORE SWAP2 PUSH1 0x20 ADD SWAP2 PUSH2 0x239 JUMP JUMPDEST DUP3 ADD SWAP2 SWAP1 PUSH0 MSTORE PUSH1 0x20 PUSH0 KECCAK256 SWAP1 JUMPDEST DUP2 SLOAD DUP2 MSTORE SWAP1 PUSH1 0x1 ADD SWAP1 PUSH1 0x20 ADD DUP1 DUP4 GT PUSH2 0x21C JUMPI DUP3 SWAP1 SUB PUSH1 0x1F AND DUP3 ADD SWAP2 JUMPDEST POP POP POP POP POP DUP2 MSTORE PUSH1 0x20 ADD PUSH1 0x1 DUP3 ADD DUP1 SLOAD PUSH2 0x252 SWAP1 PUSH2 0x1090 JUMP JUMPDEST DUP1 PUSH1 0x1F ADD PUSH1 0x20 DUP1 SWAP2 DIV MUL PUSH1 0x20 ADD PUSH1 0x40 MLOAD SWAP1 DUP2 ADD PUSH1 0x40 MSTORE DUP1 SWAP3 SWAP2 SWAP1 DUP2 DUP2 MSTORE PUSH1 0x20 ADD DUP3 DUP1 SLOAD PUSH2 0x27E SWAP1 PUSH2 0x1090 JUMP JUMPDEST DUP1 ISZERO PUSH2 0x2C9 JUMPI DUP1 PUSH1 0x1F LT PUSH2 0x2A0 JUMPI PUSH2 0x100 DUP1 DUP4 SLOAD DIV MUL DUP4 MSTORE SWAP2 PUSH1 0x20 ADD SWAP2 PUSH2 0x2C9 JUMP JUMPDEST DUP3 ADD SWAP2 SWAP1 PUSH0 MSTORE PUSH1 0x20 PUSH0 KECCAK256 SWAP1 JUMPDEST DUP2 SLOAD DUP2 MSTORE SWAP1 PUSH1 0x1 ADD SWAP1 PUSH1 0x20 ADD DUP1 DUP4 GT PUSH2 0x2AC JUMPI DUP3 SWAP1 SUB PUSH1 0x1F AND DUP3 ADD SWAP2 JUMPDEST POP POP POP POP POP DUP2 MSTORE PUSH1 0x20 ADD PUSH1 0x2 DUP3 ADD PUSH0 SWAP1 SLOAD SWAP1 PUSH2 0x100 EXP SWAP1 DIV PUSH1 0xFF AND ISZERO ISZERO ISZERO ISZERO DUP2 MSTORE POP POP DUP2 MSTORE PUSH1 0x20 ADD SWAP1 PUSH1 0x1 ADD SWAP1 PUSH2 0x192 JUMP JUMPDEST POP POP POP POP SWAP1 POP SWAP1 JUMP JUMPDEST PUSH0 PUSH1 0x40 MLOAD DUP1 PUSH1 0x60 ADD PUSH1 0x40 MSTORE DUP1 DUP5 DUP2 MSTORE PUSH1 0x20 ADD DUP4 DUP2 MSTORE PUSH1 0x20 ADD PUSH0 ISZERO ISZERO DUP2 MSTORE POP SWAP1 DUP1 PUSH1 0x1 DUP2 SLOAD ADD DUP1 DUP3 SSTORE DUP1 SWAP2 POP POP PUSH1 0x1 SWAP1 SUB SWAP1 PUSH0 MSTORE PUSH1 0x20 PUSH0 KECCAK256 SWAP1 PUSH1 0x3 MUL ADD PUSH0 SWAP1 SWAP2 SWAP1 SWAP2 SWAP1 SWAP2 POP PUSH0 DUP3 ADD MLOAD DUP2 PUSH0 ADD SWAP1 DUP2 PUSH2 0x35B SWAP2 SWAP1 PUSH2 0x125D JUMP JUMPDEST POP PUSH1 0x20 DUP3 ADD MLOAD DUP2 PUSH1 0x1 ADD SWAP1 DUP2 PUSH2 0x371 SWAP2 SWAP1 PUSH2 0x125D JUMP JUMPDEST POP PUSH1 0x40 DUP3 ADD MLOAD DUP2 PUSH1 0x2 ADD PUSH0 PUSH2 0x100 EXP DUP2 SLOAD DUP2 PUSH1 0xFF MUL NOT AND SWAP1 DUP4 ISZERO ISZERO MUL OR SWAP1 SSTORE POP POP POP PUSH32 0x961D149D7330635C7A6A92D9AE9C877637052220FAF76EAF876FD4742D7B9956 PUSH1 0x1 PUSH0 DUP1 SLOAD SWAP1 POP PUSH2 0x3C5 SWAP2 SWAP1 PUSH2 0x1359 JUMP JUMPDEST DUP4 DUP4 PUSH1 0x40 MLOAD PUSH2 0x3D6 SWAP4 SWAP3 SWAP2 SWAP1 PUSH2 0x139B JUMP JUMPDEST PUSH1 0x40 MLOAD DUP1 SWAP2 SUB SWAP1 LOG1 POP POP JUMP JUMPDEST PUSH0 DUP1 SLOAD SWAP1 POP DUP2 LT PUSH2 0x428 JUMPI PUSH1 0x40 MLOAD PUSH32 0x8C379A000000000000000000000000000000000000000000000000000000000 DUP2 MSTORE PUSH1 0x4 ADD PUSH2 0x41F SWAP1 PUSH2 0x1428 JUMP JUMPDEST PUSH1 0x40 MLOAD DUP1 SWAP2 SUB SWAP1 REVERT JUMPDEST PUSH0 PUSH1 0x1 PUSH0 DUP1 SLOAD SWAP1 POP PUSH2 0x43A SWAP2 SWAP1 PUSH2 0x1359 JUMP JUMPDEST DUP2 SLOAD DUP2 LT PUSH2 0x44B JUMPI PUSH2 0x44A PUSH2 0x1446 JUMP JUMPDEST JUMPDEST SWAP1 PUSH0 MSTORE PUSH1 0x20 PUSH0 KECCAK256 SWAP1 PUSH1 0x3 MUL ADD PUSH0 DUP3 DUP2 SLOAD DUP2 LT PUSH2 0x46A JUMPI PUSH2 0x469 PUSH2 0x1446 JUMP JUMPDEST JUMPDEST SWAP1 PUSH0 MSTORE PUSH1 0x20 PUSH0 KECCAK256 SWAP1 PUSH1 0x3 MUL ADD PUSH0 DUP3 ADD DUP2 PUSH0 ADD SWAP1 DUP2 PUSH2 0x488 SWAP2 SWAP1 PUSH2 0x1488 JUMP JUMPDEST POP PUSH1 0x1 DUP3 ADD DUP2 PUSH1 0x1 ADD SWAP1 DUP2 PUSH2 0x49D SWAP2 SWAP1 PUSH2 0x1488 JUMP JUMPDEST POP PUSH1 0x2 DUP3 ADD PUSH0 SWAP1 SLOAD SWAP1 PUSH2 0x100 EXP SWAP1 DIV PUSH1 0xFF AND DUP2 PUSH1 0x2 ADD PUSH0 PUSH2 0x100 EXP DUP2 SLOAD DUP2 PUSH1 0xFF MUL NOT AND SWAP1 DUP4 ISZERO ISZERO MUL OR SWAP1 SSTORE POP SWAP1 POP POP PUSH0 DUP1 SLOAD DUP1 PUSH2 0x4DD JUMPI PUSH2 0x4DC PUSH2 0x156D JUMP JUMPDEST JUMPDEST PUSH1 0x1 SWAP1 SUB DUP2 DUP2 SWAP1 PUSH0 MSTORE PUSH1 0x20 PUSH0 KECCAK256 SWAP1 PUSH1 0x3 MUL ADD PUSH0 DUP1 DUP3 ADD PUSH0 PUSH2 0x4FE SWAP2 SWAP1 PUSH2 0xA6F JUMP JUMPDEST PUSH1 0x1 DUP3 ADD PUSH0 PUSH2 0x50D SWAP2 SWAP1 PUSH2 0xA6F JUMP JUMPDEST PUSH1 0x2 DUP3 ADD PUSH0 PUSH2 0x100 EXP DUP2 SLOAD SWAP1 PUSH1 0xFF MUL NOT AND SWAP1 SSTORE POP POP SWAP1 SSTORE PUSH32 0x1072E4EEEA43A52D09F5B6DFC870A079948F706133840CE9239AEBC57FABB65F DUP2 PUSH1 0x40 MLOAD PUSH2 0x553 SWAP2 SWAP1 PUSH2 0x159A JUMP JUMPDEST PUSH1 0x40 MLOAD DUP1 SWAP2 SUB SWAP1 LOG1 POP JUMP JUMPDEST PUSH0 DUP1 SLOAD SWAP1 POP DUP4 LT PUSH2 0x5A4 JUMPI PUSH1 0x40 MLOAD PUSH32 0x8C379A000000000000000000000000000000000000000000000000000000000 DUP2 MSTORE PUSH1 0x4 ADD PUSH2 0x59B SWAP1 PUSH2 0x1428 JUMP JUMPDEST PUSH1 0x40 MLOAD DUP1 SWAP2 SUB SWAP1 REVERT JUMPDEST DUP2 PUSH0 DUP5 DUP2 SLOAD DUP2 LT PUSH2 0x5B8 JUMPI PUSH2 0x5B7 PUSH2 0x1446 JUMP JUMPDEST JUMPDEST SWAP1 PUSH0 MSTORE PUSH1 0x20 PUSH0 KECCAK256 SWAP1 PUSH1 0x3 MUL ADD PUSH0 ADD SWAP1 DUP2 PUSH2 0x5D2 SWAP2 SWAP1 PUSH2 0x125D JUMP JUMPDEST POP DUP1 PUSH0 DUP5 DUP2 SLOAD DUP2 LT PUSH2 0x5E7 JUMPI PUSH2 0x5E6 PUSH2 0x1446 JUMP JUMPDEST JUMPDEST SWAP1 PUSH0 MSTORE PUSH1 0x20 PUSH0 KECCAK256 SWAP1 PUSH1 0x3 MUL ADD PUSH1 0x1 ADD SWAP1 DUP2 PUSH2 0x602 SWAP2 SWAP1 PUSH2 0x125D JUMP JUMPDEST POP PUSH32 0x46CD94E7C17F1D1DCCDF3EAF684569A25CB847AB0B30B0AF79D1F2B3A2DF21B7 DUP4 DUP4 DUP4 PUSH1 0x40 MLOAD PUSH2 0x636 SWAP4 SWAP3 SWAP2 SWAP1 PUSH2 0x139B JUMP JUMPDEST PUSH1 0x40 MLOAD DUP1 SWAP2 SUB SWAP1 LOG1 POP POP POP JUMP JUMPDEST PUSH0 DUP2 DUP2 SLOAD DUP2 LT PUSH2 0x651 JUMPI PUSH0 DUP1 REVERT JUMPDEST SWAP1 PUSH0 MSTORE PUSH1 0x20 PUSH0 KECCAK256 SWAP1 PUSH1 0x3 MUL ADD PUSH0 SWAP2 POP SWAP1 POP DUP1 PUSH0 ADD DUP1 SLOAD PUSH2 0x670 SWAP1 PUSH2 0x1090 JUMP JUMPDEST DUP1 PUSH1 0x1F ADD PUSH1 0x20 DUP1 SWAP2 DIV MUL PUSH1 0x20 ADD PUSH1 0x40 MLOAD SWAP1 DUP2 ADD PUSH1 0x40 MSTORE DUP1 SWAP3 SWAP2 SWAP1 DUP2 DUP2 MSTORE PUSH1 0x20 ADD DUP3 DUP1 SLOAD PUSH2 0x69C SWAP1 PUSH2 0x1090 JUMP JUMPDEST DUP1 ISZERO PUSH2 0x6E7 JUMPI DUP1 PUSH1 0x1F LT PUSH2 0x6BE JUMPI PUSH2 0x100 DUP1 DUP4 SLOAD DIV MUL DUP4 MSTORE SWAP2 PUSH1 0x20 ADD SWAP2 PUSH2 0x6E7 JUMP JUMPDEST DUP3 ADD SWAP2 SWAP1 PUSH0 MSTORE PUSH1 0x20 PUSH0 KECCAK256 SWAP1 JUMPDEST DUP2 SLOAD DUP2 MSTORE SWAP1 PUSH1 0x1 ADD SWAP1 PUSH1 0x20 ADD DUP1 DUP4 GT PUSH2 0x6CA JUMPI DUP3 SWAP1 SUB PUSH1 0x1F AND DUP3 ADD SWAP2 JUMPDEST POP POP POP POP POP SWAP1 DUP1 PUSH1 0x1 ADD DUP1 SLOAD PUSH2 0x6FC SWAP1 PUSH2 0x1090 JUMP JUMPDEST DUP1 PUSH1 0x1F ADD PUSH1 0x20 DUP1 SWAP2 DIV MUL PUSH1 0x20 ADD PUSH1 0x40 MLOAD SWAP1 DUP2 ADD PUSH1 0x40 MSTORE DUP1 SWAP3 SWAP2 SWAP1 DUP2 DUP2 MSTORE PUSH1 0x20 ADD DUP3 DUP1 SLOAD PUSH2 0x728 SWAP1 PUSH2 0x1090 JUMP JUMPDEST DUP1 ISZERO PUSH2 0x773 JUMPI DUP1 PUSH1 0x1F LT PUSH2 0x74A JUMPI PUSH2 0x100 DUP1 DUP4 SLOAD DIV MUL DUP4 MSTORE SWAP2 PUSH1 0x20 ADD SWAP2 PUSH2 0x773 JUMP JUMPDEST DUP3 ADD SWAP2 SWAP1 PUSH0 MSTORE PUSH1 0x20 PUSH0 KECCAK256 SWAP1 JUMPDEST DUP2 SLOAD DUP2 MSTORE SWAP1 PUSH1 0x1 ADD SWAP1 PUSH1 0x20 ADD DUP1 DUP4 GT PUSH2 0x756 JUMPI DUP3 SWAP1 SUB PUSH1 0x1F AND DUP3 ADD SWAP2 JUMPDEST POP POP POP POP POP SWAP1 DUP1 PUSH1 0x2 ADD PUSH0 SWAP1 SLOAD SWAP1 PUSH2 0x100 EXP SWAP1 DIV PUSH1 0xFF AND SWAP1 POP DUP4 JUMP JUMPDEST PUSH0 DUP1 SLOAD SWAP1 POP DUP2 LT PUSH2 0x7D5 JUMPI PUSH1 0x40 MLOAD PUSH32 0x8C379A000000000000000000000000000000000000000000000000000000000 DUP2 MSTORE PUSH1 0x4 ADD PUSH2 0x7CC SWAP1 PUSH2 0x15FD JUMP JUMPDEST PUSH1 0x40 MLOAD DUP1 SWAP2 SUB SWAP1 REVERT JUMPDEST PUSH0 DUP2 DUP2 SLOAD DUP2 LT PUSH2 0x7E8 JUMPI PUSH2 0x7E7 PUSH2 0x1446 JUMP JUMPDEST JUMPDEST SWAP1 PUSH0 MSTORE PUSH1 0x20 PUSH0 KECCAK256 SWAP1 PUSH1 0x3 MUL ADD PUSH1 0x2 ADD PUSH0 SWAP1 SLOAD SWAP1 PUSH2 0x100 EXP SWAP1 DIV PUSH1 0xFF AND ISZERO PUSH0 DUP3 DUP2 SLOAD DUP2 LT PUSH2 0x818 JUMPI PUSH2 0x817 PUSH2 0x1446 JUMP JUMPDEST JUMPDEST SWAP1 PUSH0 MSTORE PUSH1 0x20 PUSH0 KECCAK256 SWAP1 PUSH1 0x3 MUL ADD PUSH1 0x2 ADD PUSH0 PUSH2 0x100 EXP DUP2 SLOAD DUP2 PUSH1 0xFF MUL NOT AND SWAP1 DUP4 ISZERO ISZERO MUL OR SWAP1 SSTORE POP PUSH32 0xB84A3507A15618A089880B44621CBAC93A5991EC03F5E02E0C0B70273F94E71C DUP2 PUSH0 DUP4 DUP2 SLOAD DUP2 LT PUSH2 0x872 JUMPI PUSH2 0x871 PUSH2 0x1446 JUMP JUMPDEST JUMPDEST SWAP1 PUSH0 MSTORE PUSH1 0x20 PUSH0 KECCAK256 SWAP1 PUSH1 0x3 MUL ADD PUSH1 0x2 ADD PUSH0 SWAP1 SLOAD SWAP1 PUSH2 0x100 EXP SWAP1 DIV PUSH1 0xFF AND PUSH1 0x40 MLOAD PUSH2 0x89C SWAP3 SWAP2 SWAP1 PUSH2 0x161B JUMP JUMPDEST PUSH1 0x40 MLOAD DUP1 SWAP2 SUB SWAP1 LOG1 POP JUMP JUMPDEST PUSH1 0x60 DUP1 PUSH0 DUP1 SLOAD SWAP1 POP DUP4 PUSH1 0xFF AND LT PUSH2 0x8F3 JUMPI PUSH1 0x40 MLOAD PUSH32 0x8C379A000000000000000000000000000000000000000000000000000000000 DUP2 MSTORE PUSH1 0x4 ADD PUSH2 0x8EA SWAP1 PUSH2 0x15FD JUMP JUMPDEST PUSH1 0x40 MLOAD DUP1 SWAP2 SUB SWAP1 REVERT JUMPDEST PUSH0 DUP1 DUP5 PUSH1 0xFF AND DUP2 SLOAD DUP2 LT PUSH2 0x90A JUMPI PUSH2 0x909 PUSH2 0x1446 JUMP JUMPDEST JUMPDEST SWAP1 PUSH0 MSTORE PUSH1 0x20 PUSH0 KECCAK256 SWAP1 PUSH1 0x3 MUL ADD PUSH1 0x40 MLOAD DUP1 PUSH1 0x60 ADD PUSH1 0x40 MSTORE SWAP1 DUP2 PUSH0 DUP3 ADD DUP1 SLOAD PUSH2 0x930 SWAP1 PUSH2 0x1090 JUMP JUMPDEST DUP1 PUSH1 0x1F ADD PUSH1 0x20 DUP1 SWAP2 DIV MUL PUSH1 0x20 ADD PUSH1 0x40 MLOAD SWAP1 DUP2 ADD PUSH1 0x40 MSTORE DUP1 SWAP3 SWAP2 SWAP1 DUP2 DUP2 MSTORE PUSH1 0x20 ADD DUP3 DUP1 SLOAD PUSH2 0x95C SWAP1 PUSH2 0x1090 JUMP JUMPDEST DUP1 ISZERO PUSH2 0x9A7 JUMPI DUP1 PUSH1 0x1F LT PUSH2 0x97E JUMPI PUSH2 0x100 DUP1 DUP4 SLOAD DIV MUL DUP4 MSTORE SWAP2 PUSH1 0x20 ADD SWAP2 PUSH2 0x9A7 JUMP JUMPDEST DUP3 ADD SWAP2 SWAP1 PUSH0 MSTORE PUSH1 0x20 PUSH0 KECCAK256 SWAP1 JUMPDEST DUP2 SLOAD DUP2 MSTORE SWAP1 PUSH1 0x1 ADD SWAP1 PUSH1 0x20 ADD DUP1 DUP4 GT PUSH2 0x98A JUMPI DUP3 SWAP1 SUB PUSH1 0x1F AND DUP3 ADD SWAP2 JUMPDEST POP POP POP POP POP DUP2 MSTORE PUSH1 0x20 ADD PUSH1 0x1 DUP3 ADD DUP1 SLOAD PUSH2 0x9C0 SWAP1 PUSH2 0x1090 JUMP JUMPDEST DUP1 PUSH1 0x1F ADD PUSH1 0x20 DUP1 SWAP2 DIV MUL PUSH1 0x20 ADD PUSH1 0x40 MLOAD SWAP1 DUP2 ADD PUSH1 0x40 MSTORE DUP1 SWAP3 SWAP2 SWAP1 DUP2 DUP2 MSTORE PUSH1 0x20 ADD DUP3 DUP1 SLOAD PUSH2 0x9EC SWAP1 PUSH2 0x1090 JUMP JUMPDEST DUP1 ISZERO PUSH2 0xA37 JUMPI DUP1 PUSH1 0x1F LT PUSH2 0xA0E JUMPI PUSH2 0x100 DUP1 DUP4 SLOAD DIV MUL DUP4 MSTORE SWAP2 PUSH1 0x20 ADD SWAP2 PUSH2 0xA37 JUMP JUMPDEST DUP3 ADD SWAP2 SWAP1 PUSH0 MSTORE PUSH1 0x20 PUSH0 KECCAK256 SWAP1 JUMPDEST DUP2 SLOAD DUP2 MSTORE SWAP1 PUSH1 0x1 ADD SWAP1 PUSH1 0x20 ADD DUP1 DUP4 GT PUSH2 0xA1A JUMPI DUP3 SWAP1 SUB PUSH1 0x1F AND DUP3 ADD SWAP2 JUMPDEST POP POP POP POP POP DUP2 MSTORE PUSH1 0x20 ADD PUSH1 0x2 DUP3 ADD PUSH0 SWAP1 SLOAD SWAP1 PUSH2 0x100 EXP SWAP1 DIV PUSH1 0xFF AND ISZERO ISZERO ISZERO ISZERO DUP2 MSTORE POP POP SWAP1 POP DUP1 PUSH0 ADD MLOAD DUP2 PUSH1 0x20 ADD MLOAD SWAP3 POP SWAP3 POP POP SWAP2 POP SWAP2 JUMP JUMPDEST POP DUP1 SLOAD PUSH2 0xA7B SWAP1 PUSH2 0x1090 JUMP JUMPDEST PUSH0 DUP3 SSTORE DUP1 PUSH1 0x1F LT PUSH2 0xA8C JUMPI POP PUSH2 0xAA9 JUMP JUMPDEST PUSH1 0x1F ADD PUSH1 0x20 SWAP1 DIV SWAP1 PUSH0 MSTORE PUSH1 0x20 PUSH0 KECCAK256 SWAP1 DUP2 ADD SWAP1 PUSH2 0xAA8 SWAP2 SWAP1 PUSH2 0xAAC JUMP JUMPDEST JUMPDEST POP JUMP JUMPDEST JUMPDEST DUP1 DUP3 GT ISZERO PUSH2 0xAC3 JUMPI PUSH0 DUP2 PUSH0 SWAP1 SSTORE POP PUSH1 0x1 ADD PUSH2 0xAAD JUMP JUMPDEST POP SWAP1 JUMP JUMPDEST PUSH0 DUP2 MLOAD SWAP1 POP SWAP2 SWAP1 POP JUMP JUMPDEST PUSH0 DUP3 DUP3 MSTORE PUSH1 0x20 DUP3 ADD SWAP1 POP SWAP3 SWAP2 POP POP JUMP JUMPDEST PUSH0 DUP2 SWAP1 POP PUSH1 0x20 DUP3 ADD SWAP1 POP SWAP2 SWAP1 POP JUMP JUMPDEST PUSH0 DUP2 MLOAD SWAP1 POP SWAP2 SWAP1 POP JUMP JUMPDEST PUSH0 DUP3 DUP3 MSTORE PUSH1 0x20 DUP3 ADD SWAP1 POP SWAP3 SWAP2 POP POP JUMP JUMPDEST PUSH0 JUMPDEST DUP4 DUP2 LT ISZERO PUSH2 0xB27 JUMPI DUP1 DUP3 ADD MLOAD DUP2 DUP5 ADD MSTORE PUSH1 0x20 DUP2 ADD SWAP1 POP PUSH2 0xB0C JUMP JUMPDEST PUSH0 DUP5 DUP5 ADD MSTORE POP POP POP POP JUMP JUMPDEST PUSH0 PUSH1 0x1F NOT PUSH1 0x1F DUP4 ADD AND SWAP1 POP SWAP2 SWAP1 POP JUMP JUMPDEST PUSH0 PUSH2 0xB4C DUP3 PUSH2 0xAF0 JUMP JUMPDEST PUSH2 0xB56 DUP2 DUP6 PUSH2 0xAFA JUMP JUMPDEST SWAP4 POP PUSH2 0xB66 DUP2 DUP6 PUSH1 0x20 DUP7 ADD PUSH2 0xB0A JUMP JUMPDEST PUSH2 0xB6F DUP2 PUSH2 0xB32 JUMP JUMPDEST DUP5 ADD SWAP2 POP POP SWAP3 SWAP2 POP POP JUMP JUMPDEST PUSH0 DUP2 ISZERO ISZERO SWAP1 POP SWAP2 SWAP1 POP JUMP JUMPDEST PUSH2 0xB8E DUP2 PUSH2 0xB7A JUMP JUMPDEST DUP3 MSTORE POP POP JUMP JUMPDEST PUSH0 PUSH1 0x60 DUP4 ADD PUSH0 DUP4 ADD MLOAD DUP5 DUP3 SUB PUSH0 DUP7 ADD MSTORE PUSH2 0xBAE DUP3 DUP3 PUSH2 0xB42 JUMP JUMPDEST SWAP2 POP POP PUSH1 0x20 DUP4 ADD MLOAD DUP5 DUP3 SUB PUSH1 0x20 DUP7 ADD MSTORE PUSH2 0xBC8 DUP3 DUP3 PUSH2 0xB42 JUMP JUMPDEST SWAP2 POP POP PUSH1 0x40 DUP4 ADD MLOAD PUSH2 0xBDD PUSH1 0x40 DUP7 ADD DUP3 PUSH2 0xB85 JUMP JUMPDEST POP DUP1 SWAP2 POP POP SWAP3 SWAP2 POP POP JUMP JUMPDEST PUSH0 PUSH2 0xBF3 DUP4 DUP4 PUSH2 0xB94 JUMP JUMPDEST SWAP1 POP SWAP3 SWAP2 POP POP JUMP JUMPDEST PUSH0 PUSH1 0x20 DUP3 ADD SWAP1 POP SWAP2 SWAP1 POP JUMP JUMPDEST PUSH0 PUSH2 0xC11 DUP3 PUSH2 0xAC7 JUMP JUMPDEST PUSH2 0xC1B DUP2 DUP6 PUSH2 0xAD1 JUMP JUMPDEST SWAP4 POP DUP4 PUSH1 0x20 DUP3 MUL DUP6 ADD PUSH2 0xC2D DUP6 PUSH2 0xAE1 JUMP JUMPDEST DUP1 PUSH0 JUMPDEST DUP6 DUP2 LT ISZERO PUSH2 0xC68 JUMPI DUP5 DUP5 SUB DUP10 MSTORE DUP2 MLOAD PUSH2 0xC49 DUP6 DUP3 PUSH2 0xBE8 JUMP JUMPDEST SWAP5 POP PUSH2 0xC54 DUP4 PUSH2 0xBFB JUMP JUMPDEST SWAP3 POP PUSH1 0x20 DUP11 ADD SWAP10 POP POP PUSH1 0x1 DUP2 ADD SWAP1 POP PUSH2 0xC30 JUMP JUMPDEST POP DUP3 SWAP8 POP DUP8 SWAP6 POP POP POP POP POP POP SWAP3 SWAP2 POP POP JUMP JUMPDEST PUSH0 PUSH1 0x20 DUP3 ADD SWAP1 POP DUP2 DUP2 SUB PUSH0 DUP4 ADD MSTORE PUSH2 0xC92 DUP2 DUP5 PUSH2 0xC07 JUMP JUMPDEST SWAP1 POP SWAP3 SWAP2 POP POP JUMP JUMPDEST PUSH0 PUSH1 0x40 MLOAD SWAP1 POP SWAP1 JUMP JUMPDEST PUSH0 DUP1 REVERT JUMPDEST PUSH0 DUP1 REVERT JUMPDEST PUSH0 DUP1 REVERT JUMPDEST PUSH0 DUP1 REVERT JUMPDEST PUSH32 0x4E487B7100000000000000000000000000000000000000000000000000000000 PUSH0 MSTORE PUSH1 0x41 PUSH1 0x4 MSTORE PUSH1 0x24 PUSH0 REVERT JUMPDEST PUSH2 0xCE9 DUP3 PUSH2 0xB32 JUMP JUMPDEST DUP2 ADD DUP2 DUP2 LT PUSH8 0xFFFFFFFFFFFFFFFF DUP3 GT OR ISZERO PUSH2 0xD08 JUMPI PUSH2 0xD07 PUSH2 0xCB3 JUMP JUMPDEST JUMPDEST DUP1 PUSH1 0x40 MSTORE POP POP POP JUMP JUMPDEST PUSH0 PUSH2 0xD1A PUSH2 0xC9A JUMP JUMPDEST SWAP1 POP PUSH2 0xD26 DUP3 DUP3 PUSH2 0xCE0 JUMP JUMPDEST SWAP2 SWAP1 POP JUMP JUMPDEST PUSH0 PUSH8 0xFFFFFFFFFFFFFFFF DUP3 GT ISZERO PUSH2 0xD45 JUMPI PUSH2 0xD44 PUSH2 0xCB3 JUMP JUMPDEST JUMPDEST PUSH2 0xD4E DUP3 PUSH2 0xB32 JUMP JUMPDEST SWAP1 POP PUSH1 0x20 DUP2 ADD SWAP1 POP SWAP2 SWAP1 POP JUMP JUMPDEST DUP3 DUP2 DUP4 CALLDATACOPY PUSH0 DUP4 DUP4 ADD MSTORE POP POP POP JUMP JUMPDEST PUSH0 PUSH2 0xD7B PUSH2 0xD76 DUP5 PUSH2 0xD2B JUMP JUMPDEST PUSH2 0xD11 JUMP JUMPDEST SWAP1 POP DUP3 DUP2 MSTORE PUSH1 0x20 DUP2 ADD DUP5 DUP5 DUP5 ADD GT ISZERO PUSH2 0xD97 JUMPI PUSH2 0xD96 PUSH2 0xCAF JUMP JUMPDEST JUMPDEST PUSH2 0xDA2 DUP5 DUP3 DUP6 PUSH2 0xD5B JUMP JUMPDEST POP SWAP4 SWAP3 POP POP POP JUMP JUMPDEST PUSH0 DUP3 PUSH1 0x1F DUP4 ADD SLT PUSH2 0xDBE JUMPI PUSH2 0xDBD PUSH2 0xCAB JUMP JUMPDEST JUMPDEST DUP2 CALLDATALOAD PUSH2 0xDCE DUP5 DUP3 PUSH1 0x20 DUP7 ADD PUSH2 0xD69 JUMP JUMPDEST SWAP2 POP POP SWAP3 SWAP2 POP POP JUMP JUMPDEST PUSH0 DUP1 PUSH1 0x40 DUP4 DUP6 SUB SLT ISZERO PUSH2 0xDED JUMPI PUSH2 0xDEC PUSH2 0xCA3 JUMP JUMPDEST JUMPDEST PUSH0 DUP4 ADD CALLDATALOAD PUSH8 0xFFFFFFFFFFFFFFFF DUP2 GT ISZERO PUSH2 0xE0A JUMPI PUSH2 0xE09 PUSH2 0xCA7 JUMP JUMPDEST JUMPDEST PUSH2 0xE16 DUP6 DUP3 DUP7 ADD PUSH2 0xDAA JUMP JUMPDEST SWAP3 POP POP PUSH1 0x20 DUP4 ADD CALLDATALOAD PUSH8 0xFFFFFFFFFFFFFFFF DUP2 GT ISZERO PUSH2 0xE37 JUMPI PUSH2 0xE36 PUSH2 0xCA7 JUMP JUMPDEST JUMPDEST PUSH2 0xE43 DUP6 DUP3 DUP7 ADD PUSH2 0xDAA JUMP JUMPDEST SWAP2 POP POP SWAP3 POP SWAP3 SWAP1 POP JUMP JUMPDEST PUSH0 DUP2 SWAP1 POP SWAP2 SWAP1 POP JUMP JUMPDEST PUSH2 0xE5F DUP2 PUSH2 0xE4D JUMP JUMPDEST DUP2 EQ PUSH2 0xE69 JUMPI PUSH0 DUP1 REVERT JUMPDEST POP JUMP JUMPDEST PUSH0 DUP2 CALLDATALOAD SWAP1 POP PUSH2 0xE7A DUP2 PUSH2 0xE56 JUMP JUMPDEST SWAP3 SWAP2 POP POP JUMP JUMPDEST PUSH0 PUSH1 0x20 DUP3 DUP5 SUB SLT ISZERO PUSH2 0xE95 JUMPI PUSH2 0xE94 PUSH2 0xCA3 JUMP JUMPDEST JUMPDEST PUSH0 PUSH2 0xEA2 DUP5 DUP3 DUP6 ADD PUSH2 0xE6C JUMP JUMPDEST SWAP2 POP POP SWAP3 SWAP2 POP POP JUMP JUMPDEST PUSH0 DUP1 PUSH0 PUSH1 0x60 DUP5 DUP7 SUB SLT ISZERO PUSH2 0xEC2 JUMPI PUSH2 0xEC1 PUSH2 0xCA3 JUMP JUMPDEST JUMPDEST PUSH0 PUSH2 0xECF DUP7 DUP3 DUP8 ADD PUSH2 0xE6C JUMP JUMPDEST SWAP4 POP POP PUSH1 0x20 DUP5 ADD CALLDATALOAD PUSH8 0xFFFFFFFFFFFFFFFF DUP2 GT ISZERO PUSH2 0xEF0 JUMPI PUSH2 0xEEF PUSH2 0xCA7 JUMP JUMPDEST JUMPDEST PUSH2 0xEFC DUP7 DUP3 DUP8 ADD PUSH2 0xDAA JUMP JUMPDEST SWAP3 POP POP PUSH1 0x40 DUP5 ADD CALLDATALOAD PUSH8 0xFFFFFFFFFFFFFFFF DUP2 GT ISZERO PUSH2 0xF1D JUMPI PUSH2 0xF1C PUSH2 0xCA7 JUMP JUMPDEST JUMPDEST PUSH2 0xF29 DUP7 DUP3 DUP8 ADD PUSH2 0xDAA JUMP JUMPDEST SWAP2 POP POP SWAP3 POP SWAP3 POP SWAP3 JUMP JUMPDEST PUSH0 DUP3 DUP3 MSTORE PUSH1 0x20 DUP3 ADD SWAP1 POP SWAP3 SWAP2 POP POP JUMP JUMPDEST PUSH0 PUSH2 0xF4D DUP3 PUSH2 0xAF0 JUMP JUMPDEST PUSH2 0xF57 DUP2 DUP6 PUSH2 0xF33 JUMP JUMPDEST SWAP4 POP PUSH2 0xF67 DUP2 DUP6 PUSH1 0x20 DUP7 ADD PUSH2 0xB0A JUMP JUMPDEST PUSH2 0xF70 DUP2 PUSH2 0xB32 JUMP JUMPDEST DUP5 ADD SWAP2 POP POP SWAP3 SWAP2 POP POP JUMP JUMPDEST PUSH2 0xF84 DUP2 PUSH2 0xB7A JUMP JUMPDEST DUP3 MSTORE POP POP JUMP JUMPDEST PUSH0 PUSH1 0x60 DUP3 ADD SWAP1 POP DUP2 DUP2 SUB PUSH0 DUP4 ADD MSTORE PUSH2 0xFA2 DUP2 DUP7 PUSH2 0xF43 JUMP JUMPDEST SWAP1 POP DUP2 DUP2 SUB PUSH1 0x20 DUP4 ADD MSTORE PUSH2 0xFB6 DUP2 DUP6 PUSH2 0xF43 JUMP JUMPDEST SWAP1 POP PUSH2 0xFC5 PUSH1 0x40 DUP4 ADD DUP5 PUSH2 0xF7B JUMP JUMPDEST SWAP5 SWAP4 POP POP POP POP JUMP JUMPDEST PUSH0 PUSH1 0xFF DUP3 AND SWAP1 POP SWAP2 SWAP1 POP JUMP JUMPDEST PUSH2 0xFE2 DUP2 PUSH2 0xFCD JUMP JUMPDEST DUP2 EQ PUSH2 0xFEC JUMPI PUSH0 DUP1 REVERT JUMPDEST POP JUMP JUMPDEST PUSH0 DUP2 CALLDATALOAD SWAP1 POP PUSH2 0xFFD DUP2 PUSH2 0xFD9 JUMP JUMPDEST SWAP3 SWAP2 POP POP JUMP JUMPDEST PUSH0 PUSH1 0x20 DUP3 DUP5 SUB SLT ISZERO PUSH2 0x1018 JUMPI PUSH2 0x1017 PUSH2 0xCA3 JUMP JUMPDEST JUMPDEST PUSH0 PUSH2 0x1025 DUP5 DUP3 DUP6 ADD PUSH2 0xFEF JUMP JUMPDEST SWAP2 POP POP SWAP3 SWAP2 POP POP JUMP JUMPDEST PUSH0 PUSH1 0x40 DUP3 ADD SWAP1 POP DUP2 DUP2 SUB PUSH0 DUP4 ADD MSTORE PUSH2 0x1046 DUP2 DUP6 PUSH2 0xF43 JUMP JUMPDEST SWAP1 POP DUP2 DUP2 SUB PUSH1 0x20 DUP4 ADD MSTORE PUSH2 0x105A DUP2 DUP5 PUSH2 0xF43 JUMP JUMPDEST SWAP1 POP SWAP4 SWAP3 POP POP POP JUMP JUMPDEST PUSH32 0x4E487B7100000000000000000000000000000000000000000000000000000000 PUSH0 MSTORE PUSH1 0x22 PUSH1 0x4 MSTORE PUSH1 0x24 PUSH0 REVERT JUMPDEST PUSH0 PUSH1 0x2 DUP3 DIV SWAP1 POP PUSH1 0x1 DUP3 AND DUP1 PUSH2 0x10A7 JUMPI PUSH1 0x7F DUP3 AND SWAP2 POP JUMPDEST PUSH1 0x20 DUP3 LT DUP2 SUB PUSH2 0x10BA JUMPI PUSH2 0x10B9 PUSH2 0x1063 JUMP JUMPDEST JUMPDEST POP SWAP2 SWAP1 POP JUMP JUMPDEST PUSH0 DUP2 SWAP1 POP DUP2 PUSH0 MSTORE PUSH1 0x20 PUSH0 KECCAK256 SWAP1 POP SWAP2 SWAP1 POP JUMP JUMPDEST PUSH0 PUSH1 0x20 PUSH1 0x1F DUP4 ADD DIV SWAP1 POP SWAP2 SWAP1 POP JUMP JUMPDEST PUSH0 DUP3 DUP3 SHL SWAP1 POP SWAP3 SWAP2 POP POP JUMP JUMPDEST PUSH0 PUSH1 0x8 DUP4 MUL PUSH2 0x111C PUSH32 0xFFFFFFFFFFFFFFFFFFFFFFFFFFFFFFFFFFFFFFFFFFFFFFFFFFFFFFFFFFFFFFFF DUP3 PUSH2 0x10E1 JUMP JUMPDEST PUSH2 0x1126 DUP7 DUP4 PUSH2 0x10E1 JUMP JUMPDEST SWAP6 POP DUP1 NOT DUP5 AND SWAP4 POP DUP1 DUP7 AND DUP5 OR SWAP3 POP POP POP SWAP4 SWAP3 POP POP POP JUMP JUMPDEST PUSH0 DUP2 SWAP1 POP SWAP2 SWAP1 POP JUMP JUMPDEST PUSH0 PUSH2 0x1161 PUSH2 0x115C PUSH2 0x1157 DUP5 PUSH2 0xE4D JUMP JUMPDEST PUSH2 0x113E JUMP JUMPDEST PUSH2 0xE4D JUMP JUMPDEST SWAP1 POP SWAP2 SWAP1 POP JUMP JUMPDEST PUSH0 DUP2 SWAP1 POP SWAP2 SWAP1 POP JUMP JUMPDEST PUSH2 0x117A DUP4 PUSH2 0x1147 JUMP JUMPDEST PUSH2 0x118E PUSH2 0x1186 DUP3 PUSH2 0x1168 JUMP JUMPDEST DUP5 DUP5 SLOAD PUSH2 0x10ED JUMP JUMPDEST DUP3 SSTORE POP POP POP POP JUMP JUMPDEST PUSH0 SWAP1 JUMP JUMPDEST PUSH2 0x11A2 PUSH2 0x1196 JUMP JUMPDEST PUSH2 0x11AD DUP2 DUP5 DUP5 PUSH2 0x1171 JUMP JUMPDEST POP POP POP JUMP JUMPDEST JUMPDEST DUP2 DUP2 LT ISZERO PUSH2 0x11D0 JUMPI PUSH2 0x11C5 PUSH0 DUP3 PUSH2 0x119A JUMP JUMPDEST PUSH1 0x1 DUP2 ADD SWAP1 POP PUSH2 0x11B3 JUMP JUMPDEST POP POP JUMP JUMPDEST PUSH1 0x1F DUP3 GT ISZERO PUSH2 0x1215 JUMPI PUSH2 0x11E6 DUP2 PUSH2 0x10C0 JUMP JUMPDEST PUSH2 0x11EF DUP5 PUSH2 0x10D2 JUMP JUMPDEST DUP2 ADD PUSH1 0x20 DUP6 LT ISZERO PUSH2 0x11FE JUMPI DUP2 SWAP1 POP JUMPDEST PUSH2 0x1212 PUSH2 0x120A DUP6 PUSH2 0x10D2 JUMP JUMPDEST DUP4 ADD DUP3 PUSH2 0x11B2 JUMP JUMPDEST POP POP JUMPDEST POP POP POP JUMP JUMPDEST PUSH0 DUP3 DUP3 SHR SWAP1 POP SWAP3 SWAP2 POP POP JUMP JUMPDEST PUSH0 PUSH2 0x1235 PUSH0 NOT DUP5 PUSH1 0x8 MUL PUSH2 0x121A JUMP JUMPDEST NOT DUP1 DUP4 AND SWAP2 POP POP SWAP3 SWAP2 POP POP JUMP JUMPDEST PUSH0 PUSH2 0x124D DUP4 DUP4 PUSH2 0x1226 JUMP JUMPDEST SWAP2 POP DUP3 PUSH1 0x2 MUL DUP3 OR SWAP1 POP SWAP3 SWAP2 POP POP JUMP JUMPDEST PUSH2 0x1266 DUP3 PUSH2 0xAF0 JUMP JUMPDEST PUSH8 0xFFFFFFFFFFFFFFFF DUP2 GT ISZERO PUSH2 0x127F JUMPI PUSH2 0x127E PUSH2 0xCB3 JUMP JUMPDEST JUMPDEST PUSH2 0x1289 DUP3 SLOAD PUSH2 0x1090 JUMP JUMPDEST PUSH2 0x1294 DUP3 DUP3 DUP6 PUSH2 0x11D4 JUMP JUMPDEST PUSH0 PUSH1 0x20 SWAP1 POP PUSH1 0x1F DUP4 GT PUSH1 0x1 DUP2 EQ PUSH2 0x12C5 JUMPI PUSH0 DUP5 ISZERO PUSH2 0x12B3 JUMPI DUP3 DUP8 ADD MLOAD SWAP1 POP JUMPDEST PUSH2 0x12BD DUP6 DUP3 PUSH2 0x1242 JUMP JUMPDEST DUP7 SSTORE POP PUSH2 0x1324 JUMP JUMPDEST PUSH1 0x1F NOT DUP5 AND PUSH2 0x12D3 DUP7 PUSH2 0x10C0 JUMP JUMPDEST PUSH0 JUMPDEST DUP3 DUP2 LT ISZERO PUSH2 0x12FA JUMPI DUP5 DUP10 ADD MLOAD DUP3 SSTORE PUSH1 0x1 DUP3 ADD SWAP2 POP PUSH1 0x20 DUP6 ADD SWAP5 POP PUSH1 0x20 DUP2 ADD SWAP1 POP PUSH2 0x12D5 JUMP JUMPDEST DUP7 DUP4 LT ISZERO PUSH2 0x1317 JUMPI DUP5 DUP10 ADD MLOAD PUSH2 0x1313 PUSH1 0x1F DUP10 AND DUP3 PUSH2 0x1226 JUMP JUMPDEST DUP4 SSTORE POP JUMPDEST PUSH1 0x1 PUSH1 0x2 DUP9 MUL ADD DUP9 SSTORE POP POP POP JUMPDEST POP POP POP POP POP POP JUMP JUMPDEST PUSH32 0x4E487B7100000000000000000000000000000000000000000000000000000000 PUSH0 MSTORE PUSH1 0x11 PUSH1 0x4 MSTORE PUSH1 0x24 PUSH0 REVERT JUMPDEST PUSH0 PUSH2 0x1363 DUP3 PUSH2 0xE4D JUMP JUMPDEST SWAP2 POP PUSH2 0x136E DUP4 PUSH2 0xE4D JUMP JUMPDEST SWAP3 POP DUP3 DUP3 SUB SWAP1 POP DUP2 DUP2 GT ISZERO PUSH2 0x1386 JUMPI PUSH2 0x1385 PUSH2 0x132C JUMP JUMPDEST JUMPDEST SWAP3 SWAP2 POP POP JUMP JUMPDEST PUSH2 0x1395 DUP2 PUSH2 0xE4D JUMP JUMPDEST DUP3 MSTORE POP POP JUMP JUMPDEST PUSH0 PUSH1 0x60 DUP3 ADD SWAP1 POP PUSH2 0x13AE PUSH0 DUP4 ADD DUP7 PUSH2 0x138C JUMP JUMPDEST DUP2 DUP2 SUB PUSH1 0x20 DUP4 ADD MSTORE PUSH2 0x13C0 DUP2 DUP6 PUSH2 0xF43 JUMP JUMPDEST SWAP1 POP DUP2 DUP2 SUB PUSH1 0x40 DUP4 ADD MSTORE PUSH2 0x13D4 DUP2 DUP5 PUSH2 0xF43 JUMP JUMPDEST SWAP1 POP SWAP5 SWAP4 POP POP POP POP JUMP JUMPDEST PUSH32 0x546F646F206974656D206E6F7420666F756E64206F72206578697374696E6721 PUSH0 DUP3 ADD MSTORE POP JUMP JUMPDEST PUSH0 PUSH2 0x1412 PUSH1 0x20 DUP4 PUSH2 0xF33 JUMP JUMPDEST SWAP2 POP PUSH2 0x141D DUP3 PUSH2 0x13DE JUMP JUMPDEST PUSH1 0x20 DUP3 ADD SWAP1 POP SWAP2 SWAP1 POP JUMP JUMPDEST PUSH0 PUSH1 0x20 DUP3 ADD SWAP1 POP DUP2 DUP2 SUB PUSH0 DUP4 ADD MSTORE PUSH2 0x143F DUP2 PUSH2 0x1406 JUMP JUMPDEST SWAP1 POP SWAP2 SWAP1 POP JUMP JUMPDEST PUSH32 0x4E487B7100000000000000000000000000000000000000000000000000000000 PUSH0 MSTORE PUSH1 0x32 PUSH1 0x4 MSTORE PUSH1 0x24 PUSH0 REVERT JUMPDEST PUSH0 DUP2 SLOAD SWAP1 POP PUSH2 0x1481 DUP2 PUSH2 0x1090 JUMP JUMPDEST SWAP1 POP SWAP2 SWAP1 POP JUMP JUMPDEST DUP2 DUP2 SUB PUSH2 0x1496 JUMPI POP POP PUSH2 0x156B JUMP JUMPDEST PUSH2 0x149F DUP3 PUSH2 0x1473 JUMP JUMPDEST PUSH8 0xFFFFFFFFFFFFFFFF DUP2 GT ISZERO PUSH2 0x14B8 JUMPI PUSH2 0x14B7 PUSH2 0xCB3 JUMP JUMPDEST JUMPDEST PUSH2 0x14C2 DUP3 SLOAD PUSH2 0x1090 JUMP JUMPDEST PUSH2 0x14CD DUP3 DUP3 DUP6 PUSH2 0x11D4 JUMP JUMPDEST PUSH0 PUSH1 0x1F DUP4 GT PUSH1 0x1 DUP2 EQ PUSH2 0x14FA JUMPI PUSH0 DUP5 ISZERO PUSH2 0x14E8 JUMPI DUP3 DUP8 ADD SLOAD SWAP1 POP JUMPDEST PUSH2 0x14F2 DUP6 DUP3 PUSH2 0x1242 JUMP JUMPDEST DUP7 SSTORE POP PUSH2 0x1564 JUMP JUMPDEST PUSH1 0x1F NOT DUP5 AND PUSH2 0x1508 DUP8 PUSH2 0x10C0 JUMP JUMPDEST SWAP7 POP PUSH2 0x1513 DUP7 PUSH2 0x10C0 JUMP JUMPDEST PUSH0 JUMPDEST DUP3 DUP2 LT ISZERO PUSH2 0x153A JUMPI DUP5 DUP10 ADD SLOAD DUP3 SSTORE PUSH1 0x1 DUP3 ADD SWAP2 POP PUSH1 0x1 DUP6 ADD SWAP5 POP PUSH1 0x20 DUP2 ADD SWAP1 POP PUSH2 0x1515 JUMP JUMPDEST DUP7 DUP4 LT ISZERO PUSH2 0x1557 JUMPI DUP5 DUP10 ADD SLOAD PUSH2 0x1553 PUSH1 0x1F DUP10 AND DUP3 PUSH2 0x1226 JUMP JUMPDEST DUP4 SSTORE POP JUMPDEST PUSH1 0x1 PUSH1 0x2 DUP9 MUL ADD DUP9 SSTORE POP POP POP JUMPDEST POP POP POP POP POP POP JUMPDEST JUMP JUMPDEST PUSH32 0x4E487B7100000000000000000000000000000000000000000000000000000000 PUSH0 MSTORE PUSH1 0x31 PUSH1 0x4 MSTORE PUSH1 0x24 PUSH0 REVERT JUMPDEST PUSH0 PUSH1 0x20 DUP3 ADD SWAP1 POP PUSH2 0x15AD PUSH0 DUP4 ADD DUP5 PUSH2 0x138C JUMP JUMPDEST SWAP3 SWAP2 POP POP JUMP JUMPDEST PUSH32 0x546F646F206974656D206E6F7420666F756E6400000000000000000000000000 PUSH0 DUP3 ADD MSTORE POP JUMP JUMPDEST PUSH0 PUSH2 0x15E7 PUSH1 0x13 DUP4 PUSH2 0xF33 JUMP JUMPDEST SWAP2 POP PUSH2 0x15F2 DUP3 PUSH2 0x15B3 JUMP JUMPDEST PUSH1 0x20 DUP3 ADD SWAP1 POP SWAP2 SWAP1 POP JUMP JUMPDEST PUSH0 PUSH1 0x20 DUP3 ADD SWAP1 POP DUP2 DUP2 SUB PUSH0 DUP4 ADD MSTORE PUSH2 0x1614 DUP2 PUSH2 0x15DB JUMP JUMPDEST SWAP1 POP SWAP2 SWAP1 POP JUMP JUMPDEST PUSH0 PUSH1 0x40 DUP3 ADD SWAP1 POP PUSH2 0x162E PUSH0 DUP4 ADD DUP6 PUSH2 0x138C JUMP JUMPDEST PUSH2 0x163B PUSH1 0x20 DUP4 ADD DUP5 PUSH2 0xF7B JUMP JUMPDEST SWAP4 SWAP3 POP POP POP JUMP INVALID LOG2 PUSH5 0x6970667358 0x22 SLT KECCAK256 0xC6 0xE5 0xA9 0x21 0xE0 PUSH4 0x6AA7F789 0xE5 PREVRANDAO PUSH27 0xACD076E8AB04E0FD62D4F2F0703AB69B77609F64736F6C63430008 XOR STOP CALLER "
		},
		"gasEstimates": {
			"creation": {
				"codeDepositCost": "1150400",
				"executionCost": "1192",
				"totalCost": "1151592"
			},
			"external": {
				"addTodo(string,string)": "infinite",
				"deleteTodo(uint256)": "infinite",
				"getTodo(uint8)": "infinite",
				"getTodoLists()": "infinite",
				"todos(uint256)": "infinite",
				"toggleIsDone(uint256)": "infinite",
				"updateTodo(uint256,string,string)": "infinite"
			}
		},
		"methodIdentifiers": {
			"addTodo(string,string)": "1b7fb260",
			"deleteTodo(uint256)": "6e3c6738",
			"getTodo(uint8)": "fb0b86fb",
			"getTodoLists()": "0709ecf2",
			"todos(uint256)": "bc8bc2b4",
			"toggleIsDone(uint256)": "c1876bfd",
			"updateTodo(uint256,string,string)": "81e94199"
		}
	},
	"abi": [
		{
			"anonymous": false,
			"inputs": [
				{
					"indexed": false,
					"internalType": "uint256",
					"name": "todoId",
					"type": "uint256"
				},
				{
					"indexed": false,
					"internalType": "string",
					"name": "_title",
					"type": "string"
				},
				{
					"indexed": false,
					"internalType": "string",
					"name": "_description",
					"type": "string"
				}
			],
			"name": "TodoAdded",
			"type": "event"
		},
		{
			"anonymous": false,
			"inputs": [
				{
					"indexed": false,
					"internalType": "uint256",
					"name": "todoId",
					"type": "uint256"
				},
				{
					"indexed": false,
					"internalType": "bool",
					"name": "isDone",
					"type": "bool"
				}
			],
			"name": "TodoCompleted",
			"type": "event"
		},
		{
			"anonymous": false,
			"inputs": [
				{
					"indexed": false,
					"internalType": "uint256",
					"name": "",
					"type": "uint256"
				}
			],
			"name": "TodoDeleted",
			"type": "event"
		},
		{
			"anonymous": false,
			"inputs": [
				{
					"indexed": false,
					"internalType": "uint256",
					"name": "todoId",
					"type": "uint256"
				},
				{
					"indexed": false,
					"internalType": "string",
					"name": "_updatedTitle",
					"type": "string"
				},
				{
					"indexed": false,
					"internalType": "string",
					"name": "_updatedDesc",
					"type": "string"
				}
			],
			"name": "TodoUpdated",
			"type": "event"
		},
		{
			"inputs": [
				{
					"internalType": "string",
					"name": "_title",
					"type": "string"
				},
				{
					"internalType": "string",
					"name": "_description",
					"type": "string"
				}
			],
			"name": "addTodo",
			"outputs": [],
			"stateMutability": "nonpayable",
			"type": "function"
		},
		{
			"inputs": [
				{
					"internalType": "uint256",
					"name": "_todoId",
					"type": "uint256"
				}
			],
			"name": "deleteTodo",
			"outputs": [],
			"stateMutability": "nonpayable",
			"type": "function"
		},
		{
			"inputs": [
				{
					"internalType": "uint8",
					"name": "_todoId",
					"type": "uint8"
				}
			],
			"name": "getTodo",
			"outputs": [
				{
					"internalType": "string",
					"name": "title",
					"type": "string"
				},
				{
					"internalType": "string",
					"name": "description",
					"type": "string"
				}
			],
			"stateMutability": "view",
			"type": "function"
		},
		{
			"inputs": [],
			"name": "getTodoLists",
			"outputs": [
				{
					"components": [
						{
							"internalType": "string",
							"name": "title",
							"type": "string"
						},
						{
							"internalType": "string",
							"name": "description",
							"type": "string"
						},
						{
							"internalType": "bool",
							"name": "isDone",
							"type": "bool"
						}
					],
					"internalType": "struct TodoContract.Todo[]",
					"name": "",
					"type": "tuple[]"
				}
			],
			"stateMutability": "view",
			"type": "function"
		},
		{
			"inputs": [
				{
					"internalType": "uint256",
					"name": "",
					"type": "uint256"
				}
			],
			"name": "todos",
			"outputs": [
				{
					"internalType": "string",
					"name": "title",
					"type": "string"
				},
				{
					"internalType": "string",
					"name": "description",
					"type": "string"
				},
				{
					"internalType": "bool",
					"name": "isDone",
					"type": "bool"
				}
			],
			"stateMutability": "view",
			"type": "function"
		},
		{
			"inputs": [
				{
					"internalType": "uint256",
					"name": "_todoId",
					"type": "uint256"
				}
			],
			"name": "toggleIsDone",
			"outputs": [],
			"stateMutability": "nonpayable",
			"type": "function"
		},
		{
			"inputs": [
				{
					"internalType": "uint256",
					"name": "_todoId",
					"type": "uint256"
				},
				{
					"internalType": "string",
					"name": "_updatedTitle",
					"type": "string"
				},
				{
					"internalType": "string",
					"name": "_updatedDesc",
					"type": "string"
				}
			],
			"name": "updateTodo",
			"outputs": [],
			"stateMutability": "nonpayable",
			"type": "function"
		}
	]
}